:020000040800F2
:10000000F06C0020ED0A0008E1030008E30300089B
:10001000E7030008EB030008EF03000800000000FE
:10002000000000000000000000000000ED010008DA
:10003000F30300080000000031020008715F0008AF
:10004000070B0008070B0008070B0008070B000848
:10005000070B0008070B0008070B0008070B000838
:10006000070B0008070B0008070B0008070B000828
:10007000070B0008070B0008070B0008070B000818
:10008000070B0008070B0008070B0008070B000808
:10009000070B0008070B0008070B0008070B0008F8
:1000A000070B0008070B0008070B0008070B0008E8
:1000B000070B0008070B0008070B0008070B0008D8
:1000C000070B0008070B0008070B0008070B0008C8
:1000D000070B000841610008070B0008070B000828
:1000E000070B0008070B0008070B0008070B0008A8
:1000F000070B0008070B0008070B0008070B000898
:10010000070B0008070B0008070B0008070B000887
:10011000070B0008070B0008070B0008070B000877
:10012000070B0008070B0008070B0008070B000867
:1001300000F002F800F04AF80AA090E8000C8244AF
:100140008344AAF10107DA4501D100F03FF8AFF28C
:10015000090EBAE80F0013F0010F18BFFB1A43F0A5
:1001600001031847E465000004660000103A24BF4C
:1001700078C878C1FAD8520724BF30C830C144BF0C
:1001800004680C607047000000230024002500264E
:10019000103A28BF78C1FBD8520728BF30C148BFEA
:1001A0000B607047642906F09180752906F08E80F7
:1001B000632906F02082732906F02582002070470B
:1001C0001FB506F0D4F81FBD10B510BD06F08AFAB1
:1001D0001146FFF7F5FF00F07DF806F0A8FA03B42A
:1001E000FFF7F2FF03BC05F051FF0000224B196836
:1001F0000868B0E8F00F80F30988BFF36F8F4FF005
:10020000000080F311884EF00D0E704700000000D2
:1002100006480068006880F3088862B661B6BFF3DC
:100220004F8FBFF36F8F00DF00BF00BF08ED00E00E
:10023000EFF30980BFF36F8F0F4B1A6820E9F00FBF
:10024000106008B54FF0500080F31188BFF34F8F56
:10025000BFF36F8F04F027F84FF0000080F3118890
:10026000BDE8084019680868B0E8F00F80F3098815
:10027000BFF36F8F704700BF34000020EFF305809D
:10028000704700000B49D1F800C04A685CF8043B95
:100290001068184442F8040B8C4528BFA1F1DC0C0F
:1002A0008A4228BFA1F1DC02C1F800C04A6020F0F8
:1002B0000040704784660020344B0360344B0B6071
:1002C000822313607047334B0360334B0B608223F0
:1002D000136070474FF4407001F0ACF905F050FE28
:1002E0004FF4E13005F0E0FE00F074F900215920F0
:1002F00000F0E1F900F036FA05E000F01EFB00F036
:1003000063FB00F0A8FBF8E709E024480068C0435D
:100310002349C1F888014FF4FA6003F09CFEF4E72A
:1003200009E020480068C0431F49C1F8A0014FF40C
:10033000FA6003F090FEF4E73EB5044605F06CFD6C
:100340001A481B4901220023CDE900210290802296
:1003500018A1AFF2330003F09BFB1949086019485C
:10036000194901220023CDE900210290802217A122
:10037000AFF26B0003F08CFB174908601748006868
:1003800003F03CFC05F06BFD3EBD00002C0A002094
:10039000880A0020C8070020240800208881224203
:1003A00000802242A00121420000214210050020CD
:1003B000100300207461736B315F7461736B000014
:1003C000040000206C0700206C0500207461736B32
:1003D000325F7461736B0000080000200000002091
:1003E000704700BFFEE700BFFEE700BFFEE700BFAB
:1003F000FEE770470CB50020019000906C48006843
:1004000040F480306A49086000BF6948006800F421
:10041000003000900198401C0190009818B9019894
:10042000B0F5A06FF1D16248006800F4003010B15F
:100430000120009001E0002000900098012843D1A5
:100440005C48006840F010005A490860084600689F
:1004500020F0030008600846006840F002000860D1
:10046000534840685249486008464068486008461A
:10047000406840F4806048600846406820F47C1082
:1004800048600846406840F4E81048600846006844
:1004900040F08070086000BF4548006800F00070C0
:1004A0000028F9D04248406820F0030040494860E5
:1004B0000846406840F00200486000BF3C48406881
:1004C00000F00C000828F9D10CBD10B5FFF792FF21
:1004D00010BD10B53648006840F00100344908608E
:1004E0000846406834490840314948600846006879
:1004F000324908402E4908600846006820F48020F0
:1005000008600846406820F4FE0048604FF41F0071
:100510008860FFF7DAFF4FF000602949086010BDDE
:1005200010B5002100200022214B5B6803F00C0174
:1005300021B1042906D0082928D107E0214B224CFB
:10054000236027E01F4B204C236023E0184B5B689F
:1005500003F47010164B5B6803F48032022303EB44
:10056000904022B9194B4343174C23600DE0104BC8
:100570005B6803F4003323B1144B4343124C2360F4
:1005800003E0104B4343104C236003E00D4B0E4C33
:10059000236000BF00BF064B5B68C3F303130C4C22
:1005A000E15C094B1B68CB40074C236010BD000089
:1005B00000100240002002400000FFF8FFFFF6FE9E
:1005C00008ED00E000127A000C00002000093D0058
:1005D0001000002008B50121242000F0C3FD4FF4D5
:1005E0008070ADF8000010208DF8030003208DF816
:1005F00002006946094800F0F9FA4FF48071074893
:1006000000F0A1FB0420ADF800006946044800F0AA
:10061000EDFA0421024800F096FB08BD00080140F5
:100620000014014030B589B005460C460121C802CE
:1006300000F098FD0121042000F094FD4FF480703B
:10064000ADF8200018208DF8230003208DF822003B
:1006500008A9404800F0CAFAADF81850ADF81440A7
:100660000020ADF81A00ADF8160005A93A4801F0CF
:100670004DFA7020ADF804000120ADF806002D20E1
:10068000ADF80A000020ADF80C0001A9324801F0D5
:100690007AFA0121304801F0A1FD08212E4801F02D
:1006A000C1FE01212C4801F08DFE01212A4801F0F4
:1006B00089FD09B030BD30B589B005460C46012131
:1006C000092000F04FFD0121084600F058FD0121EE
:1006D000084600F03AFD0121204800F058FB4FF495
:1006E0000060ADF8040018208DF8070003208DF895
:1006F000060001A91A4800F079FAADF81C50ADF8CF
:1007000018400020ADF81E00ADF81A0006A94FF001
:10071000804001F0FBF96020ADF808000120ADF841
:100720000A000020ADF80E00ADF8100002A94FF04D
:10073000804001F002FB0821C80601F092FE012171
:10074000880701F03FFE0121880701F03BFD09B059
:1007500030BD000000080140002C014000031800DB
:10076000000C014000B58BB00121084600F0EDFC03
:10077000154800F0CDFF1548009015480190102055
:1007800002904FF496700390002004908020059012
:100790004000069080000790002008904FF48050A1
:1007A000099000200A906946074801F053F8012299
:1007B0001103880401F031FD01221102880501F0C6
:1007C0002CFD0BB000BD0000800002404000004046
:1007D000980E00202DE9F04107460E4606EB460034
:1007E0002B2101EBC0001FFA80F8002445E0002512
:1007F00012E0701E00EB400038444078A84000F042
:10080000800008B1322000E01020B64921F8140021
:10081000601C84B2681CC5B2082DEADB002511E01B
:10082000701E00EB4000385CA84000F0800008B16A
:10083000322000E01020AB4921F81400601C84B283
:10084000681CC5B2082DEBDB002512E0701E00EB22
:10085000400038448078A84000F0800008B1322081
:1008600000E010209F4921F81400601C84B2681C2D
:10087000C5B2082DEADB701E86B2002EB7D100206B
:10088000984921F81400601C84B205E000209549C5
:1008900021F81400601C84B24445F7DB41469248BD
:1008A00001F018F80121904800F0FFFF01218807AE
:1008B00001F088FC00BF4FF0007001F011F8002833
:1008C000F9D00021884800F0F0FF4FF0007001F0EF
:1008D0001BF800214FF0804001F074FCBDE8F0816E
:1008E00038B5FFF7CFFC0446C01704EB10600012C8
:1008F000A4EB0020C0B28DF80000FFF7C3FC044653
:10090000C01704EB10600012A4EB0020C0B28DF8F9
:100910000100FFF7B7FC0446C01704EB106000129B
:10092000A4EB0020C0B28DF8020001216846FFF759
:1009300051FF012005F095FB38BD10B5ADF5407DA8
:100940004FF44071684605F0ABFD002406E0E0B2CC
:1009500004EB44010DF80100601C84B2FF2CF6DDAD
:1009600000240BE004EB44016A4688180121FFF7DC
:1009700031FF052005F04BFB601C84B2FF2CF1DD3C
:10098000002408E0C4F1FF00C0B204EB44010DF8FC
:100990000100601C84B2FF2CF4DD00240BE004EBAA
:1009A00044016A4688180121FFF714FF052005F06D
:1009B0002EFB601C84B2FF2CF1DD4FF4FA7005F0C1
:1009C00026FB0DF5407D10BD10B5ADF5407D4FF413
:1009D0004071684605F064FD002406E004EB440124
:1009E0006A4611444C70601C84B2FF2CF6DD002472
:1009F0000BE004EB44016A4688180121FFF7EAFE88
:100A0000052005F004FB601C84B2FF2CF1DD0024FE
:100A100008E0C4F1FF0004EB44016A461144487049
:100A2000601C84B2FF2CF4DD00240BE004EB4401D5
:100A30006A4688180121FFF7CDFE052005F0E7FA88
:100A4000601C84B2FF2CF1DD4FF4FA7005F0DFFA80
:100A50000DF5407D10BD10B5ADF5407D4FF44071F2
:100A6000684605F01DFD002406E004EB44016A46DB
:100A700011448C70601C84B2FF2CF6DD00240BE066
:100A800004EB44016A4688180121FFF7A3FE052004
:100A900005F0BDFA601C84B2FF2CF1DD002408E0F3
:100AA000C4F1FF0004EB44016A4611448870601CE5
:100AB00084B2FF2CF4DD00240BE004EB44016A4611
:100AC00088180121FFF786FE052005F0A0FA601CBA
:100AD00084B2FF2CF1DD4FF4FA7005F098FA0DF5B1
:100AE000407D10BD980E00208000024009488047DC
:100AF00009480047FEE7FEE7FEE7FEE7FEE7FEE700
:100B0000FEE7FEE7FEE7FEE704480549054A064B17
:100B100070470000D304000831010008F06600208F
:100B2000F06C0020F0680020F068002010B504464A
:100B3000CC48844208D10121042000F02DFB002183
:100B4000042000F029FB46E0C748844208D1012177
:100B5000082000F021FB0021082000F01DFB3AE0F6
:100B6000C248844208D10121102000F015FB002169
:100B7000102000F011FB2EE0BD48844208D1012175
:100B8000202000F009FB0021202000F005FB22E0DE
:100B9000B848844208D10121402000F0FDFA00212C
:100BA000402000F0F9FA16E0B348844208D1012150
:100BB000802000F0F1FA0021802000F0EDFA0AE038
:100BC000AE48844207D10121801500F0E5FA0021EA
:100BD000A01500F0E1FA10BD10B50121084600F0A3
:100BE000DBFA0021012000F0D7FA10BD2DE9F04119
:100BF000024600250026002000230024002791F84B
:100C000003C00CF00F0591F803C00CF0100CBCF100
:100C1000000F03D091F802C04CEA050591F800C01E
:100C2000BCF1000F31D0146800202BE04FF0010C14
:100C30000CFA00F3B1F800C00CEA03069E4220D182
:100C400083004FF00F0C0CFA03F7BC4305FA03FCCA
:100C50004CEA040491F803C0BCF1280F06D14FF010
:100C6000010C0CFA00FCC2F814C00AE091F803C0B1
:100C7000BCF1480F05D14FF0010C0CFA00FCC2F892
:100C800010C0401C0828D1D31460B1F800C0BCF1DA
:100C9000FF0F34DD546800202EE000F1080C4FF007
:100CA000010808FA0CF3B1F800C00CEA03069E42F2
:100CB00021D183004FF00F0C0CFA03F7BC4305FA67
:100CC00003FC4CEA040491F803C0BCF1280F05D1E1
:100CD00000F1080C08FA0CF8C2F8148091F803C06F
:100CE000BCF1480F07D100F1080C4FF0010808FAD9
:100CF0000CF8C2F81080401C0828CED35460BDE820
:100D0000F0814FF6FF710180022181700421C170D2
:100D100070470246002093680B400BB1012000E0B1
:100D2000002070470146886880B270470246002064
:100D3000D3680B400BB1012000E000207047014652
:100D4000C86880B2704701617047416170470AB15D
:100D5000016100E041617047C16070474FF480322B
:100D60000A438261816182618269826970470246B9
:100D70000020434B18684FF68073184040EA021079
:100D800008433F4B186070473E49C8617047F0B553
:100D90000A46002300240021002500F00046B6F199
:100DA000004F02D1364EF16901E0354E7168C0F353
:100DB000034583B200F44016B6F5401F08D121F078
:100DC00070612F4E766826F070662D4F7E6012E0BF
:100DD00000F48016B6F5801F06D1032606FA05F446
:100DE000A14341F0706106E0460D360103FA06F6B4
:100DF000B14341F0706122B1460D360103FA06F6A7
:100E0000314300F00046B6F1004F02D11C4EF161B3
:100E100001E01B4E7160F0BD30B500228B071C0F46
:100E20000F2303FA04F2164B08338C1053F82430C6
:100E30009343134C08348D1044F8253023468C100E
:100E400053F824308C07240F00FA04F423430C4C8D
:100E500008348D1044F8253030BD0A49DC31086073
:100E60007047000000080140000C014000100140E4
:100E70000014014000180140001C01400020014006
:100E80000000014000002042DF48006840F00100FF
:100E9000DD49086008464068DC490840DA49486096
:100EA00008460068DA490840D749086008460068E3
:100EB00020F4802008600846406820F4FE00486066
:100EC0004FF41F0088607047CF49096821F48031D2
:100ED000CD4A11601146096821F480211160B0F5F6
:100EE000803F03D0B0F5802F0ED106E0C6490968D7
:100EF00041F48031C44A116007E0C349096841F4F4
:100F0000A021C14A116000E000BF00BF704710B5CA
:100F100001460022002300204A11012A02D1BA4CC6
:100F2000236806E0022A02D1B74C236A01E0B64CDE
:100F3000636A01F01F02012494401C400CB101209F
:100F400000E0002010BD38B50020009000240025EE
:100F500000BF3120FFF7DBFF05460098401C0090E2
:100F60000098B0F5A06F01D0002DF2D03120FFF72E
:100F7000CEFF08B1012400E00024204638BD014620
:100F80000020A14A106820F0F80040EAC10010607B
:100F90007047A04908607047024600209A4B586885
:100FA00020F47C1042EA01031843974B58607047C5
:100FB00098490866704701460020934A506820F01F
:100FC00003000843506070478F48406800F00C00F1
:100FD0007047014600208C4A506820F0F00008431A
:100FE0005060704701460020874A506820F4E06056
:100FF00008435060704701460020834A506820F43F
:10100000605040EAC1005060704729B17E4A527A70
:1010100002437D4B5A7204E07B4A527A82437A4BF8
:101020005A7270477B49D8310860704701460020EA
:10103000754A506820F440400843506070470021D2
:10104000714A20321170704A82F82010012802D0B3
:1010500004280AD104E001216B4A2032117005E016
:101060000521694A2032117000E000BF00BF7047BF
:101070006949086070476449096A0143624A11621C
:101080007047654944390860704730B50021002237
:10109000002400235C4D6D6805F00C0121B104298A
:1010A00005D0082923D105E05C4D056022E05B4DA9
:1010B00005601FE0544D6D6805F47012524D6D6867
:1010C00005F48034022505EB92421CB9544D55437A
:1010D00005600BE04C4D6D6805F400351DB1504DB9
:1010E0005543056002E04D4D5543056002E04B4D10
:1010F000056000BF00BF444D6D6805F0F0010909AF
:10110000484D6B5C0568DD4045603F4D6D6805F4FA
:10111000E061090A434D6B5C4568DD4085603A4DEE
:101120006D6805F46051C90A3E4D6B5C4568DD4051
:10113000C560354D6D6805F44041890B3A4D6B5CD7
:10114000C568B5FBF3F5056130BD29B12E4A52697A
:1011500002432D4B5A6104E02B4A526982432A4BC9
:101160005A61704729B1284A92690243264B9A6115
:1011700004E0254A92698243234B9A61704729B162
:10118000214AD2690243204BDA6104E01E4AD26947
:1011900082431D4BDA61704729B11B4AD268024372
:1011A000194BDA6004E0184AD2688243164BDA60C1
:1011B000704729B1144A12690243134B1A6104E0C3
:1011C000114A12698243104B1A6170471249403923
:1011D000086070470F49C86470470B49C871704771
:1011E0000948406A40F080700749486270470146EC
:1011F0000020054A92680A400AB1012000E0002060
:101200007047014988727047001002400000FFF8E3
:10121000FFFFF6FE000042428004424200127A00C4
:1012200000093D00200000203000002010B50446D9
:10123000FB48844209D101218803FFF7ADFF00215B
:101240004FF48040FFF7A8FF32E0F648844209D10E
:1012500001214804FFF7ADFF00214FF40030FFF7F4
:10126000A8FF25E0F048844209D101218804FFF756
:10127000A0FF00214FF48020FFF79BFF18E0EB4810
:10128000844209D10121C804FFF793FF00214FF4E4
:101290000020FFF78EFF0BE0E548844208D10121D2
:1012A0000805FFF786FF00214FF48010FFF781FF4C
:1012B00010BD2DE9F04786B005460E460024A24633
:1012C00000BFA1460027B08900B100BF2F462C8A7D
:1012D0004CF6FF700440F08804432C82AC894EF633
:1012E000F3100440B08831890843718908430443EE
:1012F000AC81AC8A4FF6FF400440B0890443AC8215
:1013000001A8FFF7C2FEC648874202D1DDF810A04F
:1013100001E0DDF80CA0A88900F4004040B10AEB20
:10132000CA0000EB0A1031684900B0FBF1F807E091
:101330000AEBCA0000EB0A1031688900B0FBF1F833
:101340006420B8FBF0F004012009642101FB10893E
:10135000A88900F4004040B1322000EBC900B0FB86
:10136000F1F000F00700044308E0322000EB091020
:101370006421B0FBF1F000F00F0004432C8106B0B3
:10138000BDE8F0874FF41651016000218180C180D3
:1013900001810C21418100218181704710B50246F5
:1013A0000020108A4FF2FF0318400B884C8823431B
:1013B0008C882343CC8823431843108210BD00211E
:1013C000018041808180C180704721B1828942F4CF
:1013D0000052828104E082894DF6FF731A408281B7
:1013E0007047F0B50346002400260025002040F693
:1013F0006A17B94200D100BF1846C1F3421401F088
:101400001F06012707FA06F5012C01D10C3004E074
:10141000022C01D1103000E014301AB107682F43BC
:10142000076002E00768AF430760F0BD1AB1838A26
:101430000B43838202E0838A8B4383827047028A54
:101440004FF6F0731A400282028A0A430282704702
:1014500082894FF2FF731A40828182890A43828116
:10146000704721B1828942F00202828104E08289C0
:101470004FF6FD731A4082817047028A4FF6DF7380
:101480001A400282028A0A430282704721B1028A0C
:1014900042F48042028204E0028A4BF6FF731A4053
:1014A00002827047C1F30802828070470146888833
:1014B000C0F308007047818941F0010181817047C4
:1014C000028BD2B20283028B42EA0122028370476E
:1014D000028B02F47F420283028B0A43028370472D
:1014E00021B1828A42F02002828204E0828A4FF691
:1014F000DF731A408282704721B1828A42F0100263
:10150000828204E0828A4FF6EF731A40828270472B
:1015100021B1828A42F00802828204E0828A4FF678
:10152000F7731A408282704721B1828942F40042E7
:10153000828103E08289C2F30E028281704721B169
:10154000828A42F40062828204E0828A4FF2FF7350
:101550001A4082827047828A4FF6FB731A40828259
:10156000828A0A438282704721B1828A42F0020253
:10157000828204E0828A4FF6FD731A4082827047AD
:1015800002460020B1F5007F00D100BF13880B4058
:101590000BB1012000E00020704701F40072B2F5A9
:1015A000007F00D100BFCA430280704770B5024679
:1015B000002400230025002040F66A16B14200D125
:1015C00000BFC1F3421501F01F03012606FA03F321
:1015D000012D02D19689334006E0022D02D1168AF0
:1015E000334001E0968A33400C12012606FA04F4D7
:1015F0001688344013B10CB1012000E0002070BD0A
:1016000010B50022002340F66A14A14200D100BFA9
:101610000A1201249440A3B2DC43048010BD0000F0
:10162000003801400044004000480040004C0040A9
:101630000050004031490143314A1160704770B594
:10164000002100230F22C47804B32D4C246804F435
:10165000E064C4F5E064210AC1F10403CA4044789F
:1016600004FA03F18478144021430901254C0678DB
:10167000A155047804F01F050124AC4005786D11D4
:10168000AD0005F1E025C5F8004109E0047804F05B
:101690001F050124AC401C4D0678761145F8264004
:1016A00070BD1A4A0A400243154B1B1F1A6070474F
:1016B00039B1134A121D12680243114B1B1D1A60E7
:1016C00006E00F4A121D126882430D4B1B1D1A6063
:1016D0007047042808D14FF0E021096941F0040166
:1016E0004FF0E022116107E04FF0E021096921F09D
:1016F00004014FF0E0221161704700000000FA057C
:101700000CED00E000E400E080E100E080FFFF1F5E
:1017100001684FF6FE7211400160002101604160D6
:101720008160C1608D49884208D18C490839496877
:1017300041F00F01894A083A51608AE08749143123
:10174000884208D185490839496841F0F001834A47
:10175000083A51607DE081492831884208D17F49AB
:101760000839496841F470617C4A083A516070E078
:101770007A493C31884208D178490839496841F4AE
:101780007041764A083A516063E0744950318842AA
:1017900008D172490839496841F470216F4A083A02
:1017A000516056E06D496431884208D16B4908396F
:1017B000496841F47001694A083A516049E0674953
:1017C0007831884208D165490839496841F070612B
:1017D000624A083A51603CE06149884206D1011FE3
:1017E000096841F00F01021F116032E05C491431B9
:1017F000884208D15A49091F096841F0F001584A46
:10180000121F116025E056492831884208D15449F9
:10181000091F096841F47061514A121F116018E0F4
:101820004F493C31884208D14D49091F096841F4AC
:1018300070414B4A121F11600BE0494950318842F8
:1018400007D14749091F096841F47021444A121F12
:101850001160704710B50022026847F6F0739A4392
:101860000C6A8B6823430C6923434C6923438C69BE
:101870002343CC6923434C6A23438C6A23431A4392
:101880000260CB6843600B6883604B68C36010BD27
:101890000021016041608160C1600161416181613D
:1018A000C161016241628162704721B1026842F008
:1018B0000102026004E002684FF6FE731A40026003
:1018C00070471AB103680B43036002E003688B435F
:1018D00003607047416070470146486880B27047B6
:1018E00001460020002201F080531BB11C4B083B35
:1018F0001A6802E0194B083B1A6802EA01030BB1AF
:10190000012000E00020704700F0805119B1144917
:10191000091F086002E01149083948607047014614
:101920000020002201F080531BB10D4B083B1A68C8
:1019300002E00A4B083B1A6802EA01030BB10120DE
:1019400000E00020704700F0805119B10449091FE0
:10195000086002E001490839486070470800024009
:101960000804024010B50446FE48844208D1012113
:10197000C014FFF711FC0021E014FFF70DFCC4E0D8
:10198000B4F1804F08D101210846FFF712FC002175
:101990000120FFF70EFCB8E0F348844208D1012192
:1019A0000220FFF706FC00210220FFF702FCACE05A
:1019B000EE48844208D101210420FFF7FAFB002100
:1019C0000420FFF7F6FBA0E0E948844208D101219A
:1019D0000820FFF7EEFB00210820FFF7EAFB94E068
:1019E000E448844208D101211020FFF7E2FB0021E6
:1019F0001020FFF7DEFB88E0DF48844208D1012198
:101A00002020FFF7D6FB00212020FFF7D2FB7CE04F
:101A1000DA48844208D101214014FFF7BDFB0021C0
:101A20006014FFF7B9FB70E0D548844209D1012169
:101A3000C804FFF7B1FB00214FF40020FFF7ACFB17
:101A400063E0D048844209D101210805FFF7A4FBD7
:101A500000214FF48010FFF79FFB56E0CA488442F4
:101A600009D101214805FFF797FB00214FF4001031
:101A7000FFF792FB49E0C548844208D1012140208C
:101A8000FFF797FB00214020FFF793FB3DE0C048A4
:101A9000844208D101218020FFF78BFB00218020A8
:101AA000FFF787FB31E0BB48844208D10121801554
:101AB000FFF77FFB0021A015FFF77BFB25E0B64871
:101AC000844209D101210804FFF766FB00214FF48D
:101AD0008030FFF761FB18E0B048844209D1012152
:101AE0004804FFF759FB00214FF40030FFF754FB87
:101AF0000BE0AB48844208D101218804FFF74CFB7E
:101B000000214FF48020FFF747FB10BD0022028820
:101B1000944B98420ED0994B98420BD0B0F1804F25
:101B200008D0914B984205D0904B984202D0904BF0
:101B3000984204D14FF68F731A404B881A438D4B4D
:101B4000984207D08C4B984204D04FF6FF431A407E
:101B5000CB881A4302808B8883850B880385814B51
:101B600098420BD0854B984208D08B4B984205D0B9
:101B70008A4B984202D08A4B984201D10B7A038655
:101B800001238382704770B5002400220023058C56
:101B90004FF6FE7635400584028C8388048B4FF621
:101BA0008F752C40B51E2C400D882C43751E2A4085
:101BB0000D892A434D882A436A4DA8420BD06F4DA8
:101BC000A84208D0744DA84205D0744DA84202D056
:101BD000734DA84213D14FF6F7752A404D892A4319
:101BE0004FF6FB752A408D882A434FF6FF652B4040
:101BF0004FF6FF552B408D892B43CD892B43838096
:101C00000483CD888586028470BD70B500240022CF
:101C10000023058C4FF6EF7635400584028C8388CF
:101C2000048B48F6FF752C404FF6FF452C400D887D
:101C30004FF6FF7606EA05252C434FF6DF752A405E
:101C40000D8906EA05152A434D8806EA05152A433B
:101C5000444DA84202D0494DA8421DD14FF67F7590
:101C60002A404D894FF6FF7606EA05152A434FF6BE
:101C7000BF752A408D8806EA05152A434FF6FF35C1
:101C80002B404FF2FF752B408D8906EA85052B43CB
:101C9000CD8906EA85052B4383800483CD8805879B
:101CA000028470BD70B5002400220023058C4FF61D
:101CB000FF6635400584028C8388848B4FF68F75D0
:101CC0002C404FF6FC752C400D882C434FF6FF55E9
:101CD0002A400D894FF6FF7606EA05252A434D88EE
:101CE00006EA05252A431F4DA84202D0234DA842EB
:101CF0001DD14FF2FF752A404D894FF6FF7606EA57
:101D000005252A434FF6FF352A408D8806EA05252A
:101D10002A434EF6FF752B404DF6FF752B408D89FB
:101D200006EA05152B43CD8906EA05152B4383806A
:101D30008483CD888587028470BD70B5002200231E
:101D40000024058C4EF6FF7635400584038C84888C
:101D5000828B48F6FF752A404FF6FF452A400D88D2
:101D600020E00000002C014000040040000800407A
:101D7000000C0040001000400014004000340140FE
:101D8000004C014000500140005401400018004048
:101D9000001C004000200040004001400044014081
:101DA000004801404FF6FF7606EA05252A434DF626
:101DB000FF752B400D8906EA05352B434D8806EA51
:101DC00005352B43FA4DA84202D0FA4DA84208D15E
:101DD0004BF6FF752C408D894FF6FF7606EA851588
:101DE0002C4384808283CD88A0F84050038470BD4A
:101DF000828B4FF2FF331A408283828B4FF6FF7340
:101E000003EA01231A4382837047F0B50C46154656
:101E1000002200210026078C4EF6FF7C07EA0C0703
:101E20000784828B018C4FF6FF7707EA043640F671
:101E3000FF473A404FF6FF7707EA05273A434FF648
:101E4000FF7707EA03373A43D94FB8420ED0D94F4C
:101E5000B8420BD0B0F1804F08D0D74FB84205D070
:101E6000D64FB84202D0D64FB84206D14DF6FF77D2
:101E7000394046F48057394305E047F6FF5739406B
:101E800044F48057394382830184F0BD828B4FF63E
:101E9000F3731A408283828B0A4382837047F0B5C2
:101EA0000C461546002200210026078C4FF6FF6CD9
:101EB00007EA0C070784828B018C4FF6FF7707EA4D
:101EC00004264FF60C773A404FF6FF7707EA0317E0
:101ED0002F433A43B64FB8420ED0B64FB8420BD05C
:101EE000B0F1804F08D0B44FB84205D0B34FB842DC
:101EF00002D0B34FB84206D14FF6FF57394046F4EF
:101F00008077394305E04FF2FF57394044F480773A
:101F1000394382830184F0BD028B4FF2FF331A40B4
:101F20000283028B4FF6FF7303EA01231A430283F5
:101F30007047F0B50C461546002200210026078C9C
:101F40004FF6EF7C07EA0C070784028B018C4FF6F3
:101F5000FF7707EA041640F6FF473A404FF6FF774F
:101F600007EA03373A434FF6FF7707EA05273A4374
:101F70008F4FB8420ED08F4FB8420BD0B0F1804F88
:101F800008D08D4FB84205D08C4FB84202D08C4F4C
:101F9000B84206D14FF6DF77394046F01007394393
:101FA00005E04FF65F77394044F01007394302836C
:101FB0000184F0BD028B4FF6F3731A400283028B4B
:101FC0000A4302837047F0B50C46154600220021F3
:101FD000068C4FF6FE773E400684028B018C4FF64E
:101FE0000C7632407E1C06EA03162E433243704EB6
:101FF000B0420ED06F4EB0420BD0B0F1804F08D03F
:102000006D4EB04205D06D4EB04202D06C4EB04223
:1020100006D14FF6FD76314044F00106314305E02C
:102020004FF6F576314044F00106314302830184D6
:10203000F0BD70B505460C465D4885420ED05D4842
:1020400085420BD0B5F1804F08D05B48854205D062
:102050005A48854202D05A48854200D100E000BF6C
:10206000208850B92389A28861882846FFF7ABFFF2
:10207000E1882846FFF79EFF25E0208804280AD142
:102080002389A28861882846FFF753FFE188284604
:10209000FFF742FF17E0208808280AD12389A28889
:1020A00061882846FFF7FBFEE1882846FFF7EEFE31
:1020B00009E02389A28861882846FFF7A6FEE18807
:1020C0002846FFF795FE70BD2DE9F04105460C4608
:1020D00000260127608808B9022600E00026A088B3
:1020E000012801D1022700E001272088A0B9238917
:1020F000A28861882846FFF766FFE1882846FFF737
:1021000059FF23893A4631462846FFF712FFE188F6
:102110002846FFF701FF13E02389A288618828463B
:10212000FFF707FFE1882846FFF7F6FE23893A46C6
:1021300031462846FFF747FFE1882846FFF73AFF78
:10214000BDE8F0810A884B881A438B881A43CB88F4
:102150001A430B891A434B891A438B891A43A0F8F7
:10216000442070474FF6FF71818000210180C180BB
:102170004180017270470021018041808180C180CF
:10218000018141818181C1817047002101804180AD
:10219000012181800021C1800181704700210180DF
:1021A00041808180C180018141818181704700002F
:1021B000002C0140003401400004004000080040B1
:1021C000000C004021B1028842F00102028004E0CC
:1021D00002884FF6FE731A400280704731B1B0F8A2
:1021E000442042F40042A0F8442005E0B0F8442026
:1021F000C2F30E02A0F8442070471AB183890B4342
:10220000838102E083898B43838170478182704799
:1022100041EA0203A0F8483070471AB183890B43A2
:10222000838102E083898B438381704701894FF664
:10223000F8721140018170470A46002101894FF66A
:102240008F73194011430181704730B504460D4624
:1022500029462046FFF7F0FF208940F00700208143
:1022600030BD2DE9F04104460D4616461F46602D4F
:1022700006D13B46012231462046FFF75AFE05E0D3
:102280003B46012231462046FFF79DFE2946204667
:10229000FFF7D2FF208940F007002081BDE8F081E0
:1022A00030B50C4600210189C9B24FF6FF7505EA29
:1022B0000325154325432943018130BD2DE9F04114
:1022C00005460E4617469846002443463A46314690
:1022D0002846FFF7E5FF2C894FF6F870044044F0DC
:1022E00007044FF68F70044044F070042C81BDE861
:1022F000F081F0B504460D4616461F463B46324671
:1023000029462046FFF7CCFF208940F480402081F9
:10231000F0BD0185828270470A46002101884FF690
:102320008F731940114301807047F0B50C46154674
:102330001E460021002200230189028B038C4FF6E8
:10234000F877394021434FF6FC473A4040F20117F5
:102350003A434FF6DD773B404FF6FF7707EA061723
:102360002F433B43018102830384F0BD0A460021D1
:10237000018B4FF68F7319401143018370470A4652
:102380000021018B48F6FF7319404FF6FF7303EAF3
:1023900002231943018370470A460021818B4FF6BF
:1023A0008F7319401143818370470A460021818B46
:1023B00048F6FF7319404FF6FF7303EA02231943EF
:1023C0008183704721B1028842F08002028004E0DC
:1023D00002884FF67F731A400280704721B18288CD
:1023E00042F00402828004E082884FF6FB731A40B8
:1023F0008280704721B1828842F00802828004E026
:1024000082884FF6F7731A408280704721B1828824
:1024100042F00102828004E082884FF6FE731A4087
:10242000828070470A460021018B4FF6F7731940EE
:102430001143018370470A460021018B4FF2FF735D
:1024400019404FF6FF7303EA0223194301837047D3
:102450000A460021818B4FF6F7731940114381839F
:1024600070470A460021818B4FF2FF7319404FF6E7
:10247000FF7303EA02231943818370470A46002150
:10248000018B4FF6FB7319401143018370470A46D5
:102490000021018B4FF6FF3319404FF6FF7303EA1B
:1024A00002231943018370470A460021818B4FF6AE
:1024B000FB7319401143818370470A460021818BC9
:1024C0004FF6FF3319404FF6FF7303EA0223194317
:1024D000818370470A460021018B4FF67F731940B4
:1024E0001143018370470A460021018BC1F30E019D
:1024F0004FF6FF7303EA02231943018370470A462C
:102500000021818B4FF67F731940114381837047FF
:102510000A460021818BC1F30E014FF6FF7303EAD7
:1025200002231943818370470A460021018C4FF62C
:10253000FD7319401143018470470A460021018C44
:102540004FF6F77319401143018470470A46002182
:10255000018C4FF6DF7319404FF6FF7303EA021345
:102560001943018470470A460021018C4FF67F739E
:1025700019404FF6FF7303EA0213194301847047B1
:102580000A460021018C4FF6FF5319404FF6FF73A6
:1025900003EA02231943018470470A460021018C93
:1025A0004FF2FF7319404FF6FF7303EA02231943FA
:1025B000018470470A460021018C4DF6FF731940D3
:1025C0004FF6FF7303EA023319430184704730B5B5
:1025D000002301248C40A3B2048C9C430484048C0B
:1025E00002FA01F5ADB22C43048430BD30B50023AE
:1025F00004248C40A3B2048C9C430484048C02FA0F
:1026000001F5ADB22C43048430BD70B50346002003
:1026100000241846183001258D40ACB21D8CA5430E
:102620001D8409B1082909D100EB6100056825F076
:10263000700505600568154305600EE00D1FC5F3C4
:102640004E052844056825F4E045056005684FF609
:10265000FF7606EA02263543056070BD21B1028887
:1026600042F00202028004E002884FF6FD731A4035
:102670000280704721B1028842F00402028004E027
:1026800002884FF6FB731A400280704721B182889E
:1026900042F08002828004E082884FF67F731A4005
:1026A0008280704702884FF6F7731A4002800288D2
:1026B0000A430280704782884FF68F731A408280E7
:1026C00082880A438280704702894FF6F8731A4065
:1026D000028102890A430281704702894FF67F73A3
:1026E0001A40028102890A4302817047818470473F
:1026F0008185704781867047018770478187704761
:10270000A0F84010704702884FF6FF431A4002803D
:1027100002880A43028070470146888E704701464E
:10272000088F70470146888F70470146B1F8400016
:1027300070470146888C70470146088D70470246F5
:102740000020138A0B400BB1012000E000207047ED
:10275000CA430282704730B502460020002300249D
:10276000158A05EA0103958905EA010413B10CB144
:10277000012000E0002030BDCA430282704700F112
:10278000080141604FF0FF31816000F10801C16034
:1027900001610021016070470021016170474268BA
:1027A0004A6093688B609368596091600861036820
:1027B0005B1C0360704710B502460B685C1C0CB9CB
:1027C000106907E002F1080000E0406844682468EE
:1027D0009C42FAD944684C604C68A16088604160B2
:1027E0000A611468641C146010BD01460A69D1E9CD
:1027F00001309860D1E9010358605068884201D1E6
:1028000088685060002008611068401E10601068E1
:102810007047000070B505460E462C4624B9FB22D1
:10282000F9A1FEA003F0D4FC03F0F6FAD4E90F12EC
:10283000206801FB020060600020A0632068A060A7
:10284000E06B401E226C216800FB0210E060FF205C
:1028500084F8440084F845009EB9206908B9012035
:1028600000E00020A8B904F1100002F05EF880B189
:102870004FF08050ED490860BFF34F8FBFF36F8F6B
:1028800007E004F11000FFF77AFF04F12400FFF7DE
:1028900076FF03F0E4FA012070BD2DE9F041064611
:1028A0000D4617469846069C0DB9246000E0276047
:1028B000E663256401212046FFF7ACFF84F85080D1
:1028C0000020A064BDE8F0812DE9F84380460E4663
:1028D00017461D46DDF82090B8F1000F01D0012009
:1028E00000E0002028B94FF49972C7A1CBA003F0F3
:1028F0006FFC0DB1012000E0002028B94FF49B725D
:10290000C1A1C6A003F064FC07B10EB1012000E034
:10291000002028B94FF49D72BBA1C0A003F058FC61
:1029200007B90EB9012000E0002028B940F23B129F
:10293000B5A1BAA003F04CFC542000900098542894
:1029400001D1012000E0002028B940F24312AEA1DD
:10295000B2A003F03DFC2C464CB1012084F84600A7
:102960004B463A46314640460094FFF796FF2046D4
:10297000BDE8F8832DE9F84305460E4690460DB1B3
:10298000012000E0002028B94FF4B6729EA1A3A058
:1029900003F01EFC0EB9002701E005FB06F707F166
:1029A000540003F088F804465CB104F15409002097
:1029B00084F8460043464A46314628460094FFF7CD
:1029C0006CFF2046BDE8F8832DE9F04104460F4630
:1029D00015464FF00008A66B206C40B9206860BB1C
:1029E000606802F011F980460020606025E07DB942
:1029F0003946226CA06803F006FD216CA0680844EB
:102A0000A060D4E90110884217D32068A06014E0C8
:102A10003946226CE06803F0F6FC216CE068401A4D
:102A2000E0602168E068884203D2216C6068401A47
:102A3000E060022D01D106B1761E701CA0634046F5
:102A4000BDE8F0812DE9F3410D460098846C002724
:102A50002CB940F625326CA170A003F0B9FBA06B35
:102A6000E16B884201D2012000E0002028B940F645
:102A7000263265A169A003F0ABFBA06BE16B884235
:102A80001BD294F945602A4669462046FFF79CFF11
:102A90000746701C60B9606A08B9012000E0002098
:102AA00050B904F1240001F040FF28B1012703E0F0
:102AB000701C40B284F8450000BF3846BDE8FC8178
:102AC00070B5044603F0A8F994F945501AE0A06CDB
:102AD00038B100212046FFF7B5FF88B102F019F8A0
:102AE0000EE0606A08B9012000E0002038B904F166
:102AF000240001F01AFF18B102F00BF800E003E027
:102B0000681E45B2002DE2DC00BFFF2084F84500BE
:102B100003F0A5F903F080F994F9445010E020691E
:102B200008B9012000E0002048B904F1100001F0CC
:102B3000FCFE08B101F0EDFF681E45B200E001E0C7
:102B4000002DECDC00BFFF2084F8440003F087F97F
:102B500070BD70B5054603F05FF9A86BE96B88425C
:102B600001D1012400E0002403F079F9204670BD72
:102B70002DE9FF4383B0064688461D464FF0000905
:102B800034462CB940F2DB221FA124A003F020FB25
:102B9000B8F1000F01D1206C08B9012000E000203D
:102BA00028B94FF4377218A11CA003F011FB022DB5
:102BB00002D1E06B012801D1012000E0002028B9FA
:102BC00040F2DD2210A115A003F002FB01F0B3FFDB
:102BD00008B9059808B9012000E0002028B94FF491
:102BE000387209A10DA003F0F3FA00BF03F014F945
:102BF000A06BE16B884201D3022D4DD12A4641469C
:102C00002046FFF7E1FE13E02E2E5C46726565520A
:102C1000544F535C71756575652E63004572726F14
:102C2000723A25732C25640D0A00000004ED00E0C3
:102C30000746A06C68B129462046FFF703FF28B37A
:102C40004FF08050FE490860BFF34F8FBFF36F8F86
:102C50001CE0606A08B9012000E0002068B904F1B6
:102C6000240001F062FE88B14FF08050F449086002
:102C7000BFF34F8FBFF36F8F08E03FB14FF080502D
:102C8000EF490860BFF34F8FBFF36F8F03F0E7F892
:102C9000012007B0BDE8F083059818B903F0DFF80C
:102CA0000020F6E7B9F1000F04D101A801F0EEFE13
:102CB0004FF0010903F0D3F801F06CF903F0ACF820
:102CC00094F94400401C10B9002084F8440094F9A1
:102CD0004500401C10B9002084F8450003F0BFF8FF
:102CE00005A901A801F0D9FEF8B92046FFF731FF88
:102CF000A8B104F11000059901F0B9FD2046FFF7D5
:102D0000DFFE01F09CF800287FF470AF4FF0805098
:102D1000CB490860BFF34F8FBFF36F8F66E7204644
:102D2000FFF7CEFE01F08BF860E72046FFF7C8FE04
:102D300001F085F80020ACE710B504464CB1002046
:102D400060602060E06000231A4619462046FFF7C5
:102D50000FFF10BD2DE9F041044601260027224651
:102D600000210120FFF706FE05462846FFF7E4FF95
:102D70002846BDE8F0812DE9F84304460D460127B9
:102D80004FF000082B460022114601200094FFF767
:102D90009BFD06463046FFF7CFFF3046BDE8F8837F
:102DA00070B5064634463CB940F24322AFF2A81152
:102DB000AFF2981003F00CFA01F0BAFE6168884295
:102DC0000CD1E068401EE060E06828B900231A4694
:102DD00019462046FFF7CCFE012500E000252846D5
:102DE00070BD01464A6A22B10A6B1268C2F1200026
:102DF00000E00020704770B5054603F00DF8A86BA1
:102E000008B9012400E0002403F029F8204670BD31
:102E10002DE9F34182B005464FF000082C4600260C
:102E20003CB94FF4AE62AFF22021AFF2102003F0B4
:102E3000CFF9206C08B9012000E0002038B940F239
:102E40007452AFF23C21AFF22C2003F0C1F901F033
:102E500072FE08B9039808B9012000E0002038B9D3
:102E600040F27952AFF26021AFF2502003F0B0F996
:102E700000BF02F0D1FFA76BFFB1781EA0632068EE
:102E800010B902F028F86060206908B9012000E05C
:102E9000002060B904F1100001F047FD38B14FF097
:102EA000805067490860BFF34F8FBFF36F8F02F008
:102EB000D6FF012004B0BDE8F081039880B90EB9B7
:102EC000012000E0002038B940F2C152AFF2C82121
:102ED000AFF2B82003F07CF902F0C1FF0020E9E76F
:102EE000B8F1000F04D1684601F0D0FD4FF00108A1
:102EF00002F0B5FF01F04EF802F08EFF94F94400A5
:102F0000401C10B9002084F8440094F94500401C8E
:102F100010B9002084F8450002F0A1FF03A968461B
:102F200001F0BBFD40BB2046FFF765FFF0B1206814
:102F300038B902F071FF606801F009FE064602F040
:102F40008EFF04F12400039901F091FC2046FFF765
:102F5000B7FD00F074FF00288BD14FF08050384946
:102F60000860BFF34F8FBFF36F8F82E72046FFF7F4
:102F7000A7FD00F064FF7CE72046FFF7A1FD00F00D
:102F80005EFF2046FFF737FF0028EED05EB102F06B
:102F900043FF2046FFF725FF07463946606801F0EA
:102FA0008BFE02F05CFF002084E72DE9F04106462D
:102FB0000F4634463CB940F27A22AFF2B431AFF258
:102FC000A43003F005F901F0B3FD6168884204D133
:102FD000E068401CE060012508E039462046FFF724
:102FE00017FF054615B1E068401CE0602846BDE8C3
:102FF000F081F8B505460E4617460DB1012000E0F8
:10300000002038B940F2A322AFF20441AFF2F4300D
:1030100003F0DEF8AE4201D8012000E0002038B90C
:103020004FF42972AFF22041AFF2104003F0D0F814
:1030300002203B46002211460090284602E0000094
:1030400004ED00E0FFF740FC044604B1A66320460F
:10305000F8BD70B505460E460DB1012000E0002018
:1030600038B940F2BF22AFF26041AFF2504003F0F6
:10307000AFF8AE4201D8012000E0002038B94FF48B
:103080003072AFF27C41AFF26C4003F0A1F8022243
:1030900000212846FFF76EFC044604B1A6632046D3
:1030A00070BD2DE9F05F80468A4615461E464446AF
:1030B0003CB940F2A132AFF2B041AFF2A04003F010
:1030C00087F8BAF1000F01D1206C08B9012000E0A7
:1030D000002038B940F2A232AFF2D441AFF2C4407E
:1030E00003F076F8022E02D1E06B012801D1012015
:1030F00000E0002038B940F2A332AFF2F441AFF261
:10310000E44003F065F802F0DAFE00BF5021EFF36F
:10311000118081F31188BFF34F8FBFF36F8F00BF12
:103120000746A06BE16B884201D3022E2BD194F9A4
:1031300045B0324651462046FFF746FC0BF10100F0
:10314000C8B9A06C40B131462046FFF77BFCB8B14E
:10315000B5B10120286013E0606A08B9012000E0E1
:10316000002068B904F1240001F0DFFB40B13DB15B
:103170000120286004E00BF1010040B284F8450012
:103180004FF0010901E04FF0000900BF87F31188FB
:1031900000BF4846BDE8F09F2DE9F04707460D46C1
:1031A0003C463CB940F23E42AFF2A451AFF29450DB
:1031B00003F00EF8206C08B9012000E0002038B9B7
:1031C00040F24242AFF2C051AFF2B05003F000F80B
:1031D000206808B9606808B9012000E0002038B90B
:1031E00040F24742AFF2E051AFF2D05002F0F0FFB0
:1031F00002F065FE00BF5021EFF3118081F31188CA
:10320000BFF34F8FBFF36F8F00BF0646D4F83890DF
:10321000E06B484529D994F945A009F10100A06364
:103220000AF10100C8B9A06C40B100212046FFF7A7
:1032300009FCB8B1B5B10120286013E0606A08B993
:10324000012000E0002068B904F1240001F06DFBCA
:1032500040B13DB10120286004E00AF1010040B214
:1032600084F845004FF0010801E04FF0000800BF6E
:1032700086F3118800BF4046BDE8F08770B504466C
:103280000D46206C70B1216CE0680844E060616814
:10329000E068884201D32068E0602846226CE1683B
:1032A00003F0B1F870BD2DE9F74183B005460E4635
:1032B0004FF000082C463CB940F2DE42AFF2B86154
:1032C000AFF2A86002F084FF0EB9206C08B90120AB
:1032D00000E0002038B940F2E242AFF2D461AFF230
:1032E000C46002F075FF01F026FC08B9059808B922
:1032F000012000E0002038B940F2E742AFF2F86167
:10330000AFF2E86002F064FF00BF02F085FDA76B3A
:10331000F7B131462046FFF7B1FF781EA063206960
:1033200008B9012000E0002060B904F1100001F0AC
:10333000FCFA38B14FF08050F7490860BFF34F8F67
:10334000BFF36F8F02F08BFD012006B0BDE8F08166
:10335000059818B902F083FD0020F6E7B8F1000FD8
:1033600004D101A801F092FB4FF0010802F077FDB3
:1033700000F010FE02F050FD94F94400401C10B91A
:10338000002084F8440094F94500401C10B9002046
:1033900084F8450002F063FD05A901A801F07DFB5A
:1033A000F0B92046FFF727FDA0B104F124000599EC
:1033B00001F05DFA2046FFF783FB00F040FD002896
:1033C000A3D14FF08050D4490860BFF34F8FBFF3B3
:1033D0006F8F9AE72046FFF773FB00F030FD94E70C
:1033E0002046FFF76DFB00F02AFD2046FFF703FDA6
:1033F00000288AD00020A8E72DE9F74382B00546CF
:103400000E464FF000082C463CB94FF4C962AFF6A7
:103410000801AFF2F87002F0DBFE0EB9206C08B9BB
:10342000012000E0002038B940F24C62AFF62801DC
:10343000AFF6180002F0CCFE01F07DFB08B904984D
:1034400008B9012000E0002038B940F25162AFF61F
:103450004801AFF6380002F0BBFE00BF02F0DCFC12
:10346000D4F83890B9F1000F1ED0E76831462046F5
:10347000FFF704FFE760606A08B9012000E0002060
:1034800060B904F1240001F050FA38B14FF08050D7
:10349000A1490860BFF34F8FBFF36F8F02F0DFFCCD
:1034A000012005B0BDE8F083049818B902F0D7FCFC
:1034B0000020F6E7B8F1000F04D1684601F0E6FA03
:1034C0004FF0010802F0CBFC00F064FD02F0A4FC18
:1034D00094F94400401C10B9002084F8440094F989
:1034E0004500401C10B9002084F8450002F0B7FCEC
:1034F00004A9684601F0D1FAF0B92046FFF77BFC39
:10350000A0B104F12400049901F0B1F92046FFF7BD
:10351000D7FA00F094FC0028A0D14FF080507E49EB
:103520000860BFF34F8FBFF36F8F97E72046FFF719
:10353000C7FA00F084FC91E72046FFF7C1FA00F0DB
:103540007EFC2046FFF757FC002887D00020A8E724
:103550002DE9F05F06468946174634463CB940F2ED
:10356000DC62AFF65C11AFF64C1002F031FEB9F13F
:10357000000F01D1206C08B9012000E0002038B90B
:1035800040F2DD62AFF68011AFF6701002F020FE5F
:1035900002F095FC00BF5021EFF3118081F31188F8
:1035A000BFF34F8FBFF36F8F00BF0546D4F838A02D
:1035B000BAF1000F22D094F944B049462046FFF7F3
:1035C0005DFEAAF10100A0630BF1010070B9206952
:1035D00008B9012000E0002068B904F1100001F0F2
:1035E000A4F940B13FB10120386004E00BF10100C3
:1035F00040B284F844004FF0010801E04FF00008A9
:1036000000BF85F3118800BF4046BDE8F09F2DE95B
:10361000F0470646884634463CB94FF4E762AFF6B9
:103620001821AFF6082002F0D3FDB8F1000F01D148
:10363000206C08B9012000E0002038B940F239724E
:10364000AFF63C21AFF62C2002F0C2FD206C08B191
:10365000012000E0002038B940F23A72AFF658215C
:10366000AFF6482002F0B4FD02F029FC00BF502163
:10367000EFF3118081F31188BFF34F8FBFF36F8F8A
:1036800000BF0546A06B48B1D4F80C9041462046D7
:10369000FFF7F4FDC4F80C90012700E0002700BFFD
:1036A00085F3118800BF3846BDE8F08770B5044641
:1036B0003CB940F26B72AFF6B021AFF6A02002F039
:1036C00087FD02F0A9FBA56B02F0C9FB284670BD7F
:1036D00070B5044625463DB940F27D72AFF6D8215B
:1036E000AFF6C82002F074FD02F096FBD5E90E108B
:1036F000461A02F0B4FB304670BD70B504463CB9C2
:1037000040F28D72AFF60031AFF6F02002F060FDAE
:10371000A56B284670BD000004ED00E001460020C6
:103720000EE0774A02EBC00252688A4207D10022BB
:10373000734B43F8302003EBC0035A6002E0401C97
:103740000828EED300BF704770B5044625463DB942
:1037500040F29972AFF65031AFF6403002F038FDCA
:103760002846FFF7DBFF95F8460010B9284602F01F
:1037700025FA70BD0146C86C7047C16470470146A8
:1037800091F85000704770B505463DB940F6EA0221
:10379000AFF68C31AFF67C3002F01AFDA86B08B999
:1037A000012400E00024204670BD70B504463CB9F9
:1037B00040F61112AFF6B031AFF6A03002F008FDBE
:1037C000A06BE16B884201D1012500E0002528466D
:1037D00070BD024600200BE0494B53F8303033B93E
:1037E000474B43F8301003EBC0035A6002E0401C23
:1037F0000828F1D300BF70470246002000210AE0EC
:103800003F4B03EBC1035B68934203D13C4B53F83E
:10381000310002E0491C0829F2D300BF70472DE9AE
:10382000F04105460E4617462C4602F0F5FA94F98B
:103830004400401C10B9002084F8440094F945006D
:10384000401C10B9002084F8450002F008FBA06B72
:1038500028B93A46314604F1240001F04BF82046DD
:10386000FFF72EF9BDE8F08170B50446002204216F
:103870002046FFF77FF80546284670BD70B5044620
:103880000E4602F0C9FAA06C08B1002505E0A06B55
:1038900008B1002501E0A664012502F0E0FA2846FF
:1038A00070BD2DE9F04105460F462E46B06CB8427A
:1038B00001D000240AE0B06B08B1002406E002F059
:1038C000ABFA0020B06402F0CAFA01242046BDE839
:1038D000F08138B505460C46002000902246694626
:1038E0002846FFF7E0FC009838BD38B504460020B4
:1038F0000090002269462046FFF72AFE009838BD56
:10390000F010002010B5002407E004EB8401FE4A0B
:1039100002EB8100FEF733FF641C202CF5D3FB483B
:10392000FEF72DFFFA48FEF72AFFFA48FEF727FFB9
:10393000F948FEF724FFF948FEF721FFF348F8495C
:103940000860F348F749086010BD10B5044602F05E
:1039500063FAF5480068401CF3490860F3480068C2
:1039600040B9F24804600846006801280DD1FFF70D
:10397000C9FF0AE0EE48006838B9EC480068C06A40
:10398000E16A884201D8E9480460EA480068401CBE
:10399000E849086008460068606494F82C1001202B
:1039A0008840E54909680843E3490860E16A01EB9A
:1039B0008101D54A02EB8100211DFEF7F0FE02F0E5
:1039C0004EFADB48006868B1D8480068C06AE16A0E
:1039D000884207D24FF08050D8490860BFF34F8F1C
:1039E000BFF36F8F10BD2DE9F05F82460F46904602
:1039F0009B460A9E0C9C4FEA8801A522206B02F090
:103A000047FDA8F10100216B01EB800929F00709AE
:103A100009F0070008B9012000E0002028B940F2B1
:103A20006332C7A1CBA002F0D3FB002507E0795D8C
:103A300004F134004155785D00B902E06D1C102D91
:103A4000F5D300BF002143200155202E00D31F26AF
:103A5000E662E66400202065201DFEF79DFE04F16D
:103A60001800FEF799FE2461C6F12000A06164628F
:103A70000020606584F858005A465146484602F0D6
:103A800021F920600B9808B10B980460BDE8F09F05
:103A90002DE9F04F85B00746884691469A46DDE904
:103AA0000EB6109C0EB1012000E0002028B94FF4A2
:103AB0001472A3A1A7A002F08BFB0CB1012000E0BF
:103AC000002028B940F251229DA1A2A002F080FB63
:103AD0005C20039003985C2801D1012000E00020C5
:103AE00028B940F2592296A19AA002F071FBACB11C
:103AF000A6B125462E63022085F85900002004A9AE
:103B000053464A46CDE900B1CDE902504146384618
:103B1000FFF769FF2846FFF718FF01E00020049037
:103B2000049805B0BDE8F08F2DE9FF4F85B08046C1
:103B300089461746DDE912ABB80001F0BCFF064626
:103B400056B15C2001F0B7FF04460CB1266304E0D7
:103B5000304602F033F800E000248CB1002084F8F5
:103B60005900CDE900ABCDE902403A46494640460E
:103B7000089BFFF738FF2046FFF7E7FE012501E02D
:103B80004FF0FF35284609B0BDE8F08F6449096859
:103B9000096809B9012100E0002121B14FF0FF318E
:103BA000704A116006E05E490968C968C8686D4AD4
:103BB00041681160704710B5044694F8590030B957
:103BC000206B01F0FBFF204601F0F8FF15E094F8B0
:103BD0005900012803D1204601F0F0FF0DE094F8D0
:103BE0005900022801D1012000E0002028B940F648
:103BF000886253A157A002F0EBFA10BD70B50546DC
:103C000002F00AF915B94948006800E02846044660
:103C1000201DFEF7EAFD78B9E06A00EB80003A4922
:103C200051F8200040B994F82C10012088404249F6
:103C30000968814340480160A06A18B104F1180086
:103C4000FEF7D3FD3B480068401C3A4908603748FE
:103C50000068844209D1211D2F48FEF7A0FD42488B
:103C60000068401C4049086009E02F480068401E79
:103C70002D4908602046FFF79EFFFFF787FF02F0FF
:103C8000EEF82B480068C0B128480068844214D17F
:103C90003648006808B9012000E0002028B940F249
:103CA000A54227A12BA002F093FA4FF080502349A0
:103CB0000860BFF34F8FBFF36F8F70BD2DE9F041E8
:103CC0004FF000082948006800286ED12848006895
:103CD000451C27480560ADB911480068006808B95F
:103CE000012000E0002028B940F6332214A119A0D9
:103CF00002F06EFA0A4807680A4800680849086036
:103D0000084837E03FE0000030110020B0130020E9
:103D1000C4130020D8130020EC130020001400204E
:103D2000380000203C000020440000203400002027
:103D300050000020600000204C00002004ED00E056
:103D40002E2E5C4672656552544F535C7461736BE2
:103D5000732E63004572726F723A25732C25640DC1
:103D60000A00000064000020400000206C000020D9
:103D7000480000200760F7480068401CF5490860CB
:103D8000FFF704FF00BFF448006885423DD300BF41
:103D9000F2480068006808B9012000E0002028B15E
:103DA0004FF0FF30EC4908602EE03BE0EB48006844
:103DB000C068C4686668B54202D2E748066023E07E
:103DC000201DFEF712FDA06A18B104F11800FEF7DD
:103DD0000CFD94F82C1001208840E1490968084343
:103DE000DF490860E16A01EB8101DE4A02EB8100F4
:103DF000211DFEF7D4FCDC49E06A0968C96A8842E3
:103E0000C6D34FF00108C3E700BFD7480068C06AB7
:103E100000EB8000D34951F82000012801D94FF070
:103E2000010804E0D1480068401CD0490860D0482F
:103E3000006808B14FF001084046BDE8F08170B558
:103E400000240026CB48006838B94FF40462AFF272
:103E50001011AFF2001002F0BBF901F0DDFFC54810
:103E60000068401EC34908600846006800284FD11A
:103E7000C148006800284BD024E0C048C068C4682E
:103E800004F11800FEF7B1FC201DFEF7AEFC94F81B
:103E90002C1001208840B24909680843B0490860E5
:103EA000E16A01EB8101AF4A02EB8100211DFEF7BF
:103EB00076FCAD49E06A0968C96A884202D30120EC
:103EC000AB490860AD48006808B9012000E0002057
:103ED0000028D2D00CB1FFF759FEA448056865B19F
:103EE00000BFFFF7EBFE10B10120A14908606D1E75
:103EF000002DF6D100209D4908609D48006838B12A
:103F0000012630079E490860BFF34F8FBFF36F8FC4
:103F100001F0A5FF304670BD2DE9F04105460E4683
:103F20009848076890480068001DFEF75EFC50B98D
:103F30008D48006890F82C10012088408849096855
:103F4000814387480160681C38B936B186480168EA
:103F5000091D8D48FEF723FC1AE07C198248006891
:103F60004460BC4207D280480168091D8748006848
:103F7000FEF721FC0CE07C480168091D77480068C9
:103F8000FEF719FC74480068844201D2724804604C
:103F9000BDE8F08177480068401C764908607047AA
:103FA0002DE9F04704460F464FF000093CB940F2B6
:103FB000B942AFF27421AFF2642002F009F90FB1F7
:103FC000012000E0002038B940F2BA42AFF290215F
:103FD000AFF2802002F0FCF86648006808B90120C2
:103FE00000E0002038B940F2BB42AFF2AC21AFF2A2
:103FF0009C2002F0EDF8FFF7CDFF624806682068CC
:10400000C5192068B04207D92068A8420BD9B5422B
:1040100009D94FF0010906E02068A84201D8B5424D
:1040200001D94FF001092560B9F1000F03D0A81B99
:104030000021FFF771FFFFF702FF8046B8F1000F84
:1040400007D14FF080504E490860BFF34F8FBFF348
:104050006F8FBDE8F08770B504460025BCB14548B8
:10406000006808B9012000E0002038B940F20F5282
:10407000AFF23431AFF2243002F0AAF8FFF78AFF32
:1040800000212046FFF748FFFFF7D9FE05463DB95E
:104090004FF080503A490860BFF34F8FBFF36F8FE6
:1040A00070BD2DE9F04107463E463EB940F23B5215
:1040B000AFF27431AFF2643002F08AF82A48006837
:1040C000864201D100241EE001F0A6FE756901F0D0
:1040D000C6FE22480068854203D02C48006885420D
:1040E00001D102240FE02848854205D1B06A08B901
:1040F000032408E0022406E02548854200D00DB9DB
:10410000042400E001242046BDE8F08170B5044697
:1041100001F082FE14B91448006800E0204606460B
:10412000F56A01F09CFE284670BD2DE9F041054678
:1041300001F0C5FE00BF5021EFF3118081F311881B
:10414000BFF34F8FBFF36F8F00BF044615BB064808
:10415000006820E05C00002064000020380000209F
:104160004C000020301100203400002054000020BA
:10417000580000206C00002044000020D8130020CC
:1041800004ED00E048000020001400203C00002066
:10419000EC13002028460746FE6A00BF84F311880E
:1041A00000BF3046BDE8F0812DE9F04780460D465E
:1041B0004FF00009202D01D2012000E0002038B985
:1041C0004FF4B862AFF28841AFF2784002F000F8E5
:1041D000202D00D31F2501F01FFEB8F1000F02D1E2
:1041E000FD48006800E040460446E66CAE4256D00A
:1041F000B5420BD9F848006884420DD0F6480068F3
:10420000C06AA84208D84FF0010905E0F2480068EA
:10421000844201D14FF00109E76AE16AE06C88420B
:1042200000D1E562E564A06900F0004010B9C5F175
:104230002000A06107EB8701E84A02EB8101606979
:10424000884201D1012000E00020E0B1201DFEF7EE
:10425000CCFA30B90120B840E14909688143E0480F
:10426000016094F82C1001208840DD49096808435A
:10427000DB490860E16A01EB8101D84A02EB810069
:10428000211DFEF78CFAB9F1000F07D04FF08050D6
:10429000D4490860BFF34F8FBFF36F8F00BF01F0A9
:1042A000DEFDBDE8F08710B5CF48006818B10120E9
:1042B000CE4908602FE00020CC490860C84800685B
:1042C000B0FA80F0C0F11F0404EB8400C34951F838
:1042D000200008B1012000E0002038B94FF4356219
:1042E000AFF2A451AFF2945001F072FF04EB8401DD
:1042F000BA4A02EB810041684968416000F1080157
:1043000042688A4202D14168496841604168C9688F
:10431000B14A116000BF10BD70B5054601F07CFDCB
:1043200015B9AD48006800E028460446201DFEF798
:104330005CFA78B9E06A00EB8000A84951F82000E7
:1043400040B994F82C1001208840A54909688143A0
:10435000A3480160A06A18B104F11800FEF745FAFD
:10436000211DA348FEF71BFA94F85800012802D13A
:10437000002084F8580001F072FD9E48006828B1C2
:1043800001F04AFDFFF702FC01F069FD9248006868
:10439000844226D197480068B8B19348006808B9AC
:1043A000012000E0002038B940F2A262AFF2706153
:1043B000AFF2606001F00CFF4FF080508949086057
:1043C000BFF34F8FBFF36F8F0BE0894800688A49B6
:1043D0000968884203D100207F49086001E0FFF7A7
:1043E00062FF70BD70B5054600262C463DB940F20F
:1043F000CC62AFF2B461AFF2A46001F0E9FE7C4997
:104400006069884201D1012000E0002070B17B4941
:10441000A06A884201D1012000E0002030B9A06AE2
:1044200008B9012000E0002000B10126304670BD2F
:1044300070B505462C463DB940F2F662AFF2007108
:10444000AFF2F06001F0C4FE74B3634800688442C8
:104450002AD001F0E1FC2046FFF7C4FF10B3201D75
:10446000FEF7C3F994F82C10012088405C490968D4
:1044700008435B490860E16A01EB8101574A02EB9E
:104480008100211DFEF78BF95349E06A0968C96A6A
:10449000884207D34FF0805052490860BFF34F8FD6
:1044A000BFF36F8F01F0DBFC70BD2DE9F0410646D4
:1044B000002734463EB940F22D72AFF27C71AFF264
:1044C0006C7001F085FE01F0FAFC00BF5021EFF3A3
:1044D000118081F31188BFF34F8FBFF36F8F00BF3F
:1044E00005462046FFF77EFF20B33F480068E0B94D
:1044F0003949E06A0968C96A884200D30127201D4A
:10450000FEF773F994F82C100120884034490968AB
:10451000084333490860E16A01EB81012F4A02EB4D
:104520008100211DFEF73BF904E004F11801334836
:10453000FEF735F900BF85F3118800BF3846BDE8A6
:10454000F08110B516E001F067FC2D48C068C46822
:10455000201DFEF74AF928480068401E26490860D9
:1045600028480068401E2749086001F078FC204672
:10457000FFF721FB234800680028E4D110BD00BFED
:10458000FFF7DFFF154800680128F9D94FF0805088
:1045900014490860BFF34F8FBFF36F8FF0E710B57A
:1045A00086B000200590049003AA04A905A8FBF793
:1045B0008AFE0022DDE904101346CDE900210290B5
:1045C00011A11348039AFFF763FA124908600846DD
:1045D000006808B3012420E03400002030110020DE
:1045E0004C00002004ED00E06C000020580000208A
:1045F000001400205000002044000020D8130020A8
:10460000EC1300204000002049444C45000000000D
:104610007F450008680000200024012C02D101F031
:1046200058F80446012C15D100BF502080F31188A2
:10463000BFF34F8FBFF36F8F00BF4FF0FF30FA49CA
:1046400008600120F94908600020F949086001F07C
:104650005AFB0DE0601C08B1012000E0002038B9D1
:1046600040F2DC72AFF62811AFF6181001F0B0FD81
:1046700006B010BD10B500BF502080F31188BFF305
:104680004F8FBFF36F8F00BF0020E849086001F033
:10469000B2FB10BDE6490868704770B501F00FFC29
:1046A0000025E3480468204670BDE2480068704772
:1046B00070B5044614B9E048006800E0204605469D
:1046C0003DB940F6E402AFF68811AFF6781001F07C
:1046D0007FFD05F1340070BD0246002101E0521C4F
:1046E000491C1078A528FAD0890888B270472DE9AE
:1046F000F04107460C4690461E4617B9CE48006862
:1047000000E038460546256005F134006060E86A3F
:104710002061286BE061686CA060E86C606100203B
:10472000A061052E12D0C4480068854202D1002045
:1047300020730FE02673032E0CD1FFF72BFCA86A21
:1047400008B102202073FFF77AFB03E02846FFF749
:10475000A8FC2073B8F1000F04D0286BFFF7BCFF52
:10476000208401E000202084BDE8F0812DE9F0479D
:1047700007460C4690460026206848B3204641680C
:104780004968416000F1080142688A4202D14168EB
:10479000496841604168D1F80C9000BF20464168EB
:1047A0004968416000F1080142688A4202D14168CB
:1047B000496841604168CD6806EBC60007EB80019F
:1047C000434601222846FFF792FF761C4D45E5D16E
:1047D0003046BDE8F0872DE9F0410546884616468B
:1047E00000242027FFF7D6FB92480068804539D384
:1047F00000BF7F1E07EB8702904B03EB820104EBA7
:10480000C40205EB82000122FFF7B0FF0444002F31
:10481000EFD104EBC40105EB81000222884909684D
:10482000FFF7A4FF044404EBC40105EB810002225E
:1048300084490968FFF79AFF044404EBC40105EBBF
:10484000810004228049FFF791FF044404EBC40176
:1048500005EB810003227D49FFF788FF04440EB178
:1048600000203060FFF7EBFA2046BDE8F08170B51C
:1048700004460D463CB94FF43662AFF63C31AFF614
:104880002C3001F0A5FC6C48016818312046FDF77A
:1048900092FF01212846FFF73FFB70BD70B504462B
:1048A0000D4616463CB940F67132AFF66C31AFF6A4
:1048B0005C3001F08DFC6648006808B1012000E022
:1048C000002038B940F67532AFF68C31AFF67C3047
:1048D00001F07EFC45F00040574909688861564860
:1048E000016818312046FDF75AFF01213046FFF7D5
:1048F00013FB70BD70B505460E4614463DB940F633
:104900008B32AFF6C431AFF6B43001F061FC4A48E7
:10491000016818312846FDF742FF0CB14FF0FF3611
:1049200021463046FFF7F8FA70BD70B50646F068CC
:10493000C4683CB940F6BB32AFF6FC31AFF6EC30A0
:1049400001F046FC04F11800FDF74FFF40480068F5
:10495000A8B9201DFDF749FF94F82C1001208840CC
:104960003C49096808433B490860E16A01EB810161
:10497000324A02EB8100211DFDF711FF04E004F132
:1049800018013548FDF70BFF2B49E06A0968C96A31
:10499000884204D9012501203049086000E0002543
:1049A000284670BD70B505460E462948006808B116
:1049B000012000E0002038B940F6F232AFF6804125
:1049C000AFF6704001F004FC46F000402860EC684F
:1049D0003CB940F6FA32AFF69841AFF6884001F0A4
:1049E000F7FB2846FDF701FF201DFDF7FEFE94F8BA
:1049F0002C100120884017490968084315490860B0
:104A0000E16A01EB81010D4A02EB8100211DFDF7F6
:104A1000C6FE0949E06A0968C96A884202D90120CC
:104A20000E49086070BD00006400002050000020A6
:104A300048000020440000203400002030110020F5
:104A4000380000203C000020EC130020001400205F
:104A50006C0000204C000020D813002058000020DB
:104A600010B504463CB94FF44162AFF62C51AFF695
:104A70001C5001F0ADFB01F0CFF9FE48006820604A
:104A8000FD480068606001F0EAF910BDF949096865
:104A90000160F94909684160704770B505460C46E8
:104AA0003DB940F62642AFF66851AFF6585001F0D6
:104AB0008FFB3CB940F62742AFF67C51AFF66C5005
:104AC00001F086FB01F0A8F9EB4802686868131A48
:104AD0002068401C08B9002617E0E64928680968E4
:104AE000884204D06868904201D801260DE0206811
:104AF000984207D92068C01A20602846FFF7C6FFF1
:104B0000002602E000202060012601F0A8F93046CE
:104B100070BD0120D94908607047014611B10A46AD
:104B2000906C00E00020704708B102469164704725
:104B3000D34908687047D349096809B9012005E0DD
:104B4000D149096809B9022000E00020704770B51A
:104B500005462C460026002D54D0C949E06A096854
:104B6000C96A884247D2A06900F0004028B9C44809
:104B70000068C06AC0F12000A061E16A01EB810118
:104B8000C24A02EB81016069884201D1012000E044
:104B9000002050B3201DFDF728FE78B9E06A00EB35
:104BA0008000BA4951F8200040B994F82C10012037
:104BB0008840B74909688143B5480160B04800683A
:104BC000C06AE06294F82C1001208840B04909685E
:104BD0000843AF490860E16A01EB8101AB4A02EB8F
:104BE0008100211DFDF7DBFD03E0A5480068C06AD8
:104BF000E062012606E0A249E06C0968C96A8842C1
:104C000000D20126304670BD70B505462C46002600
:104C1000002D4FD09A480068844201D1012000E065
:104C2000002038B940F63B72AFF6EC61AFF6DC60BD
:104C300001F0CEFA206D38B940F63C72AFF6007143
:104C4000AFF6F06001F0C4FA206D401E2065E16C03
:104C5000E06A88422ED0206D60BB201DFDF7C5FDA7
:104C600078B9E06A00EB8000884951F8200040B92B
:104C700094F82C10012088408549096881438448B4
:104C80000160E06CE062E06AC0F12000A06194F88D
:104C90002C10012088407E49096808437C4908603F
:104CA000E16A01EB8101794A02EB8100211DFDF7E8
:104CB00076FD0126304670BD2DE9F04706460F46C9
:104CC00034464FF00109002E61D0206D38B940F60E
:104CD0008A72AFF69471AFF6847001F079FAE06CE5
:104CE000B84201D23D4600E0E56CE06AA8424ED0F1
:104CF000206D01284BD162480068844201D0012018
:104D000000E0002038B940F6A572AFF6CC71AFF6DE
:104D1000BC7001F05DFAD4F82C80E562A06900F067
:104D2000004010B9C5F12000A06108EB8801574A86
:104D300002EB81016069884201D1012000E000207E
:104D400028B3201DFDF751FD78B9E06A00EB800023
:104D50004E4951F8200040B994F82C1001208840A9
:104D60004B49096881434A48016094F82C1001209E
:104D7000884047490968084345490860E16A01EBF2
:104D80008101424A02EB8100211DFDF708FDBDE8CB
:104D9000F08770B505460E463146284601F0F0FA18
:104DA000284601F011FB044602E020202855641C2F
:104DB0000F2CFAD300202855281970BD7FB5054661
:104DC000002028703348006803903249096801EBDD
:104DD000C101880000F06FFE0446002C6ED0002256
:104DE00020460399FFF7F7FC0390002002905EE055
:104DF000029800EBC00004EB8000007B05280ED277
:104E0000DFE800F0030507090B00582609E05226E9
:104E100007E0422605E0532603E0442601E0002691
:104E200000BF00BF029800EBC00004EB80004168A7
:104E30002846FFF7AEFF0546029800EBC00004EBE2
:104E400080008068029901EBC10104EB8101098CAB
:104E5000CDE90010029800EBC00004EB8000324660
:104E60000DA10369284601F0BFF9284601F0ACFA0C
:104E7000054419E05C000020480000205800002094
:104E800034000020500000206C0000203011002071
:104E90004C000020440000200925630925750925E0
:104EA000750925750D0A00000298401C0290DDE985
:104EB000020188429CD3204600F080FE7FBDF94964
:104EC00009688869F7490968C96AC1F12001F54A8A
:104ED000126891617047F348006830B1F149096880
:104EE00001F15000096D491C0160EE4800687047EF
:104EF00070B506460D4600F08FFFEA480068406D29
:104F000088B90120E749096881F858005DB101219D
:104F10002846FFF701F84FF08050E3490860BFF3DF
:104F20004F8FBFF36F8F00F09AFF00F075FFDD48E1
:104F30000068446D4CB126B10020DA490968486523
:104F400003E0601ED749096848650020D549096813
:104F500081F8580000F083FF204670BD2DE9F04134
:104F60000746884614461D4600F056FFCD480068A7
:104F700090F85800022818D0CA49096801F1540075
:104F8000496DB94301600120C649096881F858009C
:104F90005DB101212846FEF7BFFF4FF08050C249A6
:104FA0000860BFF34F8FBFF36F8F00F058FF00F022
:104FB00033FF1CB1BB480068406D2060B9480068F1
:104FC00090F85800022801D0002608E0B549096889
:104FD00001F15400496D21EA080101600126002019
:104FE000B049096881F8580000F039FF3046BDE843
:104FF000F0812DE9F04706460D46174698464FF0DA
:10500000010A36B941F2D912A84901F1140001F0A0
:10501000DFF8344600F000FFB8F1000F02D0606DF9
:10502000C8F8000094F85890022084F85800052F22
:1050300017D2DFE807F01503070B0D00606D28435A
:1050400060650EE0606D401C60650AE0656508E023
:10505000B9F1020F01D0656501E04FF0000A00E0F0
:1050600000BF00BFB9F1010F2FD1201DFDF7BDFB1F
:1050700094F82C10012088408D49096808438C4918
:105080000860E16A01EB81018A4A02EB8100211D7F
:10509000FDF785FBA06A08B9012000E0002030B9C7
:1050A00041F21122814901F1140001F091F87D498A
:1050B000E06A0968C96A884207D94FF080507A4986
:1050C0000860BFF34F8FBFF36F8F00F0C8FE5046EC
:1050D000BDE8F0872DE9F84F07460E469046994601
:1050E000DDF828B00120009037B941F244226F4921
:1050F00001F1140001F06CF800F0E1FE3C4600BF45
:105100005021EFF3118081F31188BFF34F8FBFF36C
:105110006F8F00BF0546B9F1000F02D0606DC9F86E
:10512000000094F858A0022084F85800B8F1050F48
:1051300017D2DFE808F01503070B0D00606D304350
:1051400060650EE0606D401C60650AE0666508E021
:10515000BAF1020F01D0666501E00020009000E086
:1051600000BF00BFBAF1010F3AD1A06A08B901200F
:1051700000E0002030B941F28B224C4901F11400CB
:1051800001F026F84C480068A8B9201DFDF72DFB5A
:1051900094F82C1001208840454909680843444987
:1051A0000860E16A01EB8101424A02EB8100211DA6
:1051B000FDF7F5FA04E004F118014048FDF7EFFAB5
:1051C0003849E06A0968C96A884209D9BBF1000F09
:1051D00003D00120CBF8000002E00120384908602C
:1051E00000BF85F3118800BF0098BDE8F88F2DE956
:1051F000F04105460F4635B941F2BF222B4901F176
:10520000140000F0E5FF00F05AFE2C4600BF5021CC
:10521000EFF3118081F31188BFF34F8FBFF36F8FCE
:1052200000BF064694F85880022084F85800606D4C
:10523000401C6065B8F1010F47D1A06A08B9012090
:1052400000E0002030B941F2E522184901F11400D4
:1052500000F0BEFF18480068A8B9201DFDF7C5FA88
:1052600094F82C100120884011490968084310491E
:105270000860E16A01EB81010E4A02EB8100211D09
:10528000FDF78DFA04E004F118010C48FDF787FAE8
:105290000449E06A0968C96A884216D997B10120B1
:1052A000386012E03400002004ED00E0403D0008CA
:1052B0004C000020301100206C000020D81300208A
:1052C0005800002001201049086000BF86F31188B3
:1052D00000BFBDE8F08170B5054615B90B48006800
:1052E00000E02846064600F097FD96F85800022890
:1052F00004D1002086F85800012400E0002400F0CA
:10530000AEFD204670BD0000580000203400002093
:105310002DE9F04104460D4616461F464FF00008A1
:1053200065602461B5420CD8F01BA169884202D3A4
:105330004FF0010811E0211DFC480068FDF73BFA21
:105340000BE0BE4204D2BD4202D34FF0010804E09C
:10535000211DF7480068FDF72EFA4046BDE8F081B0
:105360002DE9FF4704460D4616461F46DDF83080FE
:105370004FF000092CB94FF4C172EEA1F3A000F078
:1053800027FFF648006810B3009501960294062D99
:1053900015DAFFF7D0FB022808D100234246694600
:1053A000EE480068FDF7E4FB814610E000231A4652
:1053B0006946EA480068FDF7DBFB814607E0002309
:1053C0003A466946E5480068FDF76BFE8146484667
:1053D00004B0BDE8F0872DE9F8432DE0D44800681B
:1053E000C0680568D2480068C068C468201DFDF721
:1053F000FCF92046616A8847E06901281CD1A06950
:105400004619AE4207D966602461211DC84800686C
:10541000FDF7D1F910E0002003462A46014600902E
:105420002046FFF79DFF07462FB940F26E32C1A11B
:10543000C6A000F0CDFE00BFBD480068006808B9F6
:10544000012000E000200028C8D0B948D0F8008032
:10545000B6480068B6490860B448C0F80080BDE8A6
:10546000F88370B50446FFF715F90546BC48006897
:10547000854204D2FFF7AFFF0120206001E0002049
:105480002060B7480560284670BDF0B587B073E06E
:10549000039800280CDA04AE2EB940F2C322A5A16D
:1054A000AAA000F095FED6E90020B168904700BFA1
:1054B0000398002860DB059C606908B9012000E0C2
:1054C000002010B9201DFDF790F902A8FFF7C9FFD1
:1054D000054603980A284DD2DFE800F00905072C9D
:1054E0002E4506082D2F00BF00BF00BF00BF049847
:1054F000A269811803462A462046FFF709FFC0B17A
:105500002046616A8847E069012812D10020009096
:105510000498A1694218002319462046FFF720FF8E
:1055200007462FB940F2FD2282A188A000F050FE6C
:1055300000BF20E000BF1EE000BF0498A061A0698A
:1055400008B1012000E0002028B94FF4457279A18C
:105550007EA000F03DFEA06941192B462A46204658
:10556000FFF7D6FE07E094F82C0010B9204600F0B3
:1055700025FB00E000BF00BF002203A977480068B8
:10558000FDF791FE002883D107B0F0BDF8B50546C0
:105590000F4667480068C068C468201DFDF725F9FC
:1055A000E069012818D1A06941192B463A462046E6
:1055B000FFF7AEFE80B1002003462A460146009068
:1055C0002046FFF7CDFE06462EB94FF4F27259A1E0
:1055D0005EA000F0FDFD00BF2046616A8847F8BD6F
:1055E000F8B505460C46FEF7D5FC6846FFF739FFCF
:1055F0000646009820BB44B9B54206D8FEF71FFC0A
:1056000031462846FFF7C2FF1CE03CB1474800681E
:10561000006808B9012000E000200446A91B2246CA
:105620004E480068FEF7FBF8FEF709FC50B94FF052
:1056300080504C490860BFF34F8FBFF36F8F01E07C
:10564000FEF7FDFBF8BD0146394A126812680AB937
:10565000012200E000220A600A6822B9344A126876
:10566000D268106800E00020704708B500BF6846A7
:10567000FFF7E9FF044620460099FFF7B1FFFFF767
:1056800004FFF4E708B500F0C7FB34480068E8B948
:105690003548FDF774F83548FDF771F8324824496C
:1056A00008603248214908600020314B314A1021FE
:1056B00000900520FDF708F92849086008460068B1
:1056C00020B12DA125480068FEF783F800F0C7FB44
:1056D00008BD10B586B00024FFF7D4FF1F4800684E
:1056E000D0B100200590049003AA04A905A8FAF7F8
:1056F000E3FD1F22DDE904100023CDE90021029023
:105700001FA12148039AFEF7C3F920490860084603
:10571000006800B1012400BF2CB940F20F1205A1AE
:105720000AA000F055FD204606B010BD7400002010
:10573000700000202E2E5C4672656552544F535CFB
:1057400074696D6572732E63000000004572726F9C
:10575000723A25732C25640D0A00000078000020A1
:105760008000002004ED00E0141400202814002024
:105770003C14002090140020546D72510000000071
:10578000546D7220537663006B5600087C00002035
:105790002DE9F04706460D4617469846DDE9089480
:1057A0000DB1012000E0002038B94FF4B472AFF21F
:1057B0007C01AFF2680000F00BFD5CB1FFF762FF07
:1057C0002660A561E761C4F82080C4F82490201DFC
:1057D000FCF7E2FFBDE8F0872DE9FC4705460E46E1
:1057E00017469846DDF82890302000F064F904460A
:1057F00054B143463A4631462846CDE90094FFF776
:10580000C7FF002084F82C002046BDE8FC872DE966
:10581000FC4706460F4690469946DDE90AA530202A
:1058200001900198302801D1012000E0002038B912
:1058300040F24512AFF20411AFF2F00000F0C8FCE4
:105840003DB94FF4A572AFF21411AFF2001000F0A1
:10585000BFFC2C4654B14B46424639463046CDE952
:1058600000A4FFF795FF012084F82C002046BDE836
:10587000FC8710B55D48006808B1012000E00020F9
:1058800038B94FF4D672AFF25411AFF2401000F0B5
:105890009FFC5648006810BD70B5044625463CB9CB
:1058A00040F2B512AFF27411AFF2601000F090FC4C
:1058B000A86970BD70B5044625463CB940F2BF12D8
:1058C000AFF29011AFF27C1000F082FC6E683046AF
:1058D00070BD70B5044625463CB940F2C912AFF21E
:1058E000AC11AFF2981000F073FC286870BD70B571
:1058F000044626463CB940F2B632AFF2C811AFF2C8
:10590000B41000F065FC00F087FA706908B9012056
:1059100000E0002080F0010500F0A1FA284670BDEB
:1059200070B5044626463CB940F2CB32AFF2FC11CA
:10593000AFF2E81000F04CFC00F06EFA356A00F0AF
:105940008EFA284670BD70B504460D4626463CB911
:1059500040F2DB32AFF22421AFF2102000F038FC2D
:1059600000F05AFA356200F07AFA70BD2DE9FF4175
:1059700004460D4616461F466FF001000090019444
:105980000295039600233A46694619480068FDF7D8
:1059900088FB8046404604B0BDE8F0812DE9FF4118
:1059A00004460D4616461F461148006838B940F2B5
:1059B0000742AFF28021AFF26C2000F009FC4FF0FB
:1059C000FF30009001940295039600233A46694601
:1059D00007480068FDF7CCF88046404604B0BDE8B3
:1059E000F0810146886A7047816270477C00002020
:1059F0007800002010B50146924800E00068036876
:105A00008B42FBD30246436813448B4204D1436864
:105A10004C682344436001460A464B6813440468BB
:105A2000A34211D1884C03682468A34208D04B6874
:105A30000468646823444B6003681B680B6005E0DE
:105A4000814B1B680B6001E003680B60884200D04B
:105A5000016010BD30B54FF4A0437C4800F007044E
:105A60002CB1C01D20F00700784C041B1B1B024604
:105A7000744C22600024734D6C60D018083820F0FC
:105A80000700714C206000246F4D2D686C606E4DD6
:105A90002D682C601146441A4C606B4C24680C60D5
:105AA0006B4D4C682C606B4D4C682C604FF0004483
:105AB000694D2C6030BD2DE9F04104464FF00008DF
:105AC000FEF768FA6048006808B9FFF7C3FF62484C
:105AD0000068204000285FD1A4B1083404F007001A
