:020000040800F2
:10000000B06900200D060008C9030008CB030008F2
:10001000CF030008D3030008D70300080000000046
:10002000000000000000000000000000E9010008DE
:10003000DB030008000000002D020008214A000830
:1000400027060008270600082706000827060008DC
:1000500027060008270600082706000827060008CC
:1000600027060008270600082706000827060008BC
:1000700027060008270600082706000827060008AC
:10008000270600082706000827060008270600089C
:10009000270600082706000827060008270600088C
:1000A000270600082706000827060008270600087C
:1000B000270600082706000827060008270600086C
:1000C000270600082706000827060008270600085C
:1000D00027060008D94B0008270600082706000855
:1000E000270600082706000827060008270600083C
:1000F000270600082706000827060008270600082C
:10010000270600082706000827060008270600081B
:10011000270600082706000827060008270600080B
:1001200027060008270600082706000827060008FB
:1001300000F002F800F048F80AA090E8000C8244B1
:100140008344AAF10107DA4501D100F03DF8AFF28E
:10015000090EBAE80F0013F0010F18BFFB1A43F0A5
:10016000010318474450000064500000103A24BFB7
:1001700078C878C1FAD8520724BF30C830C144BF0C
:1001800004680C607047000000230024002500264E
:10019000103A28BF78C1FBD8520728BF30C148BFEA
:1001A0000B607047642904F0DD85752904F0DA8559
:1001B000632904F02887732904F02D8700207047F5
:1001C0001FB51FBD10B510BD04F0BBFF1146FFF7F2
:1001D000F7FF00F0A4F804F0D9FF03B4FFF7F2FF33
:1001E00003BC04F09FFC0000224B19680868B0E8CB
:1001F000F00F80F30988BFF36F8F4FF0000080F39A
:1002000011884EF00D0E704700000000064800688F
:10021000006880F3088862B661B6BFF34F8FBFF302
:100220006F8F00DF00BF00BF08ED00E0EFF3098033
:10023000BFF36F8F0F4B1A6820E9F00F106008B5FD
:100240004FF0500080F31188BFF34F8FBFF36F8FD3
:1002500002F081FD4FF0000080F31188BDE80840F6
:1002600019680868B0E8F00F80F30988BFF36F8F52
:10027000704700BF34000020EFF305807047000096
:10028000374B0360374B0B60822313607047364B4C
:100290000360364B0B6082231360704709E03448DB
:1002A0000068C0433349C1F888014FF4FA6002F096
:1002B0002AFCF4E709E030480068C0432F49C1F840
:1002C000A0014FF4FA6002F01EFCF4E73EB50446CC
:1002D00004F0FAFA2A482B4901220023CDE9002133
:1002E0000290802228A1AFF2330002F029F92949B7
:1002F00008602948294901220023CDE90021029004
:10030000802227A1AFF26B0002F01AF9274908609A
:100310002748006802F0CAF904F0F9FA3EBD0EB5AC
:100320004FF4407000F016FF04F082FB4FF4E13010
:1003300004F006FC00F042F91E481F490122002388
:10034000CDE90021029080221CA1AFF27F0002F0D3
:10035000F7F81749086002F07AFE00200EBD000091
:100360002C0A0020880A0020C8070020240800204A
:100370008881224200802242A001214200002142C5
:1003800010050020100300207461736B315F7461ED
:10039000736B0000040000206C0700206C05002037
:1003A0007461736B325F7461736B0000080000202E
:1003B00000000020B4020020B400002073746172B9
:1003C000745F7461736B0000704700BFFEE700BF8D
:1003D000FEE700BFFEE700BFFEE770470CB5002058
:1003E000019000906C48006840F480306A490860D1
:1003F00000BF6948006800F4003000900198401C7C
:100400000190009818B90198B0F5A06FF1D1624839
:10041000006800F4003010B10120009001E00020DD
:1004200000900098012843D15C48006840F010001B
:100430005A4908600846006820F003000860084632
:10044000006840F002000860534840685249486024
:100450000846406848600846406840F4806048604C
:100460000846406820F47C1048600846406840F424
:10047000E81048600846006840F08070086000BFDF
:100480004548006800F000700028F9D042484068F4
:1004900020F00300404948600846406840F00200F0
:1004A000486000BF3C48406800F00C000828F9D1C3
:1004B0000CBD10B5FFF792FF10BD10B536480068AF
:1004C00040F001003449086008464068344908405B
:1004D0003149486008460068324908402E490860A2
:1004E0000846006820F4802008600846406820F430
:1004F000FE0048604FF41F008860FFF7DAFF4FF0FE
:1005000000602949086010BD10B5002100200022BC
:10051000214B5B6803F00C0121B1042906D00829A6
:1005200028D107E0214B224C236027E01F4B204CB1
:10053000236023E0184B5B6803F47010164B5B6874
:1005400003F48032022303EB904022B9194B43435A
:10055000174C23600DE0104B5B6803F4003323B1AC
:10056000144B4343124C236003E0104B4343104CA5
:10057000236003E00D4B0E4C236000BF00BF064B11
:100580005B68C3F303130C4CE15C094B1B68CB4065
:10059000074C236010BD0000001002400020024004
:1005A0000000FFF8FFFFF6FE08ED00E000127A0001
:1005B0000C00002000093D001000002008B50121BA
:1005C000242000F05FFB4FF48070ADF80000102095
:1005D0008DF8030003208DF802006946094800F0F9
:1005E00095F84FF48071074800F03DF90420ADF80C
:1005F00000006946044800F089F80421024800F030
:1006000032F908BD00080140001401400948804744
:1006100009480047FEE7FEE7FEE7FEE7FEE7FEE7E4
:10062000FEE7FEE7FEE7FEE704480549054A064BFC
:1006300070470000BB04000831010008B0630020CF
:10064000B0690020B0650020B065002010B50446F8
:10065000CC48844208D10121042000F02DFB002168
:10066000042000F029FB46E0C748844208D101215C
:10067000082000F021FB0021082000F01DFB3AE0DB
:10068000C248844208D10121102000F015FB00214E
:10069000102000F011FB2EE0BD48844208D101215A
:1006A000202000F009FB0021202000F005FB22E0C3
:1006B000B848844208D10121402000F0FDFA002111
:1006C000402000F0F9FA16E0B348844208D1012135
:1006D000802000F0F1FA0021802000F0EDFA0AE01D
:1006E000AE48844207D10121801500F0E5FA0021CF
:1006F000A01500F0E1FA10BD10B50121084600F088
:10070000DBFA0021012000F0D7FA10BD2DE9F041FD
:10071000024600250026002000230024002791F82F
:1007200003C00CF00F0591F803C00CF0100CBCF1E5
:10073000000F03D091F802C04CEA050591F800C003
:10074000BCF1000F31D0146800202BE04FF0010CF9
:100750000CFA00F3B1F800C00CEA03069E4220D167
:1007600083004FF00F0C0CFA03F7BC4305FA03FCAF
:100770004CEA040491F803C0BCF1280F06D14FF0F5
:10078000010C0CFA00FCC2F814C00AE091F803C096
:10079000BCF1480F05D14FF0010C0CFA00FCC2F877
:1007A00010C0401C0828D1D31460B1F800C0BCF1BF
:1007B000FF0F34DD546800202EE000F1080C4FF0EC
:1007C000010808FA0CF3B1F800C00CEA03069E42D7
:1007D00021D183004FF00F0C0CFA03F7BC4305FA4C
:1007E00003FC4CEA040491F803C0BCF1280F05D1C6
:1007F00000F1080C08FA0CF8C2F8148091F803C054
:10080000BCF1480F07D100F1080C4FF0010808FABD
:100810000CF8C2F81080401C0828CED35460BDE804
:10082000F0814FF6FF710180022181700421C170B7
:1008300070470246002093680B400BB1012000E096
:10084000002070470146886880B270470246002049
:10085000D3680B400BB1012000E000207047014637
:10086000C86880B2704701617047416170470AB142
:10087000016100E041617047C16070474FF4803210
:100880000A4382618161826182698269704702469E
:100890000020434B18684FF68073184040EA02105E
:1008A00008433F4B186070473E49C8617047F0B538
:1008B0000A46002300240021002500F00046B6F17E
:1008C000004F02D1364EF16901E0354E7168C0F338
:1008D000034583B200F44016B6F5401F08D121F05D
:1008E00070612F4E766826F070662D4F7E6012E0A4
:1008F00000F48016B6F5801F06D1032606FA05F42B
:10090000A14341F0706106E0460D360103FA06F698
:10091000B14341F0706122B1460D360103FA06F68B
:10092000314300F00046B6F1004F02D11C4EF16198
:1009300001E01B4E7160F0BD30B500228B071C0F2B
:100940000F2303FA04F2164B08338C1053F82430AB
:100950009343134C08348D1044F8253023468C10F3
:1009600053F824308C07240F00FA04F423430C4C72
:1009700008348D1044F8253030BD0A49DC31086058
:100980007047000000080140000C014000100140C9
:100990000014014000180140001C014000200140EB
:1009A0000000014000002042DF48006840F00100E4
:1009B000DD49086008464068DC490840DA4948607B
:1009C00008460068DA490840D749086008460068C8
:1009D00020F4802008600846406820F4FE0048604B
:1009E0004FF41F0088607047CF49096821F48031B7
:1009F000CD4A11601146096821F480211160B0F5DB
:100A0000803F03D0B0F5802F0ED106E0C6490968BB
:100A100041F48031C44A116007E0C349096841F4D8
:100A2000A021C14A116000E000BF00BF704710B5AF
:100A300001460022002300204A11012A02D1BA4CAB
:100A4000236806E0022A02D1B74C236A01E0B64CC3
:100A5000636A01F01F02012494401C400CB1012084
:100A600000E0002010BD38B50020009000240025D3
:100A700000BF3120FFF7DBFF05460098401C0090C7
:100A80000098B0F5A06F01D0002DF2D03120FFF713
:100A9000CEFF08B1012400E00024204638BD014605
:100AA0000020A14A106820F0F80040EAC100106060
:100AB0007047A04908607047024600209A4B58686A
:100AC00020F47C1042EA01031843974B58607047AA
:100AD00098490866704701460020934A506820F004
:100AE00003000843506070478F48406800F00C00D6
:100AF0007047014600208C4A506820F0F0000843FF
:100B00005060704701460020874A506820F4E0603A
:100B100008435060704701460020834A506820F423
:100B2000605040EAC1005060704729B17E4A527A55
:100B300002437D4B5A7204E07B4A527A82437A4BDD
:100B40005A7270477B49D8310860704701460020CF
:100B5000754A506820F440400843506070470021B7
:100B6000714A20321170704A82F82010012802D098
:100B700004280AD104E001216B4A2032117005E0FB
:100B80000521694A2032117000E000BF00BF7047A4
:100B90006949086070476449096A0143624A116201
:100BA0007047654944390860704730B5002100221C
:100BB000002400235C4D6D6805F00C0121B104296F
:100BC00005D0082923D105E05C4D056022E05B4D8E
:100BD00005601FE0544D6D6805F47012524D6D684C
:100BE00005F48034022505EB92421CB9544D55435F
:100BF00005600BE04C4D6D6805F400351DB1504D9E
:100C00005543056002E04D4D5543056002E04B4DF4
:100C1000056000BF00BF444D6D6805F0F001090993
:100C2000484D6B5C0568DD4045603F4D6D6805F4DF
:100C3000E061090A434D6B5C4568DD4085603A4DD3
:100C40006D6805F46051C90A3E4D6B5C4568DD4036
:100C5000C560354D6D6805F44041890B3A4D6B5CBC
:100C6000C568B5FBF3F5056130BD29B12E4A52695F
:100C700002432D4B5A6104E02B4A526982432A4BAE
:100C80005A61704729B1284A92690243264B9A61FA
:100C900004E0254A92698243234B9A61704729B147
:100CA000214AD2690243204BDA6104E01E4AD2692C
:100CB00082431D4BDA61704729B11B4AD268024357
:100CC000194BDA6004E0184AD2688243164BDA60A6
:100CD000704729B1144A12690243134B1A6104E0A8
:100CE000114A12698243104B1A6170471249403908
:100CF000086070470F49C86470470B49C871704756
:100D00000948406A40F080700749486270470146D0
:100D10000020054A92680A400AB1012000E0002044
:100D20007047014988727047001002400000FFF8C8
:100D3000FFFFF6FE000042428004424200127A00A9
:100D400000093D00200000203000002010B50446BE
:100D5000FB48844209D101218803FFF7ADFF002140
:100D60004FF48040FFF7A8FF32E0F648844209D1F3
:100D700001214804FFF7ADFF00214FF40030FFF7D9
:100D8000A8FF25E0F048844209D101218804FFF73B
:100D9000A0FF00214FF48020FFF79BFF18E0EB48F5
:100DA000844209D10121C804FFF793FF00214FF4C9
:100DB0000020FFF78EFF0BE0E548844208D10121B7
:100DC0000805FFF786FF00214FF48010FFF781FF31
:100DD00010BD2DE9F04786B005460E460024A24618
:100DE00000BFA1460027B08900B100BF2F462C8A62
:100DF0004CF6FF700440F08804432C82AC894EF618
:100E0000F3100440B08831890843718908430443D2
:100E1000AC81AC8A4FF6FF400440B0890443AC82F9
:100E200001A8FFF7C2FEC648874202D1DDF810A034
:100E300001E0DDF80CA0A88900F4004040B10AEB05
:100E4000CA0000EB0A1031684900B0FBF1F807E076
:100E50000AEBCA0000EB0A1031688900B0FBF1F818
:100E60006420B8FBF0F004012009642101FB108923
:100E7000A88900F4004040B1322000EBC900B0FB6B
:100E8000F1F000F00700044308E0322000EB091005
:100E90006421B0FBF1F000F00F0004432C8106B098
:100EA000BDE8F0874FF41651016000218180C180B8
:100EB00001810C21418100218181704710B50246DA
:100EC0000020108A4FF2FF0318400B884C88234300
:100ED0008C882343CC8823431843108210BD002103
:100EE000018041808180C180704721B1828942F4B4
:100EF0000052828104E082894DF6FF731A4082819C
:100F00007047F0B50346002400260025002040F677
:100F10006A17B94200D100BF1846C1F3421401F06C
:100F20001F06012707FA06F5012C01D10C3004E059
:100F3000022C01D1103000E014301AB107682F43A1
:100F4000076002E00768AF430760F0BD1AB1838A0B
:100F50000B43838202E0838A8B4383827047028A39
:100F60004FF6F0731A400282028A0A4302827047E7
:100F700082894FF2FF731A40828182890A438281FB
:100F8000704721B1828942F00202828104E08289A5
:100F90004FF6FD731A4082817047028A4FF6DF7365
:100FA0001A400282028A0A430282704721B1028AF1
:100FB00042F48042028204E0028A4BF6FF731A4038
:100FC00002827047C1F30802828070470146888818
:100FD000C0F308007047818941F0010181817047A9
:100FE000028BD2B20283028B42EA01220283704753
:100FF000028B02F47F420283028B0A430283704712
:1010000021B1828A42F02002828204E0828A4FF675
:10101000DF731A408282704721B1828A42F0100247
:10102000828204E0828A4FF6EF731A408282704710
:1010300021B1828A42F00802828204E0828A4FF65D
:10104000F7731A408282704721B1828942F40042CC
:10105000828103E08289C2F30E028281704721B14E
:10106000828A42F40062828204E0828A4FF2FF7335
:101070001A4082827047828A4FF6FB731A4082823E
:10108000828A0A438282704721B1828A42F0020238
:10109000828204E0828A4FF6FD731A408282704792
:1010A00002460020B1F5007F00D100BF13880B403D
:1010B0000BB1012000E00020704701F40072B2F58E
:1010C000007F00D100BFCA430280704770B502465E
:1010D000002400230025002040F66A16B14200D10A
:1010E00000BFC1F3421501F01F03012606FA03F306
:1010F000012D02D19689334006E0022D02D1168AD5
:10110000334001E0968A33400C12012606FA04F4BB
:101110001688344013B10CB1012000E0002070BDEE
:1011200010B50022002340F66A14A14200D100BF8E
:101130000A1201249440A3B2DC43048010BD0000D5
:10114000003801400044004000480040004C00408E
:101150000050004031490143314A1160704770B579
:10116000002100230F22C47804B32D4C246804F41A
:10117000E064C4F5E064210AC1F10403CA40447884
:1011800004FA03F18478144021430901254C0678C0
:10119000A155047804F01F050124AC4005786D11B9
:1011A000AD0005F1E025C5F8004109E0047804F040
:1011B0001F050124AC401C4D0678761145F82640E9
:1011C00070BD1A4A0A400243154B1B1F1A60704734
:1011D00039B1134A121D12680243114B1B1D1A60CC
:1011E00006E00F4A121D126882430D4B1B1D1A6048
:1011F0007047042808D14FF0E021096941F004014B
:101200004FF0E022116107E04FF0E021096921F081
:1012100004014FF0E0221161704700000000FA0560
:101220000CED00E000E400E080E100E080FFFF1F43
:1012300000F1080141604FF0FF31816000F10801C9
:10124000C1600161002101607047002101617047A8
:1012500042684A6093688B60936859609160086146
:1012600003685B1C0360704710B502460B685C1C8A
:101270000CB9106907E002F1080000E0406844681A
:1012800024689C42FAD944684C604C68A16088602C
:1012900041600A611468641C146010BD01460A694B
:1012A000D1E901309860D1E9010358605068884263
:1012B00001D188685060002008611068401E1060ED
:1012C0001068704770B505460E462C4624B9FB22BF
:1012D000F9A1FEA003F0C8FC03F0F6FAD4E90F125E
:1012E000206801FB020060600020A0632068A0600D
:1012F000E06B401E226C216800FB0210E060FF20C2
:1013000084F8440084F845009EB9206908B901209A
:1013100000E00020A8B904F1100002F05EF880B1EE
:101320004FF08050ED490860BFF34F8FBFF36F8FD0
:1013300007E004F11000FFF77BFF04F12400FFF742
:1013400077FF03F0E4FA012070BD2DE9F041064675
:101350000D4617469846069C0DB9246000E02760AC
:10136000E663256401212046FFF7ACFF84F8508036
:101370000020A064BDE8F0812DE9F84380460E46C8
:1013800017461D46DDF82090B8F1000F01D001206E
:1013900000E0002028B94FF49972C7A1CBA003F058
:1013A00063FC0DB1012000E0002028B94FF49B72CE
:1013B000C1A1C6A003F058FC07B10EB1012000E0A6
:1013C000002028B94FF49D72BBA1C0A003F04CFCD3
:1013D00007B90EB9012000E0002028B940F23B1205
:1013E000B5A1BAA003F040FC542000900098542806
:1013F00001D1012000E0002028B940F24312AEA143
:10140000B2A003F031FC2C464CB1012084F8460018
:101410004B463A46314640460094FFF796FF204639
:10142000BDE8F8832DE9F84305460E4690460DB118
:10143000012000E0002028B94FF4B6729EA1A3A0BD
:1014400003F012FC0EB9002701E005FB06F707F1D7
:10145000540003F088F804465CB104F154090020FC
:1014600084F8460043464A46314628460094FFF732
:101470006CFF2046BDE8F8832DE9F04104460F4695
:1014800015464FF00008A66B206C40B9206860BB81
:10149000606802F011F980460020606025E07DB9A7
:1014A0003946226CA06803F0DCFC216CA06808447B
:1014B000A060D4E90110884217D32068A06014E02E
:1014C0003946226CE06803F0CCFC216CE068401ADD
:1014D000E0602168E068884203D2216C6068401AAD
:1014E000E060022D01D106B1761E701CA06340465B
:1014F000BDE8F0812DE9F3410D460098846C00278A
:101500002CB940F625326CA170A003F0ADFBA06BA6
:10151000E16B884201D2012000E0002028B940F6AA
:10152000263265A169A003F09FFBA06BE16B8842A6
:101530001BD294F945602A4669462046FFF79CFF76
:101540000746701C60B9606A08B9012000E00020FD
:1015500050B904F1240001F040FF28B1012703E055
:10156000701C40B284F8450000BF3846BDE8FC81DD
:1015700070B5044603F0A8F994F945501AE0A06C40
:1015800038B100212046FFF7B5FF88B102F019F805
:101590000EE0606A08B9012000E0002038B904F1CB
:1015A000240001F01AFF18B102F00BF800E003E08C
:1015B000681E45B2002DE2DC00BFFF2084F8450024
:1015C00003F0A5F903F080F994F9445010E0206984
:1015D00008B9012000E0002048B904F1100001F032
:1015E000FCFE08B101F0EDFF681E45B200E001E02D
:1015F000002DECDC00BFFF2084F8440003F087F9E5
:1016000070BD70B5054603F05FF9A86BE96B8842C1
:1016100001D1012400E0002403F079F9204670BDD7
:101620002DE9FF4383B0064688461D464FF000096A
:1016300034462CB940F2DB221FA124A003F014FB96
:10164000B8F1000F01D1206C08B9012000E00020A2
:1016500028B94FF4377218A11CA003F005FB022D26
:1016600002D1E06B012801D1012000E0002028B95F
:1016700040F2DD2210A115A003F0F6FA01F0B3FF4D
:1016800008B9059808B9012000E0002028B94FF4F6
:10169000387209A10DA003F0E7FA00BF03F014F9B6
:1016A000A06BE16B884201D3022D4DD12A46414601
:1016B0002046FFF7E1FE13E02E2E5C467265655270
:1016C000544F535C71756575652E63004572726F7A
:1016D000723A25732C25640D0A00000004ED00E029
:1016E0000746A06C68B129462046FFF703FF28B3E0
:1016F0004FF08050FE490860BFF34F8FBFF36F8FEC
:101700001CE0606A08B9012000E0002068B904F11B
:10171000240001F062FE88B14FF08050F449086067
:10172000BFF34F8FBFF36F8F08E03FB14FF0805092
:10173000EF490860BFF34F8FBFF36F8F03F0E7F8F7
:10174000012007B0BDE8F083059818B903F0DFF871
:101750000020F6E7B9F1000F04D101A801F0EEFE78
:101760004FF0010903F0D3F801F06CF903F0ACF885
:1017700094F94400401C10B9002084F8440094F906
:101780004500401C10B9002084F8450003F0BFF864
:1017900005A901A801F0D9FEF8B92046FFF731FFED
:1017A000A8B104F11000059901F0B9FD2046FFF73A
:1017B000DFFE01F09CF800287FF470AF4FF08050FE
:1017C000CB490860BFF34F8FBFF36F8F66E72046AA
:1017D000FFF7CEFE01F08BF860E72046FFF7C8FE6A
:1017E00001F085F80020ACE710B504464CB10020AC
:1017F00060602060E06000231A4619462046FFF72B
:101800000FFF10BD2DE9F0410446012600272246B6
:1018100000210120FFF706FE05462846FFF7E4FFFA
:101820002846BDE8F0812DE9F84304460D4601271E
:101830004FF000082B460022114601200094FFF7CC
:101840009BFD06463046FFF7CFFF3046BDE8F883E4
:1018500070B5064634463CB940F24322AFF2A811B7
:10186000AFF2981003F000FA01F0BAFE6168884206
:101870000CD1E068401EE060E06828B900231A46F9
:1018800019462046FFF7CCFE012500E0002528463A
:1018900070BD01464A6A22B10A6B1268C2F120008B
:1018A00000E00020704770B5054603F00DF8A86B06
:1018B00008B9012400E0002403F029F8204670BD97
:1018C0002DE9F34182B005464FF000082C46002672
:1018D0003CB94FF4AE62AFF22021AFF2102003F01A
:1018E000C3F9206C08B9012000E0002038B940F2AB
:1018F0007452AFF23C21AFF22C2003F0B5F901F0A5
:1019000072FE08B9039808B9012000E0002038B938
:1019100040F27952AFF26021AFF2502003F0A4F907
:1019200000BF02F0D1FFA76BFFB1781EA063206853
:1019300010B902F028F86060206908B9012000E0C1
:10194000002060B904F1100001F047FD38B14FF0FC
:10195000805067490860BFF34F8FBFF36F8F02F06D
:10196000D6FF012004B0BDE8F081039880B90EB91C
:10197000012000E0002038B940F2C152AFF2C82186
:10198000AFF2B82003F070F902F0C1FF0020E9E7E0
:10199000B8F1000F04D1684601F0D0FD4FF0010806
:1019A00002F0B5FF01F04EF802F08EFF94F944000A
:1019B000401C10B9002084F8440094F94500401CF4
:1019C00010B9002084F8450002F0A1FF03A9684681
:1019D00001F0BBFD40BB2046FFF765FFF0B120687A
:1019E00038B902F071FF606801F009FE064602F0A6
:1019F0008EFF04F12400039901F091FC2046FFF7CB
:101A0000B7FD00F074FF00288BD14FF080503849AB
:101A10000860BFF34F8FBFF36F8F82E72046FFF759
:101A2000A7FD00F064FF7CE72046FFF7A1FD00F072
:101A30005EFF2046FFF737FF0028EED05EB102F0D0
:101A400043FF2046FFF725FF07463946606801F04F
:101A50008BFE02F05CFF002084E72DE9F041064692
:101A60000F4634463CB940F27A22AFF2B431AFF2BD
:101A7000A43003F0F9F801F0B3FD6168884204D1A5
:101A8000E068401CE060012508E039462046FFF789
:101A900017FF054615B1E068401CE0602846BDE828
:101AA000F081F8B505460E4617460DB1012000E05D
:101AB000002038B940F2A322AFF20441AFF2F43073
:101AC00003F0D2F8AE4201D8012000E0002038B97E
:101AD0004FF42972AFF22041AFF2104003F0C4F886
:101AE00002203B46002211460090284602E00000FA
:101AF00004ED00E0FFF740FC044604B1A663204675
:101B0000F8BD70B505460E460DB1012000E000207D
:101B100038B940F2BF22AFF26041AFF2504003F05B
:101B2000A3F8AE4201D8012000E0002038B94FF4FC
:101B30003072AFF27C41AFF26C4003F095F80222B4
:101B400000212846FFF76EFC044604B1A663204638
:101B500070BD2DE9F05F80468A4615461E46444614
:101B60003CB940F2A132AFF2B041AFF2A04003F075
:101B70007BF8BAF1000F01D1206C08B9012000E018
:101B8000002038B940F2A232AFF2D441AFF2C440E3
:101B900003F06AF8022E02D1E06B012801D1012086
:101BA00000E0002038B940F2A332AFF2F441AFF2C6
:101BB000E44003F059F802F0DAFE00BF5021EFF3E1
:101BC000118081F31188BFF34F8FBFF36F8F00BF78
:101BD0000746A06BE16B884201D3022E2BD194F90A
:101BE00045B0324651462046FFF746FC0BF1010056
:101BF000C8B9A06C40B131462046FFF77BFCB8B1B4
:101C0000B5B10120286013E0606A08B9012000E046
:101C1000002068B904F1240001F0DFFB40B13DB1C0
:101C20000120286004E00BF1010040B284F8450077
:101C30004FF0010901E04FF0000900BF87F3118860
:101C400000BF4846BDE8F09F2DE9F04707460D4626
:101C50003C463CB940F23E42AFF2A451AFF2945040
:101C600003F002F8206C08B9012000E0002038B928
:101C700040F24242AFF2C051AFF2B05002F0F4FF76
:101C8000206808B9606808B9012000E0002038B970
:101C900040F24742AFF2E051AFF2D05002F0E4FF21
:101CA00002F065FE00BF5021EFF3118081F311882F
:101CB000BFF34F8FBFF36F8F00BF0646D4F8389045
:101CC000E06B484529D994F945A009F10100A063CA
:101CD0000AF10100C8B9A06C40B100212046FFF70D
:101CE00009FCB8B1B5B10120286013E0606A08B9F9
:101CF000012000E0002068B904F1240001F06DFB30
:101D000040B13DB10120286004E00AF1010040B279
:101D100084F845004FF0010801E04FF0000800BFD3
:101D200086F3118800BF4046BDE8F08770B50446D1
:101D30000D46206C70B1216CE0680844E060616879
:101D4000E068884201D32068E0602846226CE168A0
:101D500003F087F870BD2DE9F74183B005460E46C4
:101D60004FF000082C463CB940F2DE42AFF2B861B9
:101D7000AFF2A86002F078FF0EB9206C08B901201C
:101D800000E0002038B940F2E242AFF2D461AFF295
:101D9000C46002F069FF01F026FC08B9059808B993
:101DA000012000E0002038B940F2E742AFF2F861CC
:101DB000AFF2E86002F058FF00BF02F085FDA76BAC
:101DC000F7B131462046FFF7B1FF781EA0632069C6
:101DD00008B9012000E0002060B904F1100001F012
:101DE000FCFA38B14FF08050F7490860BFF34F8FCD
:101DF000BFF36F8F02F08BFD012006B0BDE8F081CC
:101E0000059818B902F083FD0020F6E7B8F1000F3D
:101E100004D101A801F092FB4FF0010802F077FD18
:101E200000F010FE02F050FD94F94400401C10B97F
:101E3000002084F8440094F94500401C10B90020AB
:101E400084F8450002F063FD05A901A801F07DFBBF
:101E5000F0B92046FFF727FDA0B104F12400059951
:101E600001F05DFA2046FFF783FB00F040FD0028FB
:101E7000A3D14FF08050D4490860BFF34F8FBFF318
:101E80006F8F9AE72046FFF773FB00F030FD94E771
:101E90002046FFF76DFB00F02AFD2046FFF703FD0B
:101EA00000288AD00020A8E72DE9F74382B0054634
:101EB0000E464FF000082C463CB94FF4C962AFF60D
:101EC0000801AFF2F87002F0CFFE0EB9206C08B92D
:101ED000012000E0002038B940F24C62AFF6280142
:101EE000AFF6180002F0C0FE01F07DFB08B90498BF
:101EF00008B9012000E0002038B940F25162AFF685
:101F00004801AFF6380002F0AFFE00BF02F0DCFC83
:101F1000D4F83890B9F1000F1ED0E768314620465A
:101F2000FFF704FFE760606A08B9012000E00020C5
:101F300060B904F1240001F050FA38B14FF080503C
:101F4000A1490860BFF34F8FBFF36F8F02F0DFFC32
:101F5000012005B0BDE8F083049818B902F0D7FC61
:101F60000020F6E7B8F1000F04D1684601F0E6FA68
:101F70004FF0010802F0CBFC00F064FD02F0A4FC7D
:101F800094F94400401C10B9002084F8440094F9EE
:101F90004500401C10B9002084F8450002F0B7FC51
:101FA00004A9684601F0D1FAF0B92046FFF77BFC9E
:101FB000A0B104F12400049901F0B1F92046FFF723
:101FC000D7FA00F094FC0028A0D14FF080507E4951
:101FD0000860BFF34F8FBFF36F8F97E72046FFF77F
:101FE000C7FA00F084FC91E72046FFF7C1FA00F041
:101FF0007EFC2046FFF757FC002887D00020A8E78A
:102000002DE9F05F06468946174634463CB940F252
:10201000DC62AFF65C11AFF64C1002F025FEB9F1B0
:10202000000F01D1206C08B9012000E0002038B970
:1020300040F2DD62AFF68011AFF6701002F014FED0
:1020400002F095FC00BF5021EFF3118081F311885D
:10205000BFF34F8FBFF36F8F00BF0546D4F838A092
:10206000BAF1000F22D094F944B049462046FFF758
:102070005DFEAAF10100A0630BF1010070B92069B7
:1020800008B9012000E0002068B904F1100001F057
:10209000A4F940B13FB10120386004E00BF1010028
:1020A00040B284F844004FF0010801E04FF000080E
:1020B00000BF85F3118800BF4046BDE8F09F2DE9C1
:1020C000F0470646884634463CB94FF4E762AFF61F
:1020D0001821AFF6082002F0C7FDB8F1000F01D1BA
:1020E000206C08B9012000E0002038B940F23972B4
:1020F000AFF63C21AFF62C2002F0B6FD206C08B103
:10210000012000E0002038B940F23A72AFF65821C1
:10211000AFF6482002F0A8FD02F029FC00BF5021D4
:10212000EFF3118081F31188BFF34F8FBFF36F8FEF
:1021300000BF0546A06B48B1D4F80C90414620463C
:10214000FFF7F4FDC4F80C90012700E0002700BF62
:1021500085F3118800BF3846BDE8F08770B50446A6
:102160003CB940F26B72AFF6B021AFF6A02002F09E
:102170007BFD02F0A9FBA56B02F0C9FB284670BDF0
:1021800070B5044625463DB940F27D72AFF6D821C0
:10219000AFF6C82002F068FD02F096FBD5E90E10FC
:1021A000461A02F0B4FB304670BD70B504463CB927
:1021B00040F28D72AFF60031AFF6F02002F054FD20
:1021C000A56B284670BD000004ED00E0014600202C
:1021D0000EE0774A02EBC00252688A4207D1002221
:1021E000734B43F8302003EBC0035A6002E0401CFD
:1021F0000828EED300BF704770B5044625463DB9A8
:1022000040F29972AFF65031AFF6403002F02CFD3B
:102210002846FFF7DBFF95F8460010B9284602F084
:1022200025FA70BD0146C86C7047C164704701460D
:1022300091F85000704770B505463DB940F6EA0286
:10224000AFF68C31AFF67C3002F00EFDA86B08B90A
:10225000012400E00024204670BD70B504463CB95E
:1022600040F61112AFF6B031AFF6A03002F0FCFC30
:10227000A06BE16B884201D1012500E000252846D2
:1022800070BD024600200BE0494B53F8303033B9A3
:10229000474B43F8301003EBC0035A6002E0401C88
:1022A0000828F1D300BF70470246002000210AE051
:1022B0003F4B03EBC1035B68934203D13C4B53F8A4
:1022C000310002E0491C0829F2D300BF70472DE914
:1022D000F04105460E4617462C4602F0F5FA94F9F1
:1022E0004400401C10B9002084F8440094F94500D3
:1022F000401C10B9002084F8450002F008FBA06BD8
:1023000028B93A46314604F1240001F04BF8204642
:10231000FFF72EF9BDE8F08170B5044600220421D4
:102320002046FFF77FF80546284670BD70B5044685
:102330000E4602F0C9FAA06C08B1002505E0A06BBA
:1023400008B1002501E0A664012502F0E0FA284664
:1023500070BD2DE9F04105460F462E46B06CB842DF
:1023600001D000240AE0B06B08B1002406E002F0BE
:10237000ABFA0020B06402F0CAFA01242046BDE89E
:10238000F08138B505460C4600200090224669468B
:102390002846FFF7E0FC009838BD38B50446002019
:1023A0000090002269462046FFF72AFE009838BDBB
:1023B000980E002010B5002407E004EB8401FE4ACB
:1023C00002EB8100FEF734FF641C202CF5D3FB48A0
:1023D000FEF72EFFFA48FEF72BFFFA48FEF728FF1C
:1023E000F948FEF725FFF948FEF722FFF348F849C0
:1023F0000860F348F749086010BD10B5044602F0C4
:1024000063FAF5480068401CF3490860F348006827
:1024100040B9F24804600846006801280DD1FFF772
:10242000C9FF0AE0EE48006838B9EC480068C06AA5
:10243000E16A884201D8E9480460EA480068401C23
:10244000E849086008460068606494F82C10012090
:102450008840E54909680843E3490860E16A01EBFF
:102460008101D54A02EB8100211DFEF7F1FE02F049
:102470004EFADB48006868B1D8480068C06AE16A73
:10248000884207D24FF08050D8490860BFF34F8F81
:10249000BFF36F8F10BD2DE9F05F82460F46904667
:1024A0009B460A9E0C9C4FEA8801A522206B02F0F5
:1024B0001DFDA8F10100216B01EB800929F007093E
:1024C00009F0070008B9012000E0002028B940F217
:1024D0006332C7A1CBA002F0C7FB002507E0795DFE
:1024E00004F134004155785D00B902E06D1C102DF7
:1024F000F5D300BF002143200155202E00D31F2615
:10250000E662E66400202065201DFEF79EFE04F1D1
:102510001800FEF79AFE2461C6F12000A0616462F3
:102520000020606584F858005A465146484602F03B
:1025300021F920600B9808B10B980460BDE8F09F6A
:102540002DE9F04F85B00746884691469A46DDE969
:102550000EB6109C0EB1012000E0002028B94FF407
:102560001472A3A1A7A002F07FFB0CB1012000E030
:10257000002028B940F251229DA1A2A002F074FBD4
:102580005C20039003985C2801D1012000E000202A
:1025900028B940F2592296A19AA002F065FBACB18D
:1025A000A6B125462E63022085F85900002004A913
:1025B00053464A46CDE900B1CDE90250414638467E
:1025C000FFF769FF2846FFF718FF01E0002004909D
:1025D000049805B0BDE8F08F2DE9FF4F85B0804627
:1025E00089461746DDE912ABB80001F0BCFF06468C
:1025F00056B15C2001F0B7FF04460CB1266304E03D
:10260000304602F033F800E000248CB1002084F85A
:102610005900CDE900ABCDE902403A464946404673
:10262000089BFFF738FF2046FFF7E7FE012501E092
:102630004FF0FF35284609B0BDE8F08F64490968BE
:10264000096809B9012100E0002121B14FF0FF31F3
:10265000704A116006E05E490968C968C8686D4A39
:1026600041681160704710B5044694F8590030B9BC
:10267000206B01F0FBFF204601F0F8FF15E094F815
:102680005900012803D1204601F0F0FF0DE094F835
:102690005900022801D1012000E0002028B940F6AD
:1026A000886253A157A002F0DFFA10BD70B505464D
:1026B00002F00AF915B94948006800E028460446C6
:1026C000201DFEF7EBFD78B9E06A00EB80003A4987
:1026D00051F8200040B994F82C100120884042495C
:1026E0000968814340480160A06A18B104F11800EC
:1026F000FEF7D4FD3B480068401C3A490860374863
:102700000068844209D1211D2F48FEF7A1FD4248EF
:102710000068401C4049086009E02F480068401EDE
:102720002D4908602046FFF79EFFFFF787FF02F064
:10273000EEF82B480068C0B128480068844214D1E4
:102740003648006808B9012000E0002028B940F2AE
:10275000A54227A12BA002F087FA4FF08050234911
:102760000860BFF34F8FBFF36F8F70BD2DE9F0414D
:102770004FF000082948006800286ED128480068FA
:10278000451C27480560ADB911480068006808B9C4
:10279000012000E0002028B940F6332214A119A03E
:1027A00002F062FA0A4807680A48006808490860A7
:1027B000084837E03FE00000D80E00205811002004
:1027C0006C1100208011002094110020A81100201D
:1027D000380000203C00002044000020340000208D
:1027E00050000020600000204C00002004ED00E0BC
:1027F0002E2E5C4672656552544F535C7461736B48
:10280000732E63004572726F723A25732C25640D26
:102810000A00000064000020400000206C0000203E
:10282000480000200760F7480068401CF549086030
:10283000FFF704FF00BFF448006885423DD300BFA6
:10284000F2480068006808B9012000E0002028B1C3
:102850004FF0FF30EC4908602EE03BE0EB480068A9
:10286000C068C4686668B54202D2E748066023E0E3
:10287000201DFEF713FDA06A18B104F11800FEF741
:102880000DFD94F82C1001208840E14909680843A7
:10289000DF490860E16A01EB8101DE4A02EB810059
:1028A000211DFEF7D5FCDC49E06A0968C96A884247
:1028B000C6D34FF00108C3E700BFD7480068C06A1D
:1028C00000EB8000D34951F82000012801D94FF0D6
:1028D000010804E0D1480068401CD0490860D04895
:1028E000006808B14FF001084046BDE8F08170B5BE
:1028F00000240026CB48006838B94FF40462AFF2D8
:102900001011AFF2001002F0AFF901F0DDFFC54881
:102910000068401EC34908600846006800284FD17F
:10292000C148006800284BD024E0C048C068C46893
:1029300004F11800FEF7B2FC201DFEF7AFFC94F87E
:102940002C1001208840B24909680843B04908604A
:10295000E16A01EB8101AF4A02EB8100211DFEF724
:1029600077FCAD49E06A0968C96A884202D3012050
:10297000AB490860AD48006808B9012000E00020BC
:102980000028D2D00CB1FFF759FEA448056865B104
:1029900000BFFFF7EBFE10B10120A14908606D1EDA
:1029A000002DF6D100209D4908609D48006838B18F
:1029B000012630079E490860BFF34F8FBFF36F8F2A
:1029C00001F0A5FF304670BD2DE9F04105460E46E9
:1029D0009848076890480068001DFEF75FFC50B9F2
:1029E0008D48006890F82C100120884088490968BB
:1029F000814387480160681C38B936B18648016850
:102A0000091D8D48FEF724FC1AE07C1982480068F5
:102A10004460BC4207D280480168091D87480068AD
:102A2000FEF722FC0CE07C480168091D774800682D
:102A3000FEF71AFC74480068844201D272480460B0
:102A4000BDE8F08177480068401C7649086070470F
:102A50002DE9F04704460F464FF000093CB940F21B
:102A6000B942AFF27421AFF2642002F0FDF80FB169
:102A7000012000E0002038B940F2BA42AFF29021C4
:102A8000AFF2802002F0F0F86648006808B9012033
:102A900000E0002038B940F2BB42AFF2AC21AFF207
:102AA0009C2002F0E1F8FFF7CDFF6248066820683D
:102AB000C5192068B04207D92068A8420BD9B54291
:102AC00009D94FF0010906E02068A84201D8B542B3
:102AD00001D94FF001092560B9F1000F03D0A81BFF
:102AE0000021FFF771FFFFF702FF8046B8F1000FEA
:102AF00007D14FF080504E490860BFF34F8FBFF3AE
:102B00006F8FBDE8F08770B504460025BCB145481D
:102B1000006808B9012000E0002038B940F20F52E7
:102B2000AFF23431AFF2243002F09EF8FFF78AFFA3
:102B300000212046FFF748FFFFF7D9FE05463DB9C3
:102B40004FF080503A490860BFF34F8FBFF36F8F4B
:102B500070BD2DE9F04107463E463EB940F23B527A
:102B6000AFF27431AFF2643002F07EF82A480068A8
:102B7000864201D100241EE001F0A6FE756901F035
:102B8000C6FE22480068854203D02C480068854272
:102B900001D102240FE02848854205D1B06A08B966
:102BA000032408E0022406E02548854200D00DB940
:102BB000042400E001242046BDE8F08170B50446FD
:102BC00001F082FE14B91448006800E02046064671
:102BD000F56A01F09CFE284670BD2DE9F0410546DE
:102BE00001F0C5FE00BF5021EFF3118081F3118881
:102BF000BFF34F8FBFF36F8F00BF044615BB06486E
:102C0000006820E05C000020640000203800002004
:102C10004C000020D80E002034000020540000207A
:102C2000580000206C00002044000020801100208B
:102C300004ED00E048000020A81100203C00002026
:102C40009411002028460746FE6A00BF84F31188CD
:102C500000BF3046BDE8F0812DE9F04780460D46C3
:102C60004FF00009202D01D2012000E0002038B9EA
:102C70004FF4B862AFF28841AFF2784001F0F4FF50
:102C8000202D00D31F2501F01FFEB8F1000F02D147
:102C9000FD48006800E040460446E66CAE4256D06F
:102CA000B5420BD9F848006884420DD0F648006858
:102CB000C06AA84208D84FF0010905E0F248006850
:102CC000844201D14FF00109E76AE16AE06C884271
:102CD00000D1E562E564A06900F0004010B9C5F1DB
:102CE0002000A06107EB8701E84A02EB81016069DF
:102CF000884201D1012000E00020E0B1201DFEF754
:102D0000CDFA30B90120B840E14909688143E04873
:102D1000016094F82C1001208840DD4909680843BF
:102D2000DB490860E16A01EB8101D84A02EB8100CE
:102D3000211DFEF78DFAB9F1000F07D04FF080503A
:102D4000D4490860BFF34F8FBFF36F8F00BF01F00E
:102D5000DEFDBDE8F08710B5CF48006818B101204E
:102D6000CE4908602FE00020CC490860C8480068C0
:102D7000B0FA80F0C0F11F0404EB8400C34951F89D
:102D8000200008B1012000E0002038B94FF435627E
:102D9000AFF2A451AFF2945001F066FF04EB84014E
:102DA000BA4A02EB810041684968416000F10801BC
:102DB00042688A4202D14168496841604168C968F5
:102DC000B14A116000BF10BD70B5054601F07CFD31
:102DD00015B9AD48006800E028460446201DFEF7FE
:102DE0005DFA78B9E06A00EB8000A84951F820004C
:102DF00040B994F82C1001208840A5490968814306
:102E0000A3480160A06A18B104F11800FEF746FA61
:102E1000211DA348FEF71CFA94F85800012802D19E
:102E2000002084F8580001F072FD9E48006828B127
:102E300001F04AFDFFF702FC01F069FD92480068CD
:102E4000844226D197480068B8B19348006808B911
:102E5000012000E0002038B940F2A262AFF27061B8
:102E6000AFF2606001F000FF4FF0805089490860C8
:102E7000BFF34F8FBFF36F8F0BE0894800688A491B
:102E80000968884203D100207F49086001E0FFF70C
:102E900062FF70BD70B5054600262C463DB940F274
:102EA000CC62AFF2B461AFF2A46001F0DDFE7C4908
:102EB0006069884201D1012000E0002070B17B49A7
:102EC000A06A884201D1012000E0002030B9A06A48
:102ED00008B9012000E0002000B10126304670BD95
:102EE00070B505462C463DB940F2F662AFF200716E
:102EF000AFF2F06001F0B8FE74B36348006884423A
:102F00002AD001F0E1FC2046FFF7C4FF10B3201DDA
:102F1000FEF7C4F994F82C10012088405C49096838
:102F200008435B490860E16A01EB8101574A02EB03
:102F30008100211DFEF78CF95349E06A0968C96ACE
:102F4000884207D34FF0805052490860BFF34F8F3B
:102F5000BFF36F8F01F0DBFC70BD2DE9F041064639
:102F6000002734463EB940F22D72AFF27C71AFF2C9
:102F70006C7001F079FE01F0FAFC00BF5021EFF314
:102F8000118081F31188BFF34F8FBFF36F8F00BFA4
:102F900005462046FFF77EFF20B33F480068E0B9B2
:102FA0003949E06A0968C96A884200D30127201DAF
:102FB000FEF774F994F82C10012088403449096810
:102FC000084333490860E16A01EB81012F4A02EBB3
:102FD0008100211DFEF73CF904E004F1180133489B
:102FE000FEF736F900BF85F3118800BF3846BDE80B
:102FF000F08110B516E001F067FC2D48C068C46888
:10300000201DFEF74BF928480068401E264908603D
:1030100028480068401E2749086001F078FC2046D7
:10302000FFF721FB234800680028E4D110BD00BF52
:10303000FFF7DFFF154800680128F9D94FF08050ED
:1030400014490860BFF34F8FBFF36F8FF0E710B5DF
:1030500086B000200590049003AA04A905A8FDF7F6
:1030600016F90022DDE904101346CDE90021029093
:1030700011A11348039AFFF763FA12490860084642
:10308000006808B3012420E034000020D80E00209E
:103090004C00002004ED00E06C00002058000020EF
:1030A000A8110020500000204400002080110020C2
:1030B000941100204000002049444C4500000000CD
:1030C0002F300008680000200024012C02D101F0FC
:1030D00058F80446012C15D100BF502080F3118808
:1030E000BFF34F8FBFF36F8F00BF4FF0FF30FA4930
:1030F00008600120F94908600020F949086001F0E2
:103100005AFB0DE0601C08B1012000E0002038B936
:1031100040F2DC72AFF62811AFF6181001F0A4FDF2
:1031200006B010BD10B500BF502080F31188BFF36A
:103130004F8FBFF36F8F00BF0020E849086001F098
:10314000B2FB10BDE6490868704770B501F00FFC8E
:103150000025E3480468204670BDE24800687047D7
:1031600070B5044614B9E048006800E02046054602
:103170003DB940F6E402AFF68811AFF6781001F0E1
:1031800073FD05F1340070BD0246002101E0521CC0
:10319000491C1078A528FAD0890888B270472DE913
:1031A000F04107460C4690461E4617B9CE480068C7
:1031B00000E038460546256005F134006060E86AA5
:1031C0002061286BE061686CA060E86C60610020A1
:1031D000A061052E12D0C4480068854202D10020AB
:1031E00020730FE02673032E0CD1FFF72BFCA86A87
:1031F00008B102202073FFF77AFB03E02846FFF7AF
:10320000A8FC2073B8F1000F04D0286BFFF7BCFFB7
:10321000208401E000202084BDE8F0812DE9F04702
:1032200007460C4690460026206848B32046416871
:103230004968416000F1080142688A4202D1416850
:10324000496841604168D1F80C9000BF2046416850
:103250004968416000F1080142688A4202D1416830
:10326000496841604168CD6806EBC60007EB800104
:10327000434601222846FFF792FF761C4D45E5D1D3
:103280003046BDE8F0872DE9F041054688461646F0
:1032900000242027FFF7D6FB92480068804539D3E9
:1032A00000BF7F1E07EB8702904B03EB820104EB0C
:1032B000C40205EB82000122FFF7B0FF0444002F97
:1032C000EFD104EBC40105EB8100022288490968B3
:1032D000FFF7A4FF044404EBC40105EB81000222C4
:1032E00084490968FFF79AFF044404EBC40105EB25
:1032F000810004228049FFF791FF044404EBC401DC
:1033000005EB810003227D49FFF788FF04440EB1DD
:1033100000203060FFF7EBFA2046BDE8F08170B581
:1033200004460D463CB94FF43662AFF63C31AFF679
:103330002C3001F099FC6C48016818312046FDF7EB
:1033400093FF01212846FFF73FFB70BD70B504468F
:103350000D4616463CB940F67132AFF66C31AFF609
:103360005C3001F081FC6648006808B1012000E093
:10337000002038B940F67532AFF68C31AFF67C30AC
:1033800001F072FC45F000405749096888615648D1
:10339000016818312046FDF75BFF01213046FFF739
:1033A00013FB70BD70B505460E4614463DB940F698
:1033B0008B32AFF6C431AFF6B43001F055FC4A4859
:1033C000016818312846FDF743FF0CB14FF0FF3676
:1033D00021463046FFF7F8FA70BD70B50646F06832
:1033E000C4683CB940F6BB32AFF6FC31AFF6EC3006
:1033F00001F03AFC04F11800FDF750FF4048006866
:10340000A8B9201DFDF74AFF94F82C100120884030
:103410003C49096808433B490860E16A01EB8101C6
:10342000324A02EB8100211DFDF712FF04E004F196
:1034300018013548FDF70CFF2B49E06A0968C96A95
:10344000884204D9012501203049086000E00025A8
:10345000284670BD70B505460E462948006808B17B
:10346000012000E0002038B940F6F232AFF680418A
:10347000AFF6704001F0F8FB46F000402860EC68C1
:103480003CB940F6FA32AFF69841AFF6884001F009
:10349000EBFB2846FDF702FF201DFDF7FFFE94F829
:1034A0002C10012088401749096808431549086015
:1034B000E16A01EB81010D4A02EB8100211DFDF75C
:1034C000C7FE0949E06A0968C96A884202D9012031
:1034D0000E49086070BD000064000020500000200C
:1034E000480000204400002034000020D80E0020B6
:1034F000380000203C00002094110020A81100207A
:103500006C0000204C00002080110020580000209A
:1035100010B504463CB94FF44162AFF62C51AFF6FA
:103520001C5001F0A1FB01F0CFF9FE4800682060BB
:10353000FD480068606001F0EAF910BDF9490968CA
:103540000160F94909684160704770B505460C464D
:103550003DB940F62642AFF66851AFF6585001F03B
:1035600083FB3CB940F62742AFF67C51AFF66C5076
:1035700001F07AFB01F0A8F9EB4802686868131AB9
:103580002068401C08B9002617E0E6492868096849
:10359000884204D06868904201D801260DE0206876
:1035A000984207D92068C01A20602846FFF7C6FF56
:1035B000002602E000202060012601F0A8F9304634
:1035C00070BD0120D94908607047014611B10A4613
:1035D000906C00E00020704708B10246916470478B
:1035E000D34908687047D349096809B9012005E043
:1035F000D149096809B9022000E00020704770B580
:1036000005462C460026002D54D0C949E06A0968B9
:10361000C96A884247D2A06900F0004028B9C4486E
:103620000068C06AC0F12000A061E16A01EB81017D
:10363000C24A02EB81016069884201D1012000E0A9
:10364000002050B3201DFDF729FE78B9E06A00EB99
:103650008000BA4951F8200040B994F82C1001209C
:103660008840B74909688143B5480160B04800689F
:10367000C06AE06294F82C1001208840B0490968C3
:103680000843AF490860E16A01EB8101AB4A02EBF4
:103690008100211DFDF7DCFD03E0A5480068C06A3C
:1036A000E062012606E0A249E06C0968C96A884226
:1036B00000D20126304670BD70B505462C46002666
:1036C000002D4FD09A480068844201D1012000E0CB
:1036D000002038B940F63B72AFF6EC61AFF6DC6023
:1036E00001F0C2FA206D38B940F63C72AFF60071B5
:1036F000AFF6F06001F0B8FA206D401E2065E16C75
:10370000E06A88422ED0206D60BB201DFDF7C6FD0B
:1037100078B9E06A00EB8000884951F8200040B990
:1037200094F82C1001208840854909688143844819
:103730000160E06CE062E06AC0F12000A06194F8F2
:103740002C10012088407E49096808437C490860A4
:10375000E16A01EB8101794A02EB8100211DFDF74D
:1037600077FD0126304670BD2DE9F04706460F462D
:1037700034464FF00109002E61D0206D38B940F673
:103780008A72AFF69471AFF6847001F06DFAE06C56
:10379000B84201D23D4600E0E56CE06AA8424ED056
:1037A000206D01284BD162480068844201D001207D
:1037B00000E0002038B940F6A572AFF6CC71AFF644
:1037C000BC7001F051FAD4F82C80E562A06900F0D9
:1037D000004010B9C5F12000A06108EB8801574AEC
:1037E00002EB81016069884201D1012000E00020E4
:1037F00028B3201DFDF752FD78B9E06A00EB800088
:103800004E4951F8200040B994F82C10012088400E
:103810004B49096881434A48016094F82C10012003
:10382000884047490968084345490860E16A01EB57
:103830008101424A02EB8100211DFDF709FDBDE82F
:10384000F08770B505460E463146284601F0C6FAA7
:10385000284601F0E7FA044602E020202855641CBF
:103860000F2CFAD300202855281970BD7FB50546C6
:10387000002028703348006803903249096801EB42
:10388000C101880000F06FFE0446002C6ED00022BB
:1038900020460399FFF7F7FC0390002002905EE0BA
:1038A000029800EBC00004EB8000007B05280ED2DC
:1038B000DFE800F0030507090B00582609E052264F
:1038C00007E0422605E0532603E0442601E00026F7
:1038D00000BF00BF029800EBC00004EB800041680D
:1038E0002846FFF7AEFF0546029800EBC00004EB48
:1038F00080008068029901EBC10104EB8101098C11
:10390000CDE90010029800EBC00004EB80003246C5
:103910000DA10369284601F0B3F9284601F082FAA7
:10392000054419E05C0000204800002058000020F9
:1039300034000020500000206C000020D80E002031
:103940004C00002044000020092563092575092545
:10395000750925750D0A00000298401C0290DDE9EA
:10396000020188429CD3204600F080FE7FBDF949C9
:1039700009688869F7490968C96AC1F12001F54AEF
:10398000126891617047F348006830B1F1490968E5
:1039900001F15000096D491C0160EE480068704754
:1039A00070B506460D4600F08FFFEA480068406D8E
:1039B00088B90120E749096881F858005DB1012103
:1039C0002846FFF701F84FF08050E3490860BFF345
:1039D0004F8FBFF36F8F00F09AFF00F075FFDD4847
:1039E0000068446D4CB126B10020DA490968486589
:1039F00003E0601ED749096848650020D549096879
:103A000081F8580000F083FF204670BD2DE9F04199
:103A10000746884614461D4600F056FFCD4800680C
:103A200090F85800022818D0CA49096801F15400DA
:103A3000496DB94301600120C649096881F8580001
:103A40005DB101212846FEF7BFFF4FF08050C2490B
:103A50000860BFF34F8FBFF36F8F00F058FF00F087
:103A600033FF1CB1BB480068406D2060B948006856
:103A700090F85800022801D0002608E0B5490968EE
:103A800001F15400496D21EA08010160012600207E
:103A9000B049096881F8580000F039FF3046BDE8A8
:103AA000F0812DE9F04706460D46174698464FF03F
:103AB000010A36B941F2D912A84901F1140001F006
:103AC000D3F8344600F000FFB8F1000F02D0606D6B
:103AD000C8F8000094F85890022084F85800052F88
:103AE00017D2DFE807F01503070B0D00606D2843C0
:103AF00060650EE0606D401C60650AE0656508E089
:103B0000B9F1020F01D0656501E04FF0000A00E055
:103B100000BF00BFB9F1010F2FD1201DFDF7BEFB83
:103B200094F82C10012088408D49096808438C497D
:103B30000860E16A01EB81018A4A02EB8100211DE4
:103B4000FDF786FBA06A08B9012000E0002030B92B
:103B500041F21122814901F1140001F085F87D49FB
:103B6000E06A0968C96A884207D94FF080507A49EB
:103B70000860BFF34F8FBFF36F8F00F0C8FE504651
:103B8000BDE8F0872DE9F84F07460E469046994666
:103B9000DDF828B00120009037B941F244226F4986
:103BA00001F1140001F060F800F0E1FE3C4600BFB6
:103BB0005021EFF3118081F31188BFF34F8FBFF3D2
:103BC0006F8F00BF0546B9F1000F02D0606DC9F8D4
:103BD000000094F858A0022084F85800B8F1050FAE
:103BE00017D2DFE808F01503070B0D00606D3043B6
:103BF00060650EE0606D401C60650AE0666508E087
:103C0000BAF1020F01D0666501E00020009000E0EB
:103C100000BF00BFBAF1010F3AD1A06A08B9012074
:103C200000E0002030B941F28B224C4901F1140030
:103C300001F01AF84C480068A8B9201DFDF72EFBCA
:103C400094F82C10012088404549096808434449EC
:103C50000860E16A01EB8101424A02EB8100211D0B
:103C6000FDF7F6FA04E004F118014048FDF7F0FA18
:103C70003849E06A0968C96A884209D9BBF1000F6E
:103C800003D00120CBF8000002E001203849086091
:103C900000BF85F3118800BF0098BDE8F88F2DE9BB
:103CA000F04105460F4635B941F2BF222B4901F1DB
:103CB000140000F0D9FF00F05AFE2C4600BF50213E
:103CC000EFF3118081F31188BFF34F8FBFF36F8F34
:103CD00000BF064694F85880022084F85800606DB2
:103CE000401C6065B8F1010F47D1A06A08B90120F6
:103CF00000E0002030B941F2E522184901F114003A
:103D000000F0B2FF18480068A8B9201DFDF7C6FAF8
:103D100094F82C1001208840114909680843104983
:103D20000860E16A01EB81010E4A02EB8100211D6E
:103D3000FDF78EFA04E004F118010C48FDF788FA4B
:103D40000449E06A0968C96A884216D997B1012016
:103D5000386012E03400002004ED00E0F027000895
:103D60004C000020D80E00206C00002080110020A4
:103D70005800002001201049086000BF86F3118818
:103D800000BFBDE8F08170B5054615B90B48006865
:103D900000E02846064600F097FD96F858000228F5
:103DA00004D1002086F85800012400E0002400F02F
:103DB000AEFD204670BD00005800002034000020F9
:103DC0002DE9F04104460D4616461F464FF0000807
:103DD00065602461B5420CD8F01BA169884202D30A
:103DE0004FF0010811E0211DFC480068FDF73CFA86
:103DF0000BE0BE4204D2BD4202D34FF0010804E002
:103E0000211DF7480068FDF72FFA4046BDE8F08114
:103E10002DE9FF4704460D4616461F46DDF8308063
:103E20004FF000092CB94FF4C172EEA1F3A000F0DD
:103E30001BFFF648006810B3009501960294062D0A
:103E400015DAFFF7D0FB022808D100234246694665
:103E5000EE480068FDF7E4FB814610E000231A46B7
:103E60006946EA480068FDF7DBFB814607E000236E
:103E70003A466946E5480068FDF76BFE81464846CC
:103E800004B0BDE8F0872DE9F8432DE0D448006880
:103E9000C0680568D2480068C068C468201DFDF786
:103EA000FDF92046616A8847E06901281CD1A069B4
:103EB0004619AE4207D966602461211DC8480068D2
:103EC000FDF7D2F910E0002003462A460146009093
:103ED0002046FFF79DFF07462FB940F26E32C1A181
:103EE000C6A000F0C1FE00BFBD480068006808B968
:103EF000012000E000200028C8D0B948D0F8008098
:103F0000B6480068B6490860B448C0F80080BDE80B
:103F1000F88370B50446FFF715F90546BC480068FC
:103F2000854204D2FFF7AFFF0120206001E00020AE
:103F30002060B7480560284670BDF0B587B073E0D3
:103F4000039800280CDA04AE2EB940F2C322A5A1D2
:103F5000AAA000F089FED6E90020B168904700BF12
:103F60000398002860DB059C606908B9012000E027
:103F7000002010B9201DFDF791F902A8FFF7C9FF35
:103F8000054603980A284DD2DFE800F00905072C02
:103F90002E4506082D2F00BF00BF00BF00BF0498AC
:103FA000A269811803462A462046FFF709FFC0B1DF
:103FB0002046616A8847E069012812D100200090FC
:103FC0000498A1694218002319462046FFF720FFF4
:103FD00007462FB940F2FD2282A188A000F044FEDE
:103FE00000BF20E000BF1EE000BF0498A061A069F0
:103FF00008B1012000E0002028B94FF4457279A1F2
:104000007EA000F031FEA06941192B462A462046C9
:10401000FFF7D6FE07E094F82C0010B9204600F018
:1040200025FB00E000BF00BF002203A9774800681D
:10403000FDF791FE002883D107B0F0BDF8B5054625
:104040000F4667480068C068C468201DFDF726F960
:10405000E069012818D1A06941192B463A4620464B
:10406000FFF7AEFE80B1002003462A4601460090CD
:104070002046FFF7CDFE06462EB94FF4F27259A145
:104080005EA000F0F1FD00BF2046616A8847F8BDE0
:10409000F8B505460C46FEF7D5FC6846FFF739FF34
:1040A0000646009820BB44B9B54206D8FEF71FFC6F
:1040B00031462846FFF7C2FF1CE03CB14748006884
:1040C000006808B9012000E000200446A91B224630
:1040D0004E480068FEF7FBF8FEF709FC50B94FF0B8
:1040E00080504C490860BFF34F8FBFF36F8F01E0E2
:1040F000FEF7FDFBF8BD0146394A126812680AB99D
:10410000012200E000220A600A6822B9344A1268DB
:10411000D268106800E00020704708B500BF68460C
:10412000FFF7E9FF044620460099FFF7B1FFFFF7CC
:1041300004FFF4E708B500F0C7FB34480068E8B9AD
:104140003548FDF775F83548FDF772F832482449CF
:1041500008603248214908600020314B314A102163
:1041600000900520FDF708F9284908600846006816
:1041700020B12DA125480068FEF783F800F0C7FBA9
:1041800008BD10B586B00024FFF7D4FF1F480068B3
:10419000D0B100200590049003AA04A905A8FCF75B
:1041A0006FF81F22DDE904100023CDE90021029001
:1041B0001FA12148039AFEF7C3F920490860084669
:1041C000006800B1012400BF2CB940F20F1205A114
:1041D0000AA000F049FD204606B010BD7400002082
:1041E000700000202E2E5C4672656552544F535C61
:1041F00074696D6572732E63000000004572726F02
:10420000723A25732C25640D0A0000007800002006
:104210008000002004ED00E0BC110020D01100203F
:10422000E411002038120020546D7251000000008B
:10423000546D7220537663001B4100087C000020FF
:104240002DE9F04706460D4617469846DDE90894E5
:104250000DB1012000E0002038B94FF4B472AFF284
:104260007C01AFF2680000F0FFFC5CB1FFF762FF79
:104270002660A561E761C4F82080C4F82490201D61
:10428000FCF7E3FFBDE8F0872DE9FC4705460E4645
:1042900017469846DDF82890302000F064F904466F
:1042A00054B143463A4631462846CDE90094FFF7DB
:1042B000C7FF002084F82C002046BDE8FC872DE9CC
:1042C000FC4706460F4690469946DDE90AA5302090
:1042D00001900198302801D1012000E0002038B978
:1042E00040F24512AFF20411AFF2F00000F0BCFC56
:1042F0003DB94FF4A572AFF21411AFF2001000F007
:10430000B3FC2C4654B14B46424639463046CDE9C3
:1043100000A4FFF795FF012084F82C002046BDE89B
:10432000FC8710B55D48006808B1012000E000205E
:1043300038B94FF4D672AFF25411AFF2401000F01A
:1043400093FC5648006810BD70B5044625463CB93C
:1043500040F2B512AFF27411AFF2601000F084FCBD
:10436000A86970BD70B5044625463CB940F2BF123D
:10437000AFF29011AFF27C1000F076FC6E68304620
:1043800070BD70B5044625463CB940F2C912AFF283
:10439000AC11AFF2981000F067FC286870BD70B5E2
:1043A000044626463CB940F2B632AFF2C811AFF22D
:1043B000B41000F059FC00F087FA706908B90120C8
:1043C00000E0002080F0010500F0A1FA284670BD51
:1043D00070B5044626463CB940F2CB32AFF2FC1130
:1043E000AFF2E81000F040FC00F06EFA356A00F021
:1043F0008EFA284670BD70B504460D4626463CB977
:1044000040F2DB32AFF22421AFF2102000F02CFC9E
:1044100000F05AFA356200F07AFA70BD2DE9FF41DA
:1044200004460D4616461F466FF0010000900194A9
:104430000295039600233A46694619480068FDF73D
:1044400088FB8046404604B0BDE8F0812DE9FF417D
:1044500004460D4616461F461148006838B940F21A
:104460000742AFF28021AFF26C2000F0FDFB4FF06D
:10447000FF30009001940295039600233A46694666
:1044800007480068FDF7CCF88046404604B0BDE818
:10449000F0810146886A7047816270477C00002085
:1044A0007800002010B50146924800E000680368DB
:1044B0008B42FBD30246436813448B4204D14368CA
:1044C0004C682344436001460A464B681344046821
:1044D000A34211D1884C03682468A34208D04B68DA
:1044E0000468646823444B6003681B680B6005E044
:1044F000814B1B680B6001E003680B60884200D0B1
:10450000016010BD30B54FF4A0437C4800F00704B3
:104510002CB1C01D20F00700784C041B1B1B024669
:10452000744C22600024734D6C60D018083820F061
:104530000700714C206000246F4D2D686C606E4D3B
:104540002D682C601146441A4C606B4C24680C603A
:104550006B4D4C682C606B4D4C682C604FF00044E8
:10456000694D2C6030BD2DE9F04104464FF0000844
:10457000FEF768FA6048006808B9FFF7C3FF6248B1
:104580000068204000285FD1A4B1083404F007007F
:1045900080B104F00700C0F10800044404F00700F3
:1045A00008B9012000E0002020B9952257A161A0A0
:1045B00000F05AFB002C47D052480068844243D890
:1045C0004C4E3046056801E02E462D686868A042D2
:1045D00002D228680028F7D147480068854233D0C6
:1045E000306800F10808286830606868001B1028EF
:1045F00013D92F1907F0070008B9012000E00020A7
:1046000020B9C22241A14BA000F02EFB6868001B1C
:1046100078606C603846FFF745FF3A49686809687A
:10462000081A384908600846006835490968884210
:1046300003D2344800683249086033496868096821
:104640000843686000202860FEF751F908F0070071
:1046500008B9012000E0002028B94FF481722BA195
:1046600034A000F001FB4046BDE8F08170B506467D
:104670003546002E35D0083D2C4623496068096830
:10468000084008B1012000E0002028B94FF48B72E7
:104690001EA128A000F0E8FA206808B9012000E077
:1046A000002028B940F2171218A122A000F0DCFA6D
:1046B000154960680968084098B1206888B91249AE
:1046C0006068096888436060FEF7BCF90D4960685E
:1046D000096808440B4908602046FFF7E3FEFEF72F
:1046E00006F970BD074800687047054800687047C4
:1046F00070470000840000208C00002088120020F9
:104700009400002090000020980000202E2E5C468F
:1047100072656552544F535C706F727461626C6560
:104720005C4D656D4D616E675C686561705F342ED0
:10473000630000004572726F723A25732C25640D78
:104740000A000000A0480068401C08B9012000E0F1
:10475000002020B9CA229DA1A7A000F085FA00BFC1
:10476000502080F31188BFF34F8FBFF36F8F00BFCE
:1047700000BFFEE7001F4FF080730360001F21F0B1
:1047800001030360001FA04B03601438026020384F
:10479000704700204FF0E021086188619B48006865
:1047A0004FF47A71B0FBF1F0401E4FF0E021486108
:1047B0000720086170471CB5954C20460078019091
:1047C000FF20214608700846007800909DF8000000
:1047D00000F0F0009DF80010884201D1012000E0B7
:1047E000002028B94FF48A7278A183A000F03CFA27
:1047F0009DF8000000F050008649087007208649A7
:10480000086009E084480068401E834908609DF8FC
:1048100000004006000E00909DF8000000F08000AF
:104820008028EFD07C480068C0F10700042801D13F
:10483000012000E0002028B940F2271263A16EA0F9
:1048400000F012FA74480068C0F10700042801D192
:10485000012000E0002028B94FF498725BA166A007
:1048600000F002FA6C48006800026B4908600846D4
:10487000008800F4E06008606549019808706748A6
:10488000006840F47000654908600846006840F020
:1048900070400860FFF77DFF00204B490860FBF780
:1048A000B5FC00201CBD10B547480068B0F57A7F04
:1048B00001D1012000E0002028B94FF4AB7243A1E0
:1048C0004DA000F0D1F910BD10B500BF502080F30D
:1048D0001188BFF34F8FBFF36F8F00BF3A48006856
:1048E000401C394908600846006801280ED14B4831
:1048F0001C380068C0B208B9012000E0002028B9C7
:104900004FF4B37231A13CA000F0AEF910BD10B568
:104910002D48006828B940F26D122CA136A000F095
:10492000A3F929480068401E274908600846006826
:1049300020B9002080F3118800BF00BF10BD10B562
:1049400000BF502080F31188BFF34F8FBFF36F8FEC
:1049500000BFFDF70BFF20B14FF080502F491C39ED
:10496000086000BF002080F3118800BF10BD70B543
:10497000FBF782FC0546102D11D305F1E02090F8DD
:10498000F04324480078844201DB012000E000204D
:1049900028B940F2A5220DA117A000F065F91F4823
:1049A0001438006800F4E0601B490968884201D8A7
:1049B000012000E0002028B940F2B52203A10EA09A
:1049C00000F052F970BD00009C0000202E2E5C46C5
:1049D00072656552544F535C706F727461626C659E
:1049E0005C525644535C41524D5F434D335C706F93
:1049F00072742E63000000004572726F723A257364
:104A00002C25640D0A000000454700080C0000201A
:104A100000E400E0A0000020A400002020ED00E061
:104A200010B5FEF7E0FD012801D0FFF788FF10BDAB
:104A300010B50420FCF7DDFB364800683649B0FBB2
:104A4000F1F036490870334800683349B0FBF1F49F
:104A50004FF47A7044430120314908804FF0E02040
:104A6000006940F002004FF0E0210861084644610F
:104A7000006940F00100086110BD70B503460022D6
:104A80004FF0E0267569254E367803FB06F44FF0AB
:104A9000E026B16910E04FF0E026B06988420BD003
:104AA000884202D20E1A324402E02E1A0E443244D8
:104AB0000146A24200D300E0EDE700BF70BD70B533
:104AC0000446FEF790FD012810D015480088844266
:104AD00006D313480088B4FBF0F52846FEF713F818
:104AE0000F480088B4FBF0F100FB11444FF47A71D9
:104AF00004FB01F0FFF7C1FF70BD30B5044600258F
:104B000004E04FF47A70FFF7B8FF6D1CA542F8D3AC
:104B100030BD00000C00002040420F00A800002023
:104B2000AA00002000BF704700BF4A4A128802F066
:104B30004002002AF9D0C2B2464B1B1D1A807047B2
:104B400010B586B00446012144F20400FCF79AF83F
:104B50004FF40070ADF8140003208DF816001820F3
:104B60008DF8170005A93C48FBF7D0FD4FF4806095
:104B7000ADF8140004208DF8170005A93648FBF79E
:104B8000C5FD25208DF8000003208DF801008DF86B
:104B9000020001208DF803006846FCF7E0FA01945A
:104BA0000020ADF80800ADF80A00ADF80C00ADF833
:104BB00010000C20ADF80E0001A92648FCF709F9F9
:104BC000012240F225512348FCF79BF9012121489D
:104BD000FCF78BF906B010BD10B540F225511D4809
:104BE000FCF774FA10B31B48FCF7F0F9C4B21B4889
:104BF000008800F40040C8B91848008800F48040DC
:104C000060B10A2C03D000201449088020E013482A
:104C1000008840F400401149088019E00D2C06D1AD
:104C20000E48008840F480400C49088010E00B4892
:104C30000088C0F30D000A490C5408480088401C45
:104C40000649088008460088C72801DD0020088042
:104C500010BD00000038014000080140B0000020F5
:104C600088620020704700000FB4044910B503AA01
:104C7000029800F0D5F910BC5DF814FBAC000020E0
:104C80000FB41CB5074B06AA7B44694600900598F3
:104C900000F097F90020694600F0A6F91CBC5DF809
:104CA00014FB00005D0300002DE9F0410E460446B0
:104CB000002020622046E168884730B3252805D0CF
:104CC000D4E901219047206A401CF2E7E1682046C0
:104CD00000278847050018D0A5F14100192802D8FF
:104CE00020354FF400673246294620462760FBF7FF
:104CF00059FA40B1012804D0F61D26F007060836FF
:104D0000D8E7361DD6E72846DAE7206ABDE8F08105
:104D100070B50C460546012A05D02878800600D5D6
:104D2000EA69002302E0012305E05B1C934202D202
:104D3000E05C0028F9D1A869E618C01AA861286AC1
:104D4000184428622846AFF3008004E0D5E9012129
:104D500014F8010B9047B442F8D32846AFF3008013
:104D600070BD00002DE9F041064600241068752949
:104D7000314616A510D0AFF30080002802DA404279
:104D800013A507E031688A0701D512A502E049079B
:104D900004D511A5012401E0AFF3008000210A220F
:104DA00006F1240709E0B0FBF2FCB0FBF2F302FBD2
:104DB0001C00303078541846491C0028F3D1234693
:104DC0002A463046BDE8F04100F09CB800000000E3
:104DD0002D0000002B0000002000000040EA01032D
:104DE000024630B59B0710D14FF0013400E008C2F5
:104DF00008C91D1B9D4315EAC41FF8D013F0FF011D
:104E000002F8011B0DD01B0AF8E711F8013B002B3B
:104E100002F8013B05D011F8013B002B02F8013BE1
:104E2000F3D130BD10B5431C02E010F8011B71B185
:104E30008107FAD14FF0013202C88C1A8C4314EA70
:104E4000C211F9D0C01A0A0603D0C01E10BDC01A84
:104E500010BD0A0401D0801E10BD0902FCD0401E06
:104E600010BD032A40F2308010F0030C00F01580D2
:104E700011F8013BBCF1020F624498BF11F801CB5D
:104E800000F8013B38BF11F8013BA2F1040298BFC2
:104E900000F801CB38BF00F8013B11F0030300F02C
:104EA000D180083AC0F0088051F8043B083A51F824
:104EB00004CBA0E80810F5E7121D5CBF51F8043BD5
:104EC00040F8043BAFF30080D20724BF11F8013B48
:104ED00011F801CB48BF11F8012B24BF00F8013BAA
:104EE00000F801CB48BF00F8012B704702F0FF0328
:104EF00043EA032242EA024200F0D8B87047704702
:104F0000704770472DE9F0470D4699469246044692
:104F100000F124080168880604D5E06921F0100139
:104F2000216000E00120A84201DD471B00E00027CE
:104F3000A1697A1902EB0900081AA0612078C0065D
:104F400002D42046AFF30080002608E0D4E9012116
:104F50001AF806009047206A401C761C20624E45D5
:104F6000F4DB2078C0060AD52046AFF3008006E0C7
:104F7000D4E9012130209047206A401C2062381E6D
:104F8000A7F10107F4DC07E0D4E9012118F80500D6
:104F90009047206A401C2062281EA5F10105F3DC21
:104FA0002046AFF300802078000602D50220BDE83D
:104FB000F0870120FBE7000001694A1C02610878C4
:104FC000704700B58FB0CDE9013100210591054949
:104FD0007944CDE9031011466846FFF765FE0FB02E
:104FE00000BD0000E5FFFFFF0A6802F8010B0A6040
:104FF000704710B5436913B1AFF3008001E0FFF7CC
:1050000087FE012010BD127800F124010A700022F1
:105010004A700122EDE711684FF0FF32E9E7000026
:10502000074B70B50D467B44FFF7CBFF044628467F
:1050300000F05CF810B14FF0FF3070BD204670BD3D
:10504000FFFAFFFF10B5203AC0F00B80B1E818500E
:10505000203AA0E81850B1E81850A0E81850BFF462
:10506000F5AF5FEA027C24BFB1E81850A0E8185001
:1050700044BF18C918C0BDE810405FEA827C24BF55
:1050800051F8043B40F8043B08BF7047D20728BFE3
:1050900031F8023B48BF11F8012B28BF20F8023B32
:1050A00048BF00F8012B70474FF000020429C0F000
:1050B000128010F0030C00F01F80CCF1040CBCF146
:1050C000020F18BF00F8012BA8BF20F8022BA1EB9C
:1050D0000C0100F011B85FEAC17C24BF00F8012B7D
:1050E00000F8012B48BF00F8012B7047007B00F04F
:1050F000800070474FF0000200B513469446964674
:10510000203922BFA0E80C50A0E80C50B1F12001DA
:10511000BFF4F7AF090728BFA0E80C5048BF0CC088
:105120005DF804EB890028BF40F8042B08BF7047E6
:1051300048BF20F8022B11F0804F18BF00F8012B58
:105140007047754600F02CF8AE4605006946534698
:1051500020F00700854618B020B5FBF765FABDE8DA
:1051600020404FF000064FF000074FF000084FF0CE
:10517000000B21F00701AC46ACE8C009ACE8C0095F
:10518000ACE8C009ACE8C0098D46704710B50446CC
:10519000AFF300802046BDE81040FBF71EB80000CA
:1051A0000048704750630020C851000800000020EC
:1051B000B40000006C0100087C520008B40000201C
:1051C000FC680000880100080000000000000000EA
:1051D0000000000000A24A040000000000000000DF
:1051E000010203040607080900000000010203048D
:1051F0000102030406070809020406080000000073
:10520000000000000000000000000000000000009E
:10521000000000000000000000000000000000008E
:10522000000000000000000000000000000000007E
:10523000000000000000000000000000000000006E
:10524000000000000000000000000000000000005E
:10525000000000000000000000000000000000004E
:1052600000000000AAAAAAAA000000000000000096
:0C52700000000000000000000000000032
:0400000508000131BD
:00000001FF
