:020000040800F2
:10000000285B0020D10500088D0300088F0300083D
:1000100093030008970300089B03000800000000FA
:10002000000000000000000000000000E9010008DE
:100030009F030008000000002D020008154700087B
:10004000EB050008EB050008EB050008EB050008D0
:10005000EB050008EB050008EB050008EB050008C0
:10006000EB050008EB050008EB050008EB050008B0
:10007000EB050008EB050008EB050008EB050008A0
:10008000EB050008EB050008EB050008EB05000890
:10009000EB050008EB050008EB050008EB05000880
:1000A000EB050008EB050008EB050008EB05000870
:1000B000EB050008EB050008EB050008EB05000860
:1000C000EB050008EB050008EB050008EB05000850
:1000D000EB050008CD480008EB050008EB0500081B
:1000E000EB050008EB050008EB050008EB05000830
:1000F000EB050008EB050008EB050008EB05000820
:10010000EB050008EB050008EB050008EB0500080F
:10011000EB050008EB050008EB050008EB050008FF
:10012000EB050008EB050008EB050008EB050008EF
:1001300000F002F800F048F80AA090E8000C8244B1
:100140008344AAF10107DA4501D100F03DF8AFF28E
:10015000090EBAE80F0013F0010F18BFFB1A43F0A5
:1001600001031847384D0000584D0000103A24BFD5
:1001700078C878C1FAD8520724BF30C830C144BF0C
:1001800004680C607047000000230024002500264E
:10019000103A28BF78C1FBD8520728BF30C148BFEA
:1001A0000B607047642904F05784752904F0548467
:1001B000632904F0A285732904F0A7850020704705
:1001C0001FB51FBD10B510BD04F035FE1146FFF779
:1001D000F7FF00F09EF804F053FE03B4FFF7F2FFC0
:1001E00003BC04F019FB0000224B19680868B0E852
:1001F000F00F80F30988BFF36F8F4FF0000080F39A
:1002000011884EF00D0E704700000000064800688F
:10021000006880F3088862B661B6BFF34F8FBFF302
:100220006F8F00DF00BF00BF08ED00E0EFF3098033
:10023000BFF36F8F0F4B1A6820E9F00F106008B5FD
:100240004FF0500080F31188BFF34F8FBFF36F8FD3
:1002500002F061FC4FF0000080F31188BDE8084017
:1002600019680868B0E8F00F80F30988BFF36F8F52
:10027000704700BF34000020EFF305807047000096
:1002800009E032480068C0433149C1F888014FF4A1
:10029000FA7002F017FBF4E7002418E0601CC4B207
:1002A0002C480068C0432C49C1F8A0012B480068C5
:1002B00048B1052C07D100242848006802F0D2F884
:1002C0000020264908604FF47A7002F0FBFAE5E757
:1002D0001CB5044604F072F9214802210023802253
:1002E000CDE900101FA1AFF24F0002F06DF81B48DE
:1002F000032100238022CDE900101DA1AFF27F0071
:1003000002F062F81D48006802F0ACF804F079F9D8
:100310001CBD1CB54FF4407000F0FEFE04F002FA64
:100320004FF4E13004F086FA00F02AF91348012175
:1003300000238022CDE9001011A1AFF26B0002F082
:1003400043F802F064FD00201CBD000088812242B9
:1003500000802242A001214200002142080000202A
:10036000040000207461736B315F7461736B000073
:100370007461736B325F7461736B00000000002066
:1003800073746172745F7461736B0000704700BFB7
:10039000FEE700BFFEE700BFFEE700BFFEE77047D5
:1003A0000CB50020019000906C48006840F480304B
:1003B0006A49086000BF6948006800F40030009096
:1003C0000198401C0190009818B90198B0F5A06FF1
:1003D000F1D16248006800F4003010B101200090B3
:1003E00001E0002000900098012843D15C4800689B
:1003F00040F010005A4908600846006820F00300E9
:1004000008600846006840F00200086053484068F1
:10041000524948600846406848600846406840F4D1
:10042000806048600846406820F47C1048600846B8
:10043000406840F4E81048600846006840F080706A
:10044000086000BF4548006800F000700028F9D03F
:100450004248406820F00300404948600846406830
:1004600040F00200486000BF3C48406800F00C00CB
:100470000828F9D10CBD10B5FFF792FF10BD10B5DB
:100480003648006840F0010034490860084640687A
:1004900034490840314948600846006832490840FC
:1004A0002E4908600846006820F48020086008464D
:1004B000406820F4FE0048604FF41F008860FFF79A
:1004C000DAFF4FF000602949086010BD10B5002127
:1004D00000200022214B5B6803F00C0121B10429AC
:1004E00006D0082928D107E0214B224C236027E0C1
:1004F0001F4B204C236023E0184B5B6803F4701003
:10050000164B5B6803F48032022303EB904022B960
:10051000194B4343174C23600DE0104B5B6803F409
:10052000003323B1144B4343124C236003E0104BC0
:100530004343104C236003E00D4B0E4C236000BF7F
:1005400000BF064B5B68C3F303130C4CE15C094B23
:100550001B68CB40074C236010BD00000010024018
:10056000002002400000FFF8FFFFF6FE08ED00E06B
:1005700000127A000C00002000093D00100000204D
:1005800008B50121242000F05FFB4FF48070ADF826
:10059000000010208DF8030003208DF8020069464A
:1005A000094800F095F84FF48071074800F03DF9D4
:1005B0000420ADF800006946044800F089F80421E1
:1005C000024800F032F908BD000801400014014063
:1005D0000948804709480047FEE7FEE7FEE7FEE7D7
:1005E000FEE7FEE7FEE7FEE7FEE7FEE70448054913
:1005F000054A064B704700007F04000831010008DF
:1006000028550020285B002028570020285700206C
:1006100010B50446CC48844208D10121042000F0E2
:100620002DFB0021042000F029FB46E0C74884424E
:1006300008D10121082000F021FB0021082000F052
:100640001DFB3AE0C248844208D10121102000F08D
:1006500015FB0021102000F011FB2EE0BD48844264
:1006600008D10121202000F009FB0021202000F00A
:1006700005FB22E0B848844208D10121402000F067
:10068000FDFA0021402000F0F9FA16E0B348844258
:1006900008D10121802000F0F1FA0021802000F033
:1006A000EDFA0AE0AE48844207D10121801500F03E
:1006B000E5FA0021A01500F0E1FA10BD10B5012106
:1006C000084600F0DBFA0021012000F0D7FA10BD47
:1006D0002DE9F041024600250026002000230024D9
:1006E000002791F803C00CF00F0591F803C00CF03F
:1006F000100CBCF1000F03D091F802C04CEA0505C4
:1007000091F800C0BCF1000F31D0146800202BE03C
:100710004FF0010C0CFA00F3B1F800C00CEA03062C
:100720009E4220D183004FF00F0C0CFA03F7BC431C
:1007300005FA03FC4CEA040491F803C0BCF1280F4D
:1007400006D14FF0010C0CFA00FCC2F814C00AE00C
:1007500091F803C0BCF1480F05D14FF0010C0CFA21
:1007600000FCC2F810C0401C0828D1D31460B1F8B6
:1007700000C0BCF1FF0F34DD546800202EE000F112
:10078000080C4FF0010808FA0CF3B1F800C00CEAAD
:1007900003069E4221D183004FF00F0C0CFA03F7A1
:1007A000BC4305FA03FC4CEA040491F803C0BCF115
:1007B000280F05D100F1080C08FA0CF8C2F81480D3
:1007C00091F803C0BCF1480F07D100F1080C4FF0BD
:1007D000010808FA0CF8C2F81080401C0828CED393
:1007E0005460BDE8F0814FF6FF71018002218170F5
:1007F0000421C17070470246002093680B400BB182
:10080000012000E0002070470146886880B27047F0
:1008100002460020D3680B400BB1012000E000200D
:1008200070470146C86880B27047016170474161F6
:1008300070470AB1016100E041617047C1607047D3
:100840004FF480320A4382618161826182698269E8
:10085000704702460020434B18684FF680731840DB
:1008600040EA021008433F4B186070473E49C86198
:100870007047F0B50A46002300240021002500F04F
:100880000046B6F1004F02D1364EF16901E0354E17
:100890007168C0F3034583B200F44016B6F5401FFB
:1008A00008D121F070612F4E766826F070662D4FCA
:1008B0007E6012E000F48016B6F5801F06D1032694
:1008C00006FA05F4A14341F0706106E0460D3601D9
:1008D00003FA06F6B14341F0706122B1460D3601CC
:1008E00003FA06F6314300F00046B6F1004F02D19C
:1008F0001C4EF16101E01B4E7160F0BD30B500226D
:100900008B071C0F0F2303FA04F2164B08338C10CD
:1009100053F824309343134C08348D1044F8253099
:1009200023468C1053F824308C07240F00FA04F46B
:1009300023430C4C08348D1044F8253030BD0A494F
:10094000DC3108607047000000080140000C0140E5
:10095000001001400014014000180140001C01403B
:10096000002001400000014000002042DF480068F4
:1009700040F00100DD49086008464068DC49084055
:10098000DA49486008460068DA490840D7490860F3
:100990000846006820F4802008600846406820F47B
:1009A000FE0048604FF41F0088607047CF49096817
:1009B00021F48031CD4A11601146096821F480216B
:1009C0001160B0F5803F03D0B0F5802F0ED106E066
:1009D000C649096841F48031C44A116007E0C3493F
:1009E000096841F4A021C14A116000E000BF00BFC6
:1009F000704710B501460022002300204A11012A49
:100A000002D1BA4C236806E0022A02D1B74C236A0D
:100A100001E0B64C636A01F01F02012494401C40BF
:100A20000CB1012000E0002010BD38B5002000907E
:100A30000024002500BF3120FFF7DBFF05460098AA
:100A4000401C00900098B0F5A06F01D0002DF2D0AE
:100A50003120FFF7CEFF08B1012400E0002420463A
:100A600038BD01460020A14A106820F0F80040EA95
:100A7000C10010607047A04908607047024600201E
:100A80009A4B586820F47C1042EA01031843974BB4
:100A90005860704798490866704701460020934A9D
:100AA000506820F003000843506070478F4840684A
:100AB00000F00C007047014600208C4A506820F07E
:100AC000F00008435060704701460020874A506894
:100AD00020F4E06008435060704701460020834ADC
:100AE000506820F4605040EAC1005060704729B15E
:100AF0007E4A527A02437D4B5A7204E07B4A527A14
:100B000082437A4B5A7270477B49D83108607047EC
:100B100001460020754A506820F440400843506068
:100B200070470021714A20321170704A82F82010FB
:100B3000012802D004280AD104E001216B4A2032A6
:100B4000117005E00521694A2032117000E000BFF4
:100B500000BF70476949086070476449096A0143EA
:100B6000624A11627047654944390860704730B580
:100B700000210022002400235C4D6D6805F00C016B
:100B800021B1042905D0082923D105E05C4D056079
:100B900022E05B4D05601FE0544D6D6805F4701256
:100BA000524D6D6805F48034022505EB92421CB964
:100BB000544D554305600BE04C4D6D6805F4003510
:100BC0001DB1504D5543056002E04D4D5543056044
:100BD00002E04B4D056000BF00BF444D6D6805F05D
:100BE000F0010909484D6B5C0568DD4045603F4DEB
:100BF0006D6805F4E061090A434D6B5C4568DD40B2
:100C000085603A4D6D6805F46051C90A3E4D6B5CD4
:100C10004568DD40C560354D6D6805F44041890B80
:100C20003A4D6B5CC568B5FBF3F5056130BD29B184
:100C30002E4A526902432D4B5A6104E02B4A5269F5
:100C400082432A4B5A61704729B1284A926902436C
:100C5000264B9A6104E0254A92698243234B9A61AC
:100C6000704729B1214AD2690243204BDA6104E07E
:100C70001E4AD26982431D4BDA61704729B11B4A73
:100C8000D2680243194BDA6004E0184AD268824302
:100C9000164BDA60704729B1144A12690243134BAC
:100CA0001A6104E0114A12698243104B1A617047BD
:100CB00012494039086070470F49C86470470B49B2
:100CC000C87170470948406A40F08070074948621F
:100CD000704701460020054A92680A400AB1012087
:100CE00000E0002070470149887270470010024000
:100CF0000000FFF8FFFFF6FE00004242800442427F
:100D000000127A0000093D00200000203000002081
:100D100010B50446FB48844209D101218803FFF73E
:100D2000ADFF00214FF48040FFF7A8FF32E0F64806
:100D3000844209D101214804FFF7ADFF00214FF49F
:100D40000030FFF7A8FF25E0F048844209D10121D7
:100D50008804FFF7A0FF00214FF48020FFF79BFFDE
:100D600018E0EB48844209D10121C804FFF793FF42
:100D700000214FF40020FFF78EFF0BE0E54884428E
:100D800008D101210805FFF786FF00214FF48010EC
:100D9000FFF781FF10BD2DE9F04786B005460E46EE
:100DA0000024A24600BFA1460027B08900B100BFC1
:100DB0002F462C8A4CF6FF700440F08804432C82A6
:100DC000AC894EF6F3100440B0883189084371892C
:100DD00008430443AC81AC8A4FF6FF400440B0891D
:100DE0000443AC8201A8FFF7C2FEC648874202D185
:100DF000DDF810A001E0DDF80CA0A88900F40040A7
:100E000040B10AEBCA0000EB0A1031684900B0FBA0
:100E1000F1F807E00AEBCA0000EB0A10316889001C
:100E2000B0FBF1F86420B8FBF0F004012009642164
:100E300001FB1089A88900F4004040B1322000EB8A
:100E4000C900B0FBF1F000F00700044308E03220D5
:100E500000EB09106421B0FBF1F000F00F00044337
:100E60002C8106B0BDE8F0874FF4165101600021D7
:100E70008180C18001810C214181002181817047E5
:100E800010B502460020108A4FF2FF0318400B886D
:100E90004C8823438C882343CC88234318431082F7
:100EA00010BD0021018041808180C180704721B147
:100EB000828942F40052828104E082894DF6FF73F8
:100EC0001A4082817047F0B50346002400260025B1
:100ED000002040F66A17B94200D100BF1846C1F39E
:100EE000421401F01F06012707FA06F5012C01D173
:100EF0000C3004E0022C01D1103000E014301AB1A3
:100F000007682F43076002E00768AF430760F0BD42
:100F10001AB1838A0B43838202E0838A8B438382E4
:100F20007047028A4FF6F0731A400282028A0A431F
:100F30000282704782894FF2FF731A408281828950
:100F40000A438281704721B1828942F00202828184
:100F500004E082894FF6FD731A4082817047028A4D
:100F60004FF6DF731A400282028A0A4302827047F8
:100F700021B1028A42F48042028204E0028A4BF6E6
:100F8000FF731A4002827047C1F3080282807047E3
:100F900001468888C0F308007047818941F001014B
:100FA00081817047028BD2B20283028B42EA012216
:100FB00002837047028B02F47F420283028B0A4352
:100FC0000283704721B1828A42F02002828204E0CB
:100FD000828A4FF6DF731A408282704721B1828A7B
:100FE00042F01002828204E0828A4FF6EF731A40C8
:100FF0008282704721B1828A42F00802828204E034
:10100000828A4FF6F7731A408282704721B1828933
:1010100042F40042828103E08289C2F30E0282819F
:10102000704721B1828A42F40062828204E0828A9F
:101030004FF2FF731A4082827047828A4FF6FB7329
:101040001A408282828A0A438282704721B1828A50
:1010500042F00202828204E0828A4FF6FD731A4057
:101060008282704702460020B1F5007F00D100BFA8
:1010700013880B400BB1012000E00020704701F401
:101080000072B2F5007F00D100BFCA4302807047F2
:1010900070B50246002400230025002040F66A16A1
:1010A000B14200D100BFC1F3421501F01F03012678
:1010B00006FA03F3012D02D19689334006E0022D92
:1010C00002D1168A334001E0968A33400C12012681
:1010D00006FA04F41688344013B10CB1012000E084
:1010E000002070BD10B50022002340F66A14A14212
:1010F00000D100BF0A1201249440A3B2DC43048053
:1011000010BD00000038014000440040004800408D
:10111000004C00400050004031490143314A116009
:10112000704770B5002100230F22C47804B32D4C02
:10113000246804F4E064C4F5E064210AC1F1040306
:10114000CA40447804FA03F1847814402143090129
:10115000254C0678A155047804F01F050124AC4005
:1011600005786D11AD0005F1E025C5F8004109E0F5
:10117000047804F01F050124AC401C4D067876115C
:1011800045F8264070BD1A4A0A400243154B1B1F02
:101190001A60704739B1134A121D12680243114B8D
:1011A0001B1D1A6006E00F4A121D126882430D4B88
:1011B0001B1D1A607047042808D14FF0E02109690F
:1011C00041F004014FF0E022116107E04FF0E0210F
:1011D000096921F004014FF0E0221161704700001D
:1011E0000000FA050CED00E000E400E080E100E022
:1011F00080FFFF1F00F1080141604FF0FF31816067
:1012000000F10801C1600161002101607047002107
:101210000161704742684A6093688B6093685960C7
:101220009160086103685B1C0360704710B502465B
:101230000B685C1C0CB9106907E002F1080000E0C3
:101240004068446824689C42FAD944684C604C6801
:10125000A160886041600A611468641C146010BD5C
:1012600001460A69D1E901309860D1E9010358606B
:101270005068884201D18868506000200861106879
:10128000401E10601068704770B505460E462C462B
:1012900024B9FB22F9A1FEA003F060FB03F08EF954
:1012A000D4E90F12206801FB020060600020A063F7
:1012B0002068A060E06B401E226C216800FB0210D9
:1012C000E060FF2084F8440084F845009EB920695E
:1012D00008B9012000E00020A8B904F1100001F0D5
:1012E0004EFF80B14FF08050ED490860BFF34F8F43
:1012F000BFF36F8F07E004F11000FFF77BFF04F1ED
:101300002400FFF777FF03F07CF9012070BD2DE981
:10131000F04106460D4617469846069C0DB92460D6
:1013200000E02760E663256401212046FFF7ACFF5B
:1013300084F850800020A064BDE8F0812DE9F843D6
:1013400005460E4690460DB1012000E0002028B968
:101350004FF4B672C9A1CEA003F000FB0EB900276E
:1013600001E005FB06F707F1540002F076FF0446A2
:1013700044B104F1540943464A4631462846009494
:10138000FFF7C5FF2046BDE8F8832DE9F04104468C
:101390000F4615464FF00008A66B206C40B9206838
:1013A00060BB606802F057F880460020606025E06E
:1013B0007DB93946226CA06803F0CDFB216CA06892
:1013C0000844A060D4E90110884217D32068A060C7
:1013D00014E03946226CE06803F0BDFB216CE06844
:1013E000401AE0602168E068884203D2216C60689E
:1013F000401AE060022D01D106B1761E701CA06378
:101400004046BDE8F0812DE9F3410D460098846C1B
:1014100000272CB940F6253298A19DA003F09EFA32
:10142000A06BE16B884201D2012000E0002028B9C6
:1014300040F6263291A196A003F090FAA06BE16BE2
:1014400088421BD294F945602A4669462046FFF738
:101450009CFF0746701C60B9606A08B9012000E073
:10146000002050B904F1240001F089FE28B10127C1
:1014700003E0701C40B284F8450000BF3846BDE868
:10148000FC8170B5044603F099F894F945501AE0D0
:10149000A06C38B100212046FFF7B5FF88B101F0FC
:1014A0005FFF0EE0606A08B9012000E0002038B953
:1014B00004F1240001F063FE18B101F051FF00E0D7
:1014C00003E0681E45B2002DE2DC00BFFF2084F877
:1014D000450003F096F803F071F894F9445010E0D9
:1014E000206908B9012000E0002048B904F110008B
:1014F00001F045FE08B101F033FF681E45B200E07F
:1015000001E0002DECDC00BFFF2084F8440003F074
:1015100078F870BD70B5054603F050F8A86BE96B1C
:10152000884201D1012400E0002403F06AF820463B
:1015300070BD2DE9FF4383B0064688461D464FF037
:10154000000934462CB940F2DB224CA150A003F034
:1015500005FAB8F1000F01D1206C08B9012000E0B4
:10156000002028B94FF4377244A149A003F0F6F9DE
:10157000022D02D1E06B012801D1012000E0002002
:1015800028B940F2DD223DA141A003F0E7F901F0C6
:10159000F9FE08B9059808B9012000E0002028B933
:1015A0004FF4387235A13AA003F0D8F900BF03F028
:1015B00005F8A06BE16B884201D3022D38D12A4691
:1015C00041462046FFF7E1FE0746A06C68B1294678
:1015D0002046FFF718FF28B34FF0805030490860CD
:1015E000BFF34F8FBFF36F8F1CE0606A08B9012013
:1015F00000E0002068B904F1240001F0C0FD88B1CA
:101600004FF0805026490860BFF34F8FBFF36F8FB4
:1016100008E03FB14FF0805021490860BFF34F8F81
:10162000BFF36F8F02F0EDFF012007B0BDE8F0833C
:10163000059818B902F0E5FF0020F6E7B9F1000FB0
:1016400004D101A801F02FFE4FF0010902F0D9FFEB
:1016500001F0D7F802F0B2FF94F94400401C10B931
:10166000002084F8440094F94500401C10B9002083
:1016700084F8450002F0C5FF05A913E02E2E5C4654
:1016800072656552544F535C71756575652E6300C4
:101690004572726F723A25732C25640D0A000000A2
:1016A00004ED00E001A801F005FEF8B92046FFF7BF
:1016B00031FFA8B104F11000059901F002FD2046A8
:1016C000FFF7DFFE00F0F2FF00287FF470AF4FF06D
:1016D0008050F7490860BFF34F8FBFF36F8F66E705
:1016E0002046FFF7CEFE00F0E1FF60E72046FFF75F
:1016F000C8FE00F0DBFF002097E710B504464CB1B0
:10170000002060602060E06000231A4619462046F1
:10171000FFF70FFF10BD2DE9F04104460126002719
:10172000224600210120FFF709FE05462846FFF763
:10173000E4FF2846BDE8F08170B5064634463CB962
:1017400040F24322AFF2CC01AFF2BC0003F006F945
:1017500001F015FE616888420CD1E068401EE0602F
:10176000E06828B900231A4619462046FFF7E1FE33
:10177000012500E00025284670BD01464A6A22B1D5
:101780000A6B1268C2F1200000E00020704770B5BB
:10179000054602F013FFA86B08B9012400E00024FD
:1017A00002F02FFF204670BD2DE9F34182B00546BF
:1017B0004FF000082C4600263CB94FF4AE62AFF261
:1017C0004411AFF2341003F0C9F8206C08B90120BD
:1017D00000E0002038B940F27452AFF26011AFF26D
:1017E000501003F0BBF801F0CDFD08B9039808B91B
:1017F000012000E0002038B940F27952AFF28411A4
:10180000AFF2741003F0AAF800BF02F0D7FEA76B86
:10181000FFB1781EA063206810B901F068FF606016
:10182000206908B9012000E0002060B904F110002F
:1018300001F0A5FC38B14FF080509D490860BFF31E
:101840004F8FBFF36F8F02F0DCFE012004B0BDE8C4
:10185000F081039880B90EB9012000E0002038B96A
:1018600040F2C152AFF2EC11AFF2DC1003F076F8A7
:1018700002F0C7FE0020E9E7B8F1000F04D1684686
:1018800001F011FD4FF0010802F0BBFE00F0B9FFBE
:1018900002F094FE94F94400401C10B9002084F832
:1018A000440094F94500401C10B9002084F845001C
:1018B00002F0A7FE03A9684601F0FCFC40BB2046ED
:1018C000FFF765FFF0B1206838B902F077FE606875
:1018D00001F064FD064602F094FE04F12400039931
:1018E00001F0EFFB2046FFF7CCFD00F0DFFE002803
:1018F0008BD14FF080506E490860BFF34F8FBFF31C
:101900006F8F82E72046FFF7BCFD00F0CFFE7CE73B
:101910002046FFF7B6FD00F0C9FE2046FFF737FF6F
:101920000028EED05EB102F049FE2046FFF725FF09
:1019300007463946606801F0E6FD02F062FE0020CD
:1019400084E72DE9F04106460F4634463CB940F2A3
:101950007A22AFF2D821AFF2C82002F0FFFF01F0E7
:101960000EFD6168884204D1E068401CE0600125FA
:1019700008E039462046FFF717FF054615B1E06835
:10198000401CE0602846BDE8F08170B505460E4673
:101990000DB1012000E0002038B940F2BF22AFF2C3
:1019A0002431AFF2143002F0D9FFAE4201D8012049
:1019B00000E0002038B94FF43072AFF24031AFF29E
:1019C000303002F0CBFF022200212846FFF7B6FCA0
:1019D000044604B1A663204670BD2DE9F05F804641
:1019E0008A4615461E4644463CB940F2A132AFF243
:1019F0007431AFF2643002F0B1FFBAF1000F01D1DF
:101A0000206C08B9012000E0002038B940F2A23271
:101A1000AFF29831AFF2883002F0A0FF022E02D16F
:101A2000E06B012801D1012000E0002038B940F22C
:101A3000A332AFF2B831AFF2A83002F08FFF02F05C
:101A400010FE00BF5021EFF3118081F31188BFF326
:101A50004F8FBFF36F8F00BF0746A06BE16B8842CB
:101A600001D3022E2ED194F945B03246514620467C
:101A7000FFF78BFC0BF10100E0B9A06C40B13146DF
:101A80002046FFF7C0FCD0B1CDB10120286016E0A0
:101A9000606A08B9012000E0002080B904F1240048
:101AA00001F06DFB58B155B10120286007E000003E
:101AB00004ED00E00BF1010040B284F845004FF066
:101AC000010901E04FF0000900BF87F3118800BF52
:101AD0004846BDE8F09F2DE9F04707460D463C46D5
:101AE0003CB940F23E42AFF26C41AFF25C4002F0D2
:101AF00035FF206C08B9012000E0002038B940F221
:101B00004242AFF28841AFF2784002F027FF2068EE
:101B100008B9606808B9012000E0002038B940F237
:101B20004742AFF2A841AFF2984002F017FF02F02F
:101B300098FD00BF5021EFF3118081F31188BFF3AE
:101B40004F8FBFF36F8F00BF0646D4F83890E06B1D
:101B5000484529D994F945A009F10100A0630AF18B
:101B60000100C8B9A06C40B100212046FFF74BFC32
:101B7000B8B1B5B10120286013E0606A08B901204E
:101B800000E0002068B904F1240001F0F8FA40B147
:101B90003DB10120286004E00AF1010040B284F860
:101BA00045004FF0010801E04FF0000800BF86F348
:101BB000118800BF4046BDE8F08770B504460D4669
:101BC000206C70B1216CE0680844E0606168E068F6
:101BD000884201D32068E0602846226CE16802F068
:101BE000BAFF70BD2DE9F74183B005460E464FF0B0
:101BF00000082C463CB940F2DE42AFF28051AFF211
:101C0000705002F0ABFE0EB9206C08B9012000E064
:101C1000002038B940F2E242AFF2A051AFF290504A
:101C200002F09CFE01F0AEFB08B9059808B901204E
:101C300000E0002038B940F2E742AFF2C051AFF205
:101C4000B05002F08BFE00BF02F0B8FCA76BF7B1FA
:101C500031462046FFF7B1FF781EA063206908B91E
:101C6000012000E0002060B904F1100001F087FAC3
:101C700038B14FF08050F7490860BFF34F8FBFF382
:101C80006F8F02F0BEFC012006B0BDE8F081059820
:101C900018B902F0B6FC0020F6E7B8F1000F04D145
:101CA00001A801F000FB4FF0010802F0AAFC00F0CF
:101CB000A8FD02F083FC94F94400401C10B90020F8
:101CC00084F8440094F94500401C10B9002084F8C1
:101CD000450002F096FC05A901A801F0EBFAF0B965
:101CE0002046FFF754FDA0B104F12400059901F04E
:101CF000E8F92046FFF7C5FB00F0D8FC0028A3D187
:101D00004FF08050D3490860BFF34F8FBFF36F8F00
:101D10009AE72046FFF7B5FB00F0C8FC94E72046A1
:101D2000FFF7AFFB00F0C2FC2046FFF730FD0028B4
:101D30008AD00020A8E72DE9F74382B005460E4679
:101D40004FF000082C463CB94FF4C962AFF2D461A1
:101D5000AFF2C46002F002FE0EB9206C08B9012097
:101D600000E0002038B940F24C62AFF2F061AFF20F
:101D7000E06002F0F3FD01F005FB08B9049808B932
:101D8000012000E0002038B940F25162AFF2147136
:101D9000AFF2047002F0E2FD00BF02F00FFCD4F8D5
:101DA0003890B9F1000F1ED0E76831462046FFF7A2
:101DB00004FFE760606A08B9012000E0002060B914
:101DC00004F1240001F0DBF938B14FF08050A14953
:101DD0000860BFF34F8FBFF36F8F02F012FC01203A
:101DE00005B0BDE8F083049818B902F00AFC0020A1
:101DF000F6E7B8F1000F04D1684601F054FA4FF04D
:101E0000010802F0FEFB00F0FCFC02F0D7FB94F9A5
:101E10004400401C10B9002084F8440094F94500A7
:101E2000401C10B9002084F8450002F0EAFB04A928
:101E3000684601F03FFAF0B92046FFF7A8FCA0B1D0
:101E400004F12400049901F03CF92046FFF719FB46
:101E500000F02CFC0028A0D14FF080507D49086094
:101E6000BFF34F8FBFF36F8F97E72046FFF709FB54
:101E700000F01CFC91E72046FFF703FB00F016FC86
:101E80002046FFF784FC002887D00020A8E72DE932
:101E9000F05F06468946174634463CB940F2DC629C
:101EA000AFF62801AFF6180002F058FDB9F1000FA7
:101EB00001D1206C08B9012000E0002038B940F2BF
:101EC000DD62AFF64801AFF6380002F047FD02F0E0
:101ED000C8FB00BF5021EFF3118081F31188BFF3DD
:101EE0004F8FBFF36F8F00BF0546D4F838A0BAF10B
:101EF000000F22D094F944B049462046FFF75DFE1A
:101F0000AAF10100A0630BF1010070B9206908B9C2
:101F1000012000E0002068B904F1100001F02FF961
:101F200040B13FB10120386004E00BF1010040B244
:101F300084F844004FF0010801E04FF0000800BFB2
:101F400085F3118800BF4046BDE8F09F2DE9F047BA
:101F50000646884634463CB94FF4E762AFF6E401E2
:101F6000AFF6D40002F0FAFCB8F1000F01D1206CFA
:101F700008B9012000E0002038B940F23972AFF60C
:101F80000411AFF6F40002F0E9FC206C08B1012066
:101F900000E0002038B940F23A72AFF62011AFF6F7
:101FA000101002F0DBFC02F05CFB00BF5021EFF3ED
:101FB000118081F31188BFF34F8FBFF36F8F00BF84
:101FC0000546A06B48B1D4F80C9041462046FFF777
:101FD000F4FDC4F80C90012700E0002700BF85F352
:101FE000118800BF3846BDE8F08770B504463CB99B
:101FF00040F26B72AFF67C11AFF66C1002F0AEFCE3
:1020000002F0DCFAA56B02F0FCFA284670BD70B550
:10201000044625463DB940F27D72AFF6A011AFF6F9
:10202000901002F09BFC02F0C9FAD5E90E10461A96
:1020300002F0E7FA304670BD70B504463CB940F294
:102040008D72AFF6C811AFF6B81002F087FCA56B21
:10205000284670BD04ED00E0014600200EE0764AFF
:1020600002EBC00252688A4207D10022724B43F849
:10207000302003EBC0035A6002E0401C0828EED376
:1020800000BF704770B5044625463DB940F29972CD
:10209000AFF61821AFF6082002F060FC2846FFF7E3
:1020A000DBFF284602F05CF970BD0146C86C704742
:1020B000C1647047014691F85000704770B50546FD
:1020C0003DB940F6EA02AFF64C21AFF63C2002F0F3
:1020D00045FCA86B08B9012400E00024204670BD2F
:1020E00070B504463CB940F61112AFF67021AFF658
:1020F000602002F033FCA06BE16B884201D1012526
:1021000000E00025284670BD024600200BE04A4B47
:1021100053F8303033B9484B43F8301003EBC00369
:102120005A6002E0401C0828F1D300BF7047024605
:10213000002000210AE0404B03EBC1035B6893429F
:1021400003D13D4B53F8310002E0491C0829F2D37A
:1021500000BF70472DE9F04105460E4617462C4654
:1021600002F02CFA94F94400401C10B9002084F8C5
:10217000440094F94500401C10B9002084F8450043
:1021800002F03FFAA06B28B93A46314604F1240028
:1021900000F0DAFF2046FFF774F9BDE8F08170B572
:1021A0000446002204212046FFF7C8F805462846C9
:1021B00070BD70B504460E4602F000FAA06C08B17E
:1021C000002505E0A06B08B1002501E0A66401250B
:1021D00002F017FA284670BD2DE9F04105460F467A
:1021E0002E46B06CB84201D000240AE0B06B08B1B2
:1021F000002406E002F0E2F90020B06402F001FAE7
:1022000001242046BDE8F08138B505460C46002083
:102210000090224669462846FFF7E4FC009838BD46
:1022200038B5044600200090002269462046FFF79A
:102230002EFE009838BD0000B400002010B5002428
:1022400007E004EB8401FB4A02EB8100FEF7D2FFBA
:10225000641C202CF5D3F848FEF7CCFFF748FEF7B6
:10226000C9FFF748FEF7C6FFF648FEF7C3FFF6487A
:10227000FEF7C0FFF048F5490860F048F4490860EF
:1022800010BD10B5044602F099F9F2480068401CF0
:10229000F0490860F048006840B9EF48046008461B
:1022A000006801280DD1FFF7C9FF0AE0EB4800687C
:1022B00038B9E9480068C06AE16A884201D8E6484E
:1022C0000460E7480068401CE5490860084600686B
:1022D000606494F82C1001208840E24909680843A2
:1022E000E0490860E16A01EB8101D24A02EB81001A
:1022F000211DFEF78FFF02F084F9D848006868B10D
:10230000D5480068C06AE16A884207D24FF0805021
:10231000D5490860BFF34F8FBFF36F8F10BD2DE914
:10232000F05F82460F4690469B460A9E0C9C4FEA01
:102330008801A522206B02F053FCA8F10100216B5B
:1023400001EB800929F0070909F0070008B901200D
:1023500000E0002028B940F26332C4A1C8A002F016
:10236000FDFA002507E0795D04F134004155785D00
:1023700000B902E06D1C102DF5D300BF00214320F1
:102380000155202E00D31F26E662E664002020655A
:10239000201DFEF73CFF04F11800FEF738FF246112
:1023A000C6F12000A06164620020606584F85800D6
:1023B0005A465146484602F057F820600B9808B13B
:1023C0000B980460BDE8F09F2DE9FF4F85B0804673
:1023D00089461746DDE912ABB80001F03EFF06461C
:1023E00056B15C2001F039FF04460CB1266304E0CD
:1023F000304601F0B5FF00E000247CB10020CDE9BB
:1024000000ABCDE902403A4649464046089BFFF7FB
:1024100086FF2046FFF735FF012501E04FF0FF352D
:10242000284609B0BDE8F08F88490968096809B9EC
:10243000012100E0002121B14FF0FF31944A1160E9
:1024400006E082490968C968C868914A4168116014
:10245000704710B50446206B01F082FF204601F062
:102460007FFF10BD70B5054602F0A8F815B97A488F
:10247000006800E028460446201DFEF7F1FE78B90A
:10248000E06A00EB80006B4951F8200040B994F8F5
:102490002C1001208840734909688143714801600C
:1024A000A06A18B104F11800FEF7DAFE6C48006863
:1024B000401C6B49086068480068844209D1211DAE
:1024C0006048FEF7A7FE73480068401C7149086029
:1024D00009E060480068401E5E4908602046FFF73A
:1024E000B8FFFFF7A1FF02F08CF85C480068C0B1AC
:1024F00059480068844214D16748006808B901202F
:1025000000E0002028B940F2A54258A15CA002F0EA
:1025100025FA4FF0805054490860BFF34F8FBFF346
:102520006F8F70BD2DE9F0414FF000085A480068E8
:10253000002872D159480068451C58480560EDB91B
:1025400042480068006808B9012000E0002028B96E
:1025500040F6332245A14AA002F000FA3B48076842
:102560003B48006839490860394807604C480068B2
:10257000401C4B490860FFF757FF00BF4448006804
:1025800085423CD300BF31480068006808B901208B
:1025900000E0002020B14FF0FF303D4908602DE001
:1025A0002A480068C068C4686668B54202D23848E4
:1025B000066023E0201DFEF753FEA06A18B104F167
:1025C0001800FEF74DFE94F82C1001208840254994
:1025D0000968084323490860E16A01EB8101154A53
:1025E00002EB8100211DFEF715FE1B49E06A096818
:1025F000C96A8842C7D34FF00108C4E700BF164834
:102600000068C06A00EB80000A4951F820000128E8
:1026100001D94FF0010805E0FFE722480068401C9F
:10262000204908602048006808B14FF00108404682
:10263000BDE8F081F400002074030020880300202E
:102640009C030020B0030020C403002038000020B9
:102650003C000020440000203400002050000020F6
:10266000600000204C00002004ED00E02E2E5C46AF
:1026700072656552544F535C7461736B732E6300C3
:102680004572726F723A25732C25640D0A000000A2
:1026900064000020400000206C0000204800002062
:1026A0005C000020540000205800002070B5002479
:1026B0000026FE48006838B94FF40462AFF25401B6
:1026C000AFF2440002F04AF901F078FFF7480068E1
:1026D000401EF64908600846006800284FD1F448BB
:1026E000006800284BD024E0F248C068C46804F1B8
:1026F0001800FEF7B5FD201DFEF7B2FD94F82C1072
:1027000001208840EC4909680843EB490860E16A08
:1027100001EB8101E94A02EB8100211DFEF77AFD00
:10272000E749E06A0968C96A884202D30120E5499D
:102730000860E048006808B9012000E00020002897
:10274000D2D00CB1FFF770FEDF48056865B100BF5D
:10275000FFF7E8FE10B10120DA4908606D1E002D78
:10276000F6D10020D8490860D648006838B1012663
:102770003007D6490860BFF34F8FBFF36F8F01F06A
:1027800040FF304670BD2DE9F04105460E46D04869
:102790000768CB480068001DFEF762FD50B9C848C5
:1027A000006890F82C1001208840C34909688143D3
:1027B000C1480160681C38B936B1C1480168091DBB
:1027C000C448FEF727FD1AE07C19BD480068446044
:1027D000BC4207D2BA480168091DBF480068FEF72D
:1027E00025FD0CE0B6480168091DBC480068FEF7ED
:1027F0001DFDBB480068844201D2B9480460BDE8B1
:10280000F081AA480068401CA849086070472DE97B
:10281000F04704460F464FF000093CB940F2B94278
:10282000AFF2B811AFF2A81002F098F80FB1012082
:1028300000E0002038B940F2BA42AFF2D011AFF256
:10284000C01002F08BF89948006808B9012000E038
:10285000002038B940F2BB42AFF2F011AFF2E01005
:1028600002F07CF8FFF7CDFF994806682068C5198B
:102870002068B04207D92068A8420BD9B54209D9CF
:102880004FF0010906E02068A84201D8B54201D9FD
:102890004FF001092560B9F1000F03D0A81B0021FA
:1028A000FFF771FFFFF702FF8046B8F1000F07D175
:1028B0004FF0805085490860BFF34F8FBFF36F8F93
:1028C000BDE8F08770B504460025BCB177480068C4
:1028D00008B9012000E0002038B940F20F52AFF2F1
:1028E0007421AFF2642002F039F8FFF78AFF00216B
:1028F0002046FFF748FFFFF7D9FE05463DB94FF0E8
:10290000805072490860BFF34F8FBFF36F8F70BD67
:102910002DE9F04107463E463EB940F23B52AFF248
:10292000B421AFF2A42002F019F86548006886428D
:1029300001D100241EE001F041FE756901F061FE45
:1029400066480068854203D063480068854201D12B
:1029500002240FE05F48854205D1B06A08B903241C
:1029600008E0022406E05F48854200D00DB9042447
:1029700000E001242046BDE8F08170B5044601F076
:102980001DFE14B94E48006800E020460646F56A70
:1029900001F037FE284670BD2DE9F041054601F0F3
:1029A00060FE00BF5021EFF3118081F31188BFF367
:1029B0004F8FBFF36F8F00BF044615B940480068C2
:1029C00000E028460746FE6A00BF84F3118800BF76
:1029D0003046BDE8F0812DE9F04780460D464FF0C6
:1029E0000009202D01D2012000E0002038B94FF469
:1029F000B862AFF28831AFF2783001F0AFFF202D2E
:102A000000D31F2501F0DAFDB8F1000F02D12C48E8
:102A1000006800E040460446E66CAE4277D0B5421E
:102A20000BD92748006884420DD025480068C06A49
:102A3000A84208D84FF0010905E021480068844207
:102A400001D14FF00109E76AE16AE06C884200D1E8
:102A5000E562E564A06900F0004010B9C5F120000E
:102A6000A06107EB8701154A02EB8101606988428A
:102A700001D1012000E00020B0B3201DFEF7F0FBE3
:102A800030B90120B8400C49096881430A48016007
:102A900094F82C100120884007490968084306492A
:102AA0000860E16A01EB8101044A1FE06C0000202C
:102AB000440000209C0300204C000020F400002073
:102AC00034000020580000205400002004ED00E0F5
:102AD00048000020C40300203C00002038000020F3
:102AE00064000020B003002005E010E002EB81004C
:102AF000211DFEF78FFBB9F1000F07D04FF080507A
:102B0000F8490860BFF34F8FBFF36F8F00BF01F02C
:102B100078FDBDE8F08710B5F348006818B10120D2
:102B2000F24908602FE00020F0490860F048006892
:102B3000B0FA80F0C0F11F0404EB8400ED4951F8B5
:102B4000200008B1012000E0002038B94FF43562C0
:102B5000AFF2E841AFF2D84001F000FF04EB84018E
:102B6000E44A02EB810041684968416000F10801D4
:102B700042688A4202D14168496841604168C96837
:102B8000DD4A116000BF10BD70B5054601F016FDAD
:102B900015B9D948006800E028460446201DFEF714
:102BA0005FFB78B9E06A00EB8000D24951F8200061
:102BB00040B994F82C1001208840CD490968814320
:102BC000CB480160A06A18B104F11800FEF748FB79
:102BD000211DCA48FEF71EFB94F85800012802D1B7
:102BE000002084F8580001F00CFDC548006828B1A9
:102BF00001F0E4FCFFF718FC01F003FDBE4800689B
:102C0000844226D1BE480068B8B1B748006808B908
:102C1000012000E0002038B940F2A262AFF2B451C6
:102C2000AFF2A45001F09AFE4FF08050AD49086019
:102C3000BFF34F8FBFF36F8F0BE0B0480068B1490F
:102C40000968884203D10020AB49086001E0FFF722
:102C500062FF70BD70B5054600262C463DB940F2B6
:102C6000CC62AFF2F851AFF2E85001F077FEA34921
:102C70006069884201D1012000E0002070B1A249C2
:102C8000A06A884201D1012000E0002030B9A06A8A
:102C900008B9012000E0002000B10126304670BDD7
:102CA00070B505462C463DB940F2F662AFF244617C
:102CB000AFF2346001F052FE74B38F480068844272
:102CC0002AD001F07BFC2046FFF7C4FF10B3201D83
:102CD000FEF7C6FA94F82C10012088408449096850
:102CE000084383490860E16A01EB8101814A02EBF4
:102CF0008100211DFEF78EFA7F49E06A0968C96AE2
:102D0000884207D34FF0805076490860BFF34F8F59
:102D1000BFF36F8F01F075FC70BD2DE9F0410646E1
:102D2000002734463EB940F22D72AFF2C061AFF2D7
:102D3000B06001F013FE01F094FC00BF5021EFF3EE
:102D4000118081F31188BFF34F8FBFF36F8F00BFE6
:102D500005462046FFF77EFF20B363480068E0B9D0
:102D60006549E06A0968C96A884200D30127201DC5
:102D7000FEF776FA94F82C10012088405C49096827
:102D800008435B490860E16A01EB8101594A02EBA3
:102D90008100211DFEF73EFA04E004F118015A48B3
:102DA000FEF738FA00BF85F3118800BF3846BDE84A
:102DB000F08110B516E001F001FC5448C068C46809
:102DC000201DFEF74DFA4F480068401E4D4908602F
:102DD0004F480068401E4E49086001F012FC204632
:102DE000FFF737FB4A4800680028E4D110BD00BF58
:102DF000FFF7DFFF3F4800680128F9D94FF0805006
:102E000038490860BFF34F8FBFF36F8FF0E71CB5F1
:102E1000404800210B468222CDE900103EA14048E7
:102E2000FFF7D2FA0446012C02D101F06CF80446F7
:102E3000012C15D100BF502080F31188BFF34F8FB4
:102E4000BFF36F8F00BF4FF0FF303649086001209D
:102E50002B49086000203449086001F026FB0DE092
:102E6000601C08B1012000E0002038B940F2DC729B
:102E7000AFF60801AFF2F87001F070FD1CBD10B59F
:102E800000BF502080F31188BFF34F8FBFF36F8FC7
:102E900000BF00201A49086001F07FFB10BD2249E5
:102EA0000868704770B501F0DCFB00251E48046817
:102EB000204670BD13480068704770B5044614B9C9
:102EC0000D48006800E0204605463DB940F6E402A2
:102ED000AFF66801AFF6580001F040FD05F134008F
:102EE00070BD000004ED00E06C00002058000020E0
:102EF0004C000020F400002034000020C403002017
:102F000050000020440000209C030020B00300205B
:102F1000400000206800002049444C4500000000AB
:102F2000EF2D000864000020480000200246002128
:102F300001E0521C491C1078A528FAD0890888B2F3
:102F400070472DE9F04107460C4690461E4617B9DA
:102F5000F648006800E038460546256005F1340073
:102F60006060E86A2061286BE061686CA060E86CD2
:102F700060610020A061052E12D0EC4800688542F7
:102F800002D1002020730FE02673032E0CD1FFF72F
:102F900038FCA86A08B102202073FFF787FB03E022
:102FA0002846FFF7B5FC2073B8F1000F04D0286B5A
:102FB000FFF7BCFF208401E000202084BDE8F08101
:102FC0002DE9F04707460C4690460026206848B396
:102FD000204641684968416000F1080142688A4220
:102FE00002D14168496841604168D1F80C9000BF46
:102FF000204641684968416000F1080142688A4200
:1030000002D14168496841604168CD6806EBC6005D
:1030100007EB8001434601222846FFF792FF761C0A
:103020004D45E5D13046BDE8F0872DE9F041054634
:103030008846164600242027FFF7E3FBBC480068BB
:10304000804539D300BF7F1E07EB8702B94B03EBE6
:10305000820104EBC40205EB82000122FFF7B0FFFE
:103060000444002FEFD104EBC40105EB81000222E0
:10307000B1490968FFF7A4FF044404EBC40105EB60
:1030800081000222AD490968FFF79AFF044404EB6E
:10309000C40105EB81000422A949FFF791FF044414
:1030A00004EBC40105EB81000322A649FFF788FF6A
:1030B00004440EB100203060FFF7F8FA2046BDE866
:1030C000F08170B504460D463CB94FF43662AFF658
:1030D0006421AFF6542001F041FC94480168183196
:1030E0002046FEF7A3F801212846FFF74CFB70BDF0
:1030F00070B504460D4616463CB940F67132AFF63F
:103100009421AFF6842001F029FC8F48006808B1B3
:10311000012000E0002038B940F67532AFF6B42146
:10312000AFF6A42001F01AFC45F000407F49096881
:1031300088617E48016818312046FEF76BF801214E
:103140003046FFF720FB70BD70B505460E461446AD
:103150003DB940F68B32AFF6EC21AFF6DC2001F042
:10316000FDFB7248016818312846FEF753F80CB190
:103170004FF0FF3621463046FFF705FB70BD70B5B6
:103180000646F068C4683CB940F6BB32AFF624315D
:10319000AFF6143001F0E2FB04F11800FEF760F81E
:1031A00069480068A8B9201DFEF75AF894F82C1059
:1031B0000120884065490968084364490860E16A5C
:1031C00001EB81015B4A02EB8100211DFEF722F831
:1031D00004E004F118015E48FEF71CF85349E06A68
:1031E0000968C96A884204D9012501205949086043
:1031F00000E00025284670BD70B505460E465248D1
:10320000006808B1012000E0002038B940F6F23231
:10321000AFF6A831AFF6983001F0A0FB46F00040C1
:103220002860EC683CB940F6FA32AFF6C031AFF630
:10323000B03001F093FB2846FEF712F8201DFEF790
:103240000FF894F82C100120884040490968084381
:103250003E490860E16A01EB8101364A02EB8100D8
:10326000211DFDF7D7FF3149E06A0968C96A884224
:1032700002D901203749086070BD10B504463CB939
:103280004FF44162AFF61C41AFF60C4001F066FB13
:1032900001F094F9304800682060304800686060B0
:1032A00001F0AFF910BD2C49096801602B4909688C
:1032B0004160704770B505460C463DB940F6264260
:1032C000AFF65841AFF6484001F048FB3CB940F634
:1032D0002742AFF66841AFF6584001F03FFB01F0DE
:1032E0006DF91E4802686868131A2068401C08B906
:1032F000002617E0184928680968884204D06868E1
:10330000904201D801260DE02068984207D9206834
:10331000C01A20602846FFF7C6FF002602E0002002
:103320002060012601F06DF9304670BD34000020A8
:1033300044000020F4000020380000203C00002061
:10334000B0030020C40300206C0000204C000020CB
:103350009C030020580000205C0000204800002052
:103360000120FE4908607047014611B10A46906C81
:1033700000E00020704708B1024691647047F849A8
:1033800008687047F749096809B9012005E0F6495E
:10339000096809B9022000E00020704770B50546B1
:1033A0002C460026002D54D0ED49E06A0968C96A10
:1033B000884247D2A06900F0004028B9E848006878
:1033C000C06AC0F12000A061E16A01EB8101E74A17
:1033D00002EB81016069884201D1012000E00020F8
:1033E00050B3201DFDF73CFF78B9E06A00EB800088
:1033F000DE4951F8200040B994F82C100120884093
:10340000DB4909688143DA480160D5480068C06A31
:10341000E06294F82C1001208840D54909680843DF
:10342000D3490860E16A01EB8101D04A02EB8100D7
:10343000211DFDF7EFFE03E0C9480068C06AE062A5
:10344000012606E0C649E06C0968C96A884200D2D4
:103450000126304670BD70B505462C460026002D6D
:103460004FD0BF480068844201D1012000E0002015
:1034700038B940F63B72AFF60C61AFF6FC5001F084
:103480006DFA206D38B940F63C72AFF62061AFF6A8
:10349000106001F063FA206D401E2065E16CE06A67
:1034A00088422ED0206D60BB201DFDF7D9FE78B973
:1034B000E06A00EB8000AD4951F8200040B994F873
:1034C0002C1001208840AA4909688143A84801605E
:1034D000E06CE062E06AC0F12000A06194F82C107A
:1034E00001208840A24909680843A1490860E16AAF
:1034F00001EB81019D4A02EB8100211DFDF78AFE4F
:103500000126304670BD2DE9F04706460F46344689
:103510004FF00109002E61D0206D38B940F68A7253
:10352000AFF6B861AFF6A86001F018FAE06CB842E7
:1035300001D23D4600E0E56CE06AA8424ED0206D25
:1035400001284BD186480068844201D0012000E068
:10355000002038B940F6A572AFF6F061AFF6E06032
:1035600001F0FCF9D4F82C80E562A06900F000407D
:1035700010B9C5F12000A06108EB88017B4A02EB7D
:1035800081016069884201D1012000E0002028B358
:10359000201DFDF765FE78B9E06A00EB80007349F5
:1035A00051F8200040B994F82C100120884070494F
:1035B000096881436E48016094F82C10012088400E
:1035C0006B49096808436A490860E16A01EB8101B7
:1035D000664A02EB8100211DFDF71CFEBDE8F08765
:1035E00070B505460E463146284601F071FA284668
:1035F00001F092FA044602E020202855641C0F2CAA
:10360000FAD300202855281970BD7FB50546002043
:1036100028705848006803905649096801EBC101B9
:10362000880000F01AFE0446002C53D000222046E9
:103630000399FFF7FAFC03900020029043E0029800
:1036400000EBC00004EB8000007B05280ED2DFE811
:1036500000F0030507090B00582609E0522607E091
:10366000422605E0532603E0442601E0002600BF81
:1036700000BF029800EBC00004EB800041682846C0
:10368000FFF7AEFF0546029800EBC00004EB800098
:103690008068029901EBC10104EB8101098CCDE93D
:1036A0000010029800EBC00004EB8000324632A10B
:1036B0000369284601F05EF9284601F02DFA054419
:1036C0000298401C0290DDE902018842B7D32046EF
:1036D00000F046FE7FBD22490968886920490968D3
:1036E000C96AC1F120011E4A1268916170471C48E5
:1036F000006830B11A49096801F15000096D491C90
:10370000016017480068704770B506460D4600F026
:1037100055FF13480068406D88B9012010490968B9
:1037200081F858005DB101212846FFF72CF84FF0D1
:10373000805015490860BFF34F8FBFF36F8F00F0C3
:1037400060FF00F03BFF06480068446D14B3EEB123
:1037500000200349096848651CE00000580000206B
:1037600034000020500000206C000020F4000020F5
:103770004C00002044000020092563092575092517
:10378000750925750D0A000004ED00E0601EE8498A
:10379000096848650020E649096881F8580000F08A
:1037A00030FF204670BD2DE9F0410746884614469B
:1037B0001D4600F003FFDE48006890F8580002281C
:1037C00018D0DB49096801F15400496DB943016023
:1037D0000120D749096881F858005DB101212846C8
:1037E000FEF7D1FF4FF08050D2490860BFF34F8FF2
:1037F000BFF36F8F00F005FF00F0E0FE1CB1CC4876
:103800000068406D2060CA48006890F8580002289F
:1038100001D0002608E0C649096801F15400496D4D
:1038200021EA0801016001260020C149096881F8E8
:10383000580000F0E6FE3046BDE8F0812DE9F04783
:1038400006460D46174698464FF0010A36B941F232
:10385000D912B94901F1140001F080F8344600F0A2
:10386000ADFEB8F1000F02D0606DC8F8000094F80A
:103870005890022084F85800052F17D2DFE807F08F
:103880001503070B0D00606D284360650EE0606D49
:10389000401C60650AE0656508E0B9F1020F01D0DF
:1038A000656501E04FF0000A00E000BF00BFB9F11C
:1038B000010F2FD1201DFDF7D3FC94F82C1001200F
:1038C00088409E49096808439C490860E16A01EB09
:1038D00081019B4A02EB8100211DFDF79BFCA06A40
:1038E00008B9012000E0002030B941F211229249CC
:1038F00001F1140001F032F88D49E06A0968C96AE3
:10390000884207D94FF080508A490860BFF34F8F33
:10391000BFF36F8F00F075FE5046BDE8F0872DE9CC
:10392000F84F07460E4690469946DDF828B001202C
:10393000009037B941F244227F4901F1140001F0AF
:103940000DF800F08EFE3C4600BF5021EFF31180D1
:1039500081F31188BFF34F8FBFF36F8F00BF054610
:10396000B9F1000F02D0606DC9F8000094F858A0BA
:10397000022084F85800B8F1050F17D2DFE808F0EC
:103980001503070B0D00606D304360650EE0606D40
:10399000401C60650AE0666508E0BAF1020F01D0DC
:1039A000666501E00020009000E000BF00BFBAF1B2
:1039B000010F3AD1A06A08B9012000E0002030B917
:1039C00041F28B225C4901F1140000F0C7FF5D4811
:1039D0000068A8B9201DFDF743FC94F82C100120C5
:1039E000884056490968084354490860E16A01EB78
:1039F0008101534A02EB8100211DFDF70BFC04E01D
:103A000004F118015048FDF705FC4949E06A0968CE
:103A1000C96A884209D9BBF1000F03D00120CBF855
:103A2000000002E001204949086000BF85F31188C9
:103A300000BF0098BDE8F88F2DE9F04105460F461C
:103A400035B941F2BF223C4901F1140000F086FF74
:103A500000F007FE2C4600BF5021EFF3118081F3E8
:103A60001188BFF34F8FBFF36F8F00BF064694F8E6
:103A70005880022084F85800606D401C6065B8F1E1
:103A8000010F37D1A06A08B9012000E0002030B949
:103A900041F2E522284901F1140000F05FFF2948B6
:103AA0000068A8B9201DFDF7DBFB94F82C1001205D
:103AB000884022490968084320490860E16A01EB0F
:103AC00081011F4A02EB8100211DFDF7A3FB04E0E9
:103AD00004F118011C48FDF79DFB1549E06A0968CF
:103AE000C96A884206D917B10120386002E0012076
:103AF0001649086000BF86F3118800BFBDE8F08159
:103B000070B5054615B90A48006800E02846064623
:103B100000F054FD96F85800022804D1002086F8E1
:103B20005800012400E0002400F06BFD204670BD29
:103B30003400002004ED00E06C2600084C0000205A
:103B4000F40000206C0000209C030020580000209E
:103B50002DE9F04104460D4616461F464FF0000879
:103B600065602461B5420CD8F01BA169884202D37C
:103B70004FF0010811E0211DF6480068FDF756FBE3
:103B80000BE0BE4204D2BD4202D34FF0010804E074
:103B9000211DF1480068FDF749FB4046BDE8F08172
:103BA0002DE9FF4704460D4616461F46DDF83080D6
:103BB0004FF000092CB94FF4C172E8A1EDA000F05C
:103BC000CDFEF048006810B3009501960294062DD2
:103BD00015DAFFF7D7FB022808D1002342466946D1
:103BE000E8480068FDF7A5FC814610E000231A466E
:103BF0006946E4480068FDF79CFC814607E0002325
:103C00003A466946DF480068FDF7E7FE81464846C8
:103C100004B0BDE8F0872DE9F8432DE0CE480068F8
:103C2000C0680568CC480068C068C468201DFDF7FE
:103C300017FB2046616A8847E06901281CD1A0690A
:103C40004619AE4207D966602461211DC24800684A
:103C5000FDF7ECFA10E0002003462A4601460090EA
:103C60002046FFF79DFF07462FB940F26E32BBA1F9
:103C7000C0A000F073FE00BFB7480068006808B934
:103C8000012000E000200028C8D0B348D0F8008010
:103C9000B0480068B0490860AE48C0F80080BDE890
:103CA000F88370B50446FFF7FAF80546B648006891
:103CB000854204D2FFF7AFFF0120206001E0002021
:103CC0002060B1480560284670BDF0B587B070E04F
:103CD000039800280CDA04AE2EB940F2C3229FA14B
:103CE000A4A000F03BFED6E90020B168904700BFD9
:103CF000039800285DDB059C606908B9012000E09D
:103D0000002010B9201DFDF7ABFA02A8FFF7C9FF8C
:103D1000054603980A284AD2DFE800F00905072C77
:103D20002E4506082D2F00BF00BF00BF00BF04981E
:103D3000A269811803462A462046FFF709FFC0B151
:103D40002046616A8847E069012812D1002000906E
:103D50000498A1694218002319462046FFF720FF66
:103D600007462FB940F2FD227CA182A000F0F6FDAB
:103D700000BF1DE000BF1BE000BF0498A061A06968
:103D800008B1012000E0002028B94FF4457273A16A
:103D900078A000F0E3FDA06941192B462A46204691
:103DA000FFF7D6FE04E0204600F0DAFA00E000BF9C
:103DB00000BF002203A973480068FDF713FF002825
:103DC00086D107B0F0BDF8B505460F4662480068D9
:103DD000C068C468201DFDF743FAE069012818D1C6
:103DE000A06941192B463A462046FFF7B1FE80B143
:103DF000002003462A46014600902046FFF7D0FEE9
:103E000006462EB94FF4F27254A15AA000F0A6FD56
:103E100000BF2046616A8847F8BDF8B505460C46E4
:103E2000FEF7EFFC6846FFF73CFF0646009820BB14
:103E300044B9B54206D8FEF739FC31462846FFF7AB
:103E4000C2FF1CE03CB143480068006808B901208B
:103E500000E000200446A91B22464A480068FEF7FD
:103E600079F9FEF723FC50B94FF0805047490860BC
:103E7000BFF34F8FBFF36F8F01E0FEF717FCF8BD64
:103E80000146354A126812680AB9012200E0002290
:103E90000A600A6822B9304A1268D268106800E0E5
:103EA0000020704708B500BF6846FFF7E9FF0446E9
:103EB00020460099FFF7B1FFFFF707FFF4E710B5C1
:103EC00000F07CFB2F480068D0B93148FDF792F92B
:103ED0003048FDF78FF92E481F4908602D481D49CD
:103EE0000860002210210520FDF728FA2549086006
:103EF0000846006820B128A122480068FEF704F9AE
:103F000000F07FFB10BD1CB50024FFF7D8FF1D4853
:103F1000006858B122481F2100234FF48272CDE976
:103F2000001020A12148FEF74FFA04462CB940F2B8
:103F30000F120AA10FA000F011FD20461CBD2DE9B3
:103F4000F04706460D4617469846DDE908947DB3CE
:103F500001202FE074000020700000202E2E5C460F
:103F600072656552544F535C74696D6572732E634C
:103F7000000000004572726F723A25732C25640DA3
:103F80000A000000780000208000002004ED00E01E
:103F9000D8030020EC030020546D72510000000093
:103FA0007C000020546D722053766300A53E00080B
:103FB000FFE7002038B94FF4B472AFF26001AFF2FE
:103FC0004C0000F0CBFC5CB1FFF779FF2660A561E7
:103FD000E761C4F82080C4F82490201DFDF717F98C
:103FE000BDE8F0872DE9FC4705460E461746984682
:103FF000DDF828902C2000F030F904463CB143460F
:104000003A4631462846CDE90094FFF798FF20460E
:10401000BDE8FC8710B55E48006808B1012000E0EB
:10402000002038B94FF4D672AFF2D001AFF2BC0025
:1040300000F094FC5648006810BD70B50446254653
:104040003CB940F2B512AFF2EC01AFF2D80000F08B
:1040500085FCA86970BD70B5044625463CB940F2A0
:10406000BF12AFF20811AFF2F40000F077FC6E68F7
:10407000304670BD70B5044625463CB940F2C912C1
:10408000AFF22811AFF2141000F068FC286870BD80
:1040900070B5044626463CB940F2B632AFF2441140
:1040A000AFF2301000F05AFC00F088FA706908B9DD
:1040B000012000E0002080F0010500F0A2FA28466F
:1040C00070BD70B5044626463CB940F2CB32AFF223
:1040D0007411AFF2601000F041FC00F06FFA356A25
:1040E00000F08FFA284670BD70B504460D4626468E
:1040F0003CB940F2DB32AFF29C11AFF2881000F015
:104100002DFC00F05BFA356200F07BFA70BD2DE902
:10411000FF4104460D4616461F466FF00100009011
:1041200001940295039600233A46694619480068AF
:10413000FDF753FC8046404604B0BDE8F0812DE910
:10414000FF4104460D4616461F461248006838B91E
:1041500040F20742AFF2FC11AFF2E81000F0FEFBB4
:104160004FF0FF30009001940295039600233A46E9
:10417000694608480068FDF7DCF98046404604B00F
:10418000BDE8F0810146886A70478162704700008F
:104190007C0000207800002010B50146924800E025
:1041A000006803688B42FBD30246436813448B428A
:1041B00004D143684C682344436001460A464B6877
:1041C00013440468A34211D1884C03682468A342B5
:1041D00008D04B680468646823444B6003681B681C
:1041E0000B6005E0814B1B680B6001E003680B600E
:1041F000884200D0016010BD30B54FF4A0437C4828
:1042000000F007042CB1C01D20F00700784C041BFF
:104210001B1B0246744C22600024734D6C60D01846
:10422000083820F00700714C206000246F4D2D6885
:104230006C606E4D2D682C601146441A4C606B4CBE
:1042400024680C606B4D4C682C606B4D4C682C6086
:104250004FF00044694D2C6030BD2DE9F04104461B
:104260004FF00008FEF7CDFA6048006808B9FFF784
:10427000C3FF62480068204000285FD1A4B1083421
:1042800004F0070080B104F00700C0F10800044406
:1042900004F0070008B9012000E0002020B99522B1
:1042A00057A161A000F05AFB002C47D0524800688B
:1042B000844243D84C4E3046056801E02E462D68B6
:1042C0006868A04202D228680028F7D147480068F1
:1042D000854233D0306800F108082868306068688B
:1042E000001B102813D92F1907F0070008B9012067
:1042F00000E0002020B9C22241A14BA000F02EFB1B
:104300006868001B78606C603846FFF745FF3A49E3
:1043100068680968081A384908600846006835491D
:104320000968884203D2344800683249086033493A
:10433000686809680843686000202860FEF7B6F9DD
:1043400008F0070008B9012000E0002028B94FF468
:1043500081722BA134A000F001FB4046BDE8F08142
:1043600070B506463546002E35D0083D2C4623490B
:1043700060680968084008B1012000E0002028B901
:104380004FF48B721EA128A000F0E8FA206808B94B
:10439000012000E0002028B940F2171218A122A045
:1043A00000F0DCFA154960680968084098B1206897
:1043B00088B912496068096888436060FEF721FA8D
:1043C0000D496068096808440B4908602046FFF7FA
:1043D000E3FEFEF76BF970BD0748006870470548BB
:1043E0000068704770470000840000208C000020A7
:1043F000000400209400002090000020980000207D
:104400002E2E5C4672656552544F535C706F727409
:1044100061626C655C4D656D4D616E675C68656180
:10442000705F342E630000004572726F723A25731C
:104430002C25640D0A000000A0480068401C08B943
:10444000012000E0002020B9CA229DA1A7A000F011
:1044500085FA00BF502080F31188BFF34F8FBFF360
:104460006F8F00BF00BFFEE7001F4FF08073036037
:10447000001F21F001030360001FA04B03601438EC
:1044800002602038704700204FF0E0210861886109
:104490009B4800684FF47A71B0FBF1F0401E4FF07A
:1044A000E02148610720086170471CB5954C204603
:1044B00000780190FF20214608700846007800909F
:1044C0009DF8000000F0F0009DF80010884201D136
:1044D000012000E0002028B94FF48A7278A183A05F
:1044E00000F03CFA9DF8000000F05000864908708A
:1044F00007208649086009E084480068401E834917
:1045000008609DF800004006000E00909DF8000035
:1045100000F080008028EFD07C480068C0F10700E0
:10452000042801D1012000E0002028B940F2271220
:1045300063A16EA000F012FA74480068C0F1070091
:10454000042801D1012000E0002028B94FF498721E
:104550005BA166A000F002FA6C48006800026B499B
:1045600008600846008800F4E0600860654901982A
:1045700008706748006840F47000654908600846A4
:10458000006840F070400860FFF77DFF00204B4955
:104590000860FBF73BFE00201CBD10B547480068D3
:1045A000B0F57A7F01D1012000E0002028B94FF456
:1045B000AB7243A14DA000F0D1F910BD10B500BF02
:1045C000502080F31188BFF34F8FBFF36F8F00BF70
:1045D0003A480068401C39490860084600680128CC
:1045E0000ED14B481C380068C0B208B9012000E069
:1045F000002028B94FF4B37231A13CA000F0AEF90D
:1046000010BD10B52D48006828B940F26D122CA1DC
:1046100036A000F0A3F929480068401E2749086029
:104620000846006820B9002080F3118800BF00BF51
:1046300010BD10B500BF502080F31188BFF34F8F1D
:10464000BFF36F8F00BFFDF76DFF20B14FF08050BB
:104650002F491C39086000BF002080F3118800BF7B
:1046600010BD70B5FBF708FE0546102D11D305F1FE
:10467000E02090F8F04324480078844201DB0120D8
:1046800000E0002028B940F2A5220DA117A000F0FB
:1046900065F91F481438006800F4E0601B49096898
:1046A000884201D8012000E0002028B940F2B5225C
:1046B00003A10EA000F052F970BD00009C00002084
:1046C0002E2E5C4672656552544F535C706F727447
:1046D00061626C655C525644535C41524D5F434D80
:1046E000335C706F72742E63000000004572726F4D
:1046F000723A25732C25640D0A0000003944000825
:104700000C00002000E400E0A0000020A400002035
:1047100020ED00E010B5FEF735FE012801D0FFF7CF
:1047200088FF10BD10B50420FCF745FD3648006831
:104730003649B0FBF1F03649087033480068334918
:10474000B0FBF1F44FF47A70444301203149088002
:104750004FF0E020006940F002004FF0E0210861D6
:1047600008464461006940F00100086110BD70B561
:10477000034600224FF0E0267569254E367803FB8C
:1047800006F44FF0E026B16910E04FF0E026B06982
:1047900088420BD0884202D20E1A324402E02E1A0E
:1047A0000E4432440146A24200D300E0EDE700BFD0
:1047B00070BD70B50446FEF7E5FD012810D0154820
:1047C0000088844206D313480088B4FBF0F52846DD
:1047D000FEF778F80F480088B4FBF0F100FB1144B5
:1047E0004FF47A7104FB01F0FFF7C1FF70BD30B5E3
:1047F0000446002504E04FF47A70FFF7B8FF6D1C03
:10480000A542F8D330BD00000C00002040420F004C
:10481000A8000020AA00002000BF704700BF4A4A3D
:10482000128802F04002002AF9D0C2B2464B1B1D8A
:104830001A80704710B586B00446012144F2040086
:10484000FCF702FA4FF40070ADF8140003208DF865
:10485000160018208DF8170005A93C48FBF738FF13
:104860004FF48060ADF8140004208DF8170005A9FE
:104870003648FBF72DFF25208DF8000003208DF82A
:1048800001008DF8020001208DF803006846FCF756
:1048900048FC01940020ADF80800ADF80A00ADF81E
:1048A0000C00ADF810000C20ADF80E0001A9264850
:1048B000FCF771FA012240F225512348FCF703FB73
:1048C00001212148FCF7F3FA06B010BD10B540F203
:1048D00025511D48FCF7DCFB10B31B48FCF758FBC7
:1048E000C4B21B48008800F40040C8B918480088CA
:1048F00000F4804060B10A2C03D0002014490880E5
:1049000020E01348008840F400401149088019E075
:104910000D2C06D10E48008840F480400C490880D8
:1049200010E00B480088C0F30D000A490C540848F9
:104930000088401C0649088008460088C72801DD19
:104940000020088010BD0000003801400008014030
:10495000B000002000540020704700000FB404494C
:1049600010B503AA029800F0D5F910BC5DF814FB4D
:10497000AC0000200FB41CB5074B06AA7B44694667
:104980000090059800F097F90020694600F0A6F91C
:104990001CBC5DF814FB00005D0300002DE9F04134
:1049A0000E460446002020622046E168884730B366
:1049B000252805D0D4E901219047206A401CF2E760
:1049C000E168204600278847050018D0A5F141007E
:1049D000192802D820354FF4006732462946204670
:1049E0002760FBF7DFFB40B1012804D0F61D26F05D
:1049F00007060836D8E7361DD6E72846DAE7206AE4
:104A0000BDE8F08170B50C460546012A05D028782E
:104A1000800600D5EA69002302E0012305E05B1C63
:104A2000934202D2E05C0028F9D1A869E618C01AC6
:104A3000A861286A184428622846AFF3008004E081
:104A4000D5E9012114F8010B9047B442F8D3284668
:104A5000AFF3008070BD00002DE9F0410646002450
:104A600010687529314616A510D0AFF300800028D4
:104A700002DA404213A507E031688A0701D512A582
:104A800002E0490704D511A5012401E0AFF300803D
:104A900000210A2206F1240709E0B0FBF2FCB0FB7A
:104AA000F2F302FB1C00303078541846491C0028F1
:104AB000F3D123462A463046BDE8F04100F09CB8C9
:104AC000000000002D0000002B000000200000006E
:104AD00040EA0103024630B59B0710D14FF0013484
:104AE00000E008C208C91D1B9D4315EAC41FF8D089
:104AF00013F0FF0102F8011B0DD01B0AF8E711F8B3
:104B0000013B002B02F8013B05D011F8013B002BC3
:104B100002F8013BF3D130BD10B5431C02E010F8A0
:104B2000011B71B18107FAD14FF0013202C88C1A12
:104B30008C4314EAC211F9D0C01A0A0603D0C01E71
:104B400010BDC01A10BD0A0401D0801E10BD09029C
:104B5000FCD0401E10BD032A40F2308010F0030C40
:104B600000F0158011F8013BBCF1020F624498BFC0
:104B700011F801CB00F8013B38BF11F8013BA2F15D
:104B8000040298BF00F801CB38BF00F8013B11F0D8
:104B9000030300F0D180083AC0F0088051F8043BCC
:104BA000083A51F804CBA0E80810F5E7121D5CBFE5
:104BB00051F8043B40F8043BAFF30080D20724BF18
:104BC00011F8013B11F801CB48BF11F8012B24BFAC
:104BD00000F8013B00F801CB48BF00F8012B7047FB
:104BE00002F0FF0343EA032242EA024200F0D8B88F
:104BF00070477047704770472DE9F0470D4699465A
:104C00009246044600F124080168880604D5E0694C
:104C100021F01001216000E00120A84201DD471BC6
:104C200000E00027A1697A1902EB0900081AA061C7
:104C30002078C00602D42046AFF30080002608E0AA
:104C4000D4E901211AF806009047206A401C761C1E
:104C500020624E45F4DB2078C0060AD52046AFF32B
:104C6000008006E0D4E9012130209047206A401CF2
:104C70002062381EA7F10107F4DC07E0D4E9012126
:104C800018F805009047206A401C2062281EA5F1F4
:104C90000105F3DC2046AFF300802078000602D542
:104CA0000220BDE8F0870120FBE7000001694A1CF3
:104CB00002610878704700B58FB0CDE9013100215D
:104CC000059105497944CDE9031011466846FFF77F
:104CD00065FE0FB000BD0000E5FFFFFF0A6802F8A7
:104CE000010B0A60704710B5436913B1AFF3008040
:104CF00001E0FFF787FE012010BD127800F12401CA
:104D00000A7000224A700122EDE711684FF0FF326D
:104D1000E9E70000074B70B50D467B44FFF7CBFF7A
:104D20000446284600F05CF810B14FF0FF3070BD2B
:104D3000204670BDFFFAFFFF10B5203AC0F00B808F
:104D4000B1E81850203AA0E81850B1E81850A0E88F
:104D50001850BFF4F5AF5FEA027C24BFB1E81850E9
:104D6000A0E8185044BF18C918C0BDE810405FEA59
:104D7000827C24BF51F8043B40F8043B08BF7047D5
:104D8000D20728BF31F8023B48BF11F8012B28BFDA
:104D900020F8023B48BF00F8012B70474FF000029B
:104DA0000429C0F0128010F0030C00F01F80CCF139
:104DB000040CBCF1020F18BF00F8012BA8BF20F8AB
:104DC000022BA1EB0C0100F011B85FEAC17C24BFFB
:104DD00000F8012B00F8012B48BF00F8012B7047A9
:104DE000007B00F0800070474FF0000200B51346D2
:104DF00094469646203922BFA0E80C50A0E80C50FB
:104E0000B1F12001BFF4F7AF090728BFA0E80C50AB
:104E100048BF0CC05DF804EB890028BF40F8042BA4
:104E200008BF704748BF20F8022B11F0804F18BF11
:104E300000F8012B7047754600F02CF8AE460500CF
:104E40006946534620F00700854618B020B5FBF7A9
:104E5000CDFBBDE820404FF000064FF000074FF0BB
:104E600000084FF0000B21F00701AC46ACE8C00988
:104E7000ACE8C009ACE8C009ACE8C0098D46704791
:104E800010B50446AFF300802046BDE81040FBF7A4
:104E9000A4B9000000487047C8540020BC4E000868
:104EA00000000020B40000006C010008704F0008F2
:104EB000B4000020745A00008801000800000000BF
:104EC000000000000000000000A24A0400000000F2
:104ED00000000000010203040607080900000000AA
:104EE000010203040102030406070809020406087C
:104EF00000000000000000000000000000000000B2
:104F000000000000000000000000000000000000A1
:104F10000000000000000000000000000000000091
:104F20000000000000000000000000000000000081
:104F30000000000000000000000000000000000071
:104F40000000000000000000000000000000000061
:104F50000000000000000000AAAAAAAA00000000A9
:104F60000000000000000000000000000000000041
:0400000508000131BD
:00000001FF
